{
	"contracts/lottery.sol": {
		"Lottery": {
			"abi": [
				{
					"inputs": [
						{
							"internalType": "address",
							"name": "_polToken",
							"type": "address"
						},
						{
							"internalType": "uint256",
							"name": "_ticketPrice",
							"type": "uint256"
						},
						{
							"internalType": "uint256",
							"name": "_durationInDays",
							"type": "uint256"
						}
					],
					"stateMutability": "nonpayable",
					"type": "constructor"
				},
				{
					"inputs": [
						{
							"internalType": "address",
							"name": "owner",
							"type": "address"
						}
					],
					"name": "OwnableInvalidOwner",
					"type": "error"
				},
				{
					"inputs": [
						{
							"internalType": "address",
							"name": "account",
							"type": "address"
						}
					],
					"name": "OwnableUnauthorizedAccount",
					"type": "error"
				},
				{
					"anonymous": false,
					"inputs": [
						{
							"indexed": true,
							"internalType": "address",
							"name": "previousOwner",
							"type": "address"
						},
						{
							"indexed": true,
							"internalType": "address",
							"name": "newOwner",
							"type": "address"
						}
					],
					"name": "OwnershipTransferred",
					"type": "event"
				},
				{
					"inputs": [],
					"name": "Token",
					"outputs": [
						{
							"internalType": "contract IERC20Metadata",
							"name": "",
							"type": "address"
						}
					],
					"stateMutability": "view",
					"type": "function"
				},
				{
					"inputs": [
						{
							"internalType": "uint8[4]",
							"name": "numbers",
							"type": "uint8[4]"
						}
					],
					"name": "buyTicket",
					"outputs": [],
					"stateMutability": "nonpayable",
					"type": "function"
				},
				{
					"inputs": [
						{
							"internalType": "uint256",
							"name": "lotteryId",
							"type": "uint256"
						}
					],
					"name": "claimReward",
					"outputs": [],
					"stateMutability": "nonpayable",
					"type": "function"
				},
				{
					"inputs": [],
					"name": "currentLotteryId",
					"outputs": [
						{
							"internalType": "uint256",
							"name": "",
							"type": "uint256"
						}
					],
					"stateMutability": "view",
					"type": "function"
				},
				{
					"inputs": [
						{
							"internalType": "uint8[4]",
							"name": "numbers",
							"type": "uint8[4]"
						}
					],
					"name": "drawWinningNumbers",
					"outputs": [],
					"stateMutability": "nonpayable",
					"type": "function"
				},
				{
					"inputs": [],
					"name": "getPolTokenName",
					"outputs": [
						{
							"internalType": "string",
							"name": "",
							"type": "string"
						}
					],
					"stateMutability": "view",
					"type": "function"
				},
				{
					"inputs": [
						{
							"internalType": "uint256",
							"name": "",
							"type": "uint256"
						}
					],
					"name": "isDrawn",
					"outputs": [
						{
							"internalType": "bool",
							"name": "",
							"type": "bool"
						}
					],
					"stateMutability": "view",
					"type": "function"
				},
				{
					"inputs": [],
					"name": "lastDrawTime",
					"outputs": [
						{
							"internalType": "uint256",
							"name": "",
							"type": "uint256"
						}
					],
					"stateMutability": "view",
					"type": "function"
				},
				{
					"inputs": [],
					"name": "lotteryDuration",
					"outputs": [
						{
							"internalType": "uint256",
							"name": "",
							"type": "uint256"
						}
					],
					"stateMutability": "view",
					"type": "function"
				},
				{
					"inputs": [
						{
							"internalType": "uint256",
							"name": "",
							"type": "uint256"
						},
						{
							"internalType": "uint256",
							"name": "",
							"type": "uint256"
						}
					],
					"name": "lotteryTickets",
					"outputs": [
						{
							"internalType": "address",
							"name": "buyer",
							"type": "address"
						}
					],
					"stateMutability": "view",
					"type": "function"
				},
				{
					"inputs": [],
					"name": "owner",
					"outputs": [
						{
							"internalType": "address",
							"name": "",
							"type": "address"
						}
					],
					"stateMutability": "view",
					"type": "function"
				},
				{
					"inputs": [],
					"name": "polToken",
					"outputs": [
						{
							"internalType": "contract IERC20",
							"name": "",
							"type": "address"
						}
					],
					"stateMutability": "view",
					"type": "function"
				},
				{
					"inputs": [],
					"name": "renounceOwnership",
					"outputs": [],
					"stateMutability": "nonpayable",
					"type": "function"
				},
				{
					"inputs": [],
					"name": "ticketPrice",
					"outputs": [
						{
							"internalType": "uint256",
							"name": "",
							"type": "uint256"
						}
					],
					"stateMutability": "view",
					"type": "function"
				},
				{
					"inputs": [
						{
							"internalType": "address",
							"name": "newOwner",
							"type": "address"
						}
					],
					"name": "transferOwnership",
					"outputs": [],
					"stateMutability": "nonpayable",
					"type": "function"
				},
				{
					"inputs": [
						{
							"internalType": "uint256",
							"name": "",
							"type": "uint256"
						},
						{
							"internalType": "uint256",
							"name": "",
							"type": "uint256"
						}
					],
					"name": "winningNumbers",
					"outputs": [
						{
							"internalType": "uint8",
							"name": "",
							"type": "uint8"
						}
					],
					"stateMutability": "view",
					"type": "function"
				}
			],
			"devdoc": {
				"errors": {
					"OwnableInvalidOwner(address)": [
						{
							"details": "The owner is not a valid owner account. (eg. `address(0)`)"
						}
					],
					"OwnableUnauthorizedAccount(address)": [
						{
							"details": "The caller account is not authorized to perform an operation."
						}
					]
				},
				"kind": "dev",
				"methods": {
					"owner()": {
						"details": "Returns the address of the current owner."
					},
					"renounceOwnership()": {
						"details": "Leaves the contract without owner. It will not be possible to call `onlyOwner` functions. Can only be called by the current owner. NOTE: Renouncing ownership will leave the contract without an owner, thereby disabling any functionality that is only available to the owner."
					},
					"transferOwnership(address)": {
						"details": "Transfers ownership of the contract to a new account (`newOwner`). Can only be called by the current owner."
					}
				},
				"version": 1
			},
			"evm": {
				"assembly": "    /* \"contracts/lottery.sol\":252:3564  contract Lottery is Ownable {... */\n  mstore(0x40, 0x80)\n    /* \"contracts/lottery.sol\":527:569  0x742d35Cc6634C0532925a3b844Bc454e4438f44e */\n  0x742d35cc6634c0532925a3b844bc454e4438f44e\n    /* \"contracts/lottery.sol\":491:569  address VALID_ERC20_TOKEN_ADDRESS = 0x742d35Cc6634C0532925a3b844Bc454e4438f44e */\n  0x07\n  exp(0x0100, 0x00)\n  dup2\n  sload\n  dup2\n  0xffffffffffffffffffffffffffffffffffffffff\n  mul\n  not\n  and\n  swap1\n  dup4\n  0xffffffffffffffffffffffffffffffffffffffff\n  and\n  mul\n  or\n  swap1\n  sstore\n  pop\n    /* \"contracts/lottery.sol\":823:1236  constructor(address _polToken, uint256 _ticketPrice, uint256 _durationInDays)... */\n  callvalue\n  dup1\n  iszero\n  tag_1\n  jumpi\n  revert(0x00, 0x00)\ntag_1:\n  pop\n  mload(0x40)\n  sub(codesize, bytecodeSize)\n  dup1\n  bytecodeSize\n  dup4\n  codecopy\n  dup2\n  dup2\n  add\n  0x40\n  mstore\n  dup2\n  add\n  swap1\n  tag_2\n  swap2\n  swap1\n  tag_3\n  jump\t// in\ntag_2:\n    /* \"contracts/lottery.sol\":918:928  msg.sender */\n  caller\n    /* \"@openzeppelin/contracts/access/Ownable.sol\":1297:1298  0 */\n  0x00\n    /* \"@openzeppelin/contracts/access/Ownable.sol\":1273:1299  initialOwner == address(0) */\n  0xffffffffffffffffffffffffffffffffffffffff\n  and\n    /* \"@openzeppelin/contracts/access/Ownable.sol\":1273:1285  initialOwner */\n  dup2\n    /* \"@openzeppelin/contracts/access/Ownable.sol\":1273:1299  initialOwner == address(0) */\n  0xffffffffffffffffffffffffffffffffffffffff\n  and\n  sub\n    /* \"@openzeppelin/contracts/access/Ownable.sol\":1269:1364  if (initialOwner == address(0)) {... */\n  tag_7\n  jumpi\n    /* \"@openzeppelin/contracts/access/Ownable.sol\":1350:1351  0 */\n  0x00\n    /* \"@openzeppelin/contracts/access/Ownable.sol\":1322:1353  OwnableInvalidOwner(address(0)) */\n  mload(0x40)\n  0x1e4fbdf700000000000000000000000000000000000000000000000000000000\n  dup2\n  mstore\n  0x04\n  add\n  tag_8\n  swap2\n  swap1\n  tag_9\n  jump\t// in\ntag_8:\n  mload(0x40)\n  dup1\n  swap2\n  sub\n  swap1\n  revert\n    /* \"@openzeppelin/contracts/access/Ownable.sol\":1269:1364  if (initialOwner == address(0)) {... */\ntag_7:\n    /* \"@openzeppelin/contracts/access/Ownable.sol\":1373:1405  _transferOwnership(initialOwner) */\n  tag_10\n    /* \"@openzeppelin/contracts/access/Ownable.sol\":1392:1404  initialOwner */\n  dup2\n    /* \"@openzeppelin/contracts/access/Ownable.sol\":1373:1391  _transferOwnership */\n  shl(0x20, tag_11)\n    /* \"@openzeppelin/contracts/access/Ownable.sol\":1373:1405  _transferOwnership(initialOwner) */\n  0x20\n  shr\n  jump\t// in\ntag_10:\n    /* \"@openzeppelin/contracts/access/Ownable.sol\":1225:1412  constructor(address initialOwner) {... */\n  pop\n    /* \"contracts/lottery.sol\":1012:1021  _polToken */\n  dup3\n    /* \"contracts/lottery.sol\":994:1002  polToken */\n  0x01\n  0x00\n    /* \"contracts/lottery.sol\":994:1022  polToken = IERC20(_polToken) */\n  0x0100\n  exp\n  dup2\n  sload\n  dup2\n  0xffffffffffffffffffffffffffffffffffffffff\n  mul\n  not\n  and\n  swap1\n  dup4\n  0xffffffffffffffffffffffffffffffffffffffff\n  and\n  mul\n  or\n  swap1\n  sstore\n  pop\n    /* \"contracts/lottery.sol\":1056:1065  _polToken */\n  dup3\n    /* \"contracts/lottery.sol\":1033:1038  Token */\n  0x04\n  0x00\n    /* \"contracts/lottery.sol\":1033:1066  Token = IERC20Metadata(_polToken) */\n  0x0100\n  exp\n  dup2\n  sload\n  dup2\n  0xffffffffffffffffffffffffffffffffffffffff\n  mul\n  not\n  and\n  swap1\n  dup4\n  0xffffffffffffffffffffffffffffffffffffffff\n  and\n  mul\n  or\n  swap1\n  sstore\n  pop\n    /* \"contracts/lottery.sol\":1091:1103  _ticketPrice */\n  dup2\n    /* \"contracts/lottery.sol\":1077:1088  ticketPrice */\n  0x02\n    /* \"contracts/lottery.sol\":1077:1103  ticketPrice = _ticketPrice */\n  dup2\n  swap1\n  sstore\n  pop\n    /* \"contracts/lottery.sol\":1150:1156  1 days */\n  0x015180\n    /* \"contracts/lottery.sol\":1132:1147  _durationInDays */\n  dup2\n    /* \"contracts/lottery.sol\":1132:1156  _durationInDays * 1 days */\n  tag_13\n  swap2\n  swap1\n  tag_14\n  jump\t// in\ntag_13:\n    /* \"contracts/lottery.sol\":1114:1129  lotteryDuration */\n  0x03\n    /* \"contracts/lottery.sol\":1114:1156  lotteryDuration = _durationInDays * 1 days */\n  dup2\n  swap1\n  sstore\n  pop\n    /* \"contracts/lottery.sol\":1182:1197  block.timestamp */\n  timestamp\n    /* \"contracts/lottery.sol\":1167:1179  lastDrawTime */\n  0x06\n    /* \"contracts/lottery.sol\":1167:1197  lastDrawTime = block.timestamp */\n  dup2\n  swap1\n  sstore\n  pop\n    /* \"contracts/lottery.sol\":1227:1228  1 */\n  0x01\n    /* \"contracts/lottery.sol\":1208:1224  currentLotteryId */\n  0x05\n    /* \"contracts/lottery.sol\":1208:1228  currentLotteryId = 1 */\n  dup2\n  swap1\n  sstore\n  pop\n    /* \"contracts/lottery.sol\":823:1236  constructor(address _polToken, uint256 _ticketPrice, uint256 _durationInDays)... */\n  pop\n  pop\n  pop\n    /* \"contracts/lottery.sol\":252:3564  contract Lottery is Ownable {... */\n  jump(tag_15)\n    /* \"@openzeppelin/contracts/access/Ownable.sol\":2912:3099  function _transferOwnership(address newOwner) internal virtual {... */\ntag_11:\n    /* \"@openzeppelin/contracts/access/Ownable.sol\":2985:3001  address oldOwner */\n  0x00\n    /* \"@openzeppelin/contracts/access/Ownable.sol\":3004:3010  _owner */\n  0x00\n  0x00\n  swap1\n  sload\n  swap1\n  0x0100\n  exp\n  swap1\n  div\n  0xffffffffffffffffffffffffffffffffffffffff\n  and\n    /* \"@openzeppelin/contracts/access/Ownable.sol\":2985:3010  address oldOwner = _owner */\n  swap1\n  pop\n    /* \"@openzeppelin/contracts/access/Ownable.sol\":3029:3037  newOwner */\n  dup2\n    /* \"@openzeppelin/contracts/access/Ownable.sol\":3020:3026  _owner */\n  0x00\n  0x00\n    /* \"@openzeppelin/contracts/access/Ownable.sol\":3020:3037  _owner = newOwner */\n  0x0100\n  exp\n  dup2\n  sload\n  dup2\n  0xffffffffffffffffffffffffffffffffffffffff\n  mul\n  not\n  and\n  swap1\n  dup4\n  0xffffffffffffffffffffffffffffffffffffffff\n  and\n  mul\n  or\n  swap1\n  sstore\n  pop\n    /* \"@openzeppelin/contracts/access/Ownable.sol\":3083:3091  newOwner */\n  dup2\n    /* \"@openzeppelin/contracts/access/Ownable.sol\":3052:3092  OwnershipTransferred(oldOwner, newOwner) */\n  0xffffffffffffffffffffffffffffffffffffffff\n  and\n    /* \"@openzeppelin/contracts/access/Ownable.sol\":3073:3081  oldOwner */\n  dup2\n    /* \"@openzeppelin/contracts/access/Ownable.sol\":3052:3092  OwnershipTransferred(oldOwner, newOwner) */\n  0xffffffffffffffffffffffffffffffffffffffff\n  and\n  0x8be0079c531659141344cd1fd0a4f28419497f9722a3daafe3b4186f6b6457e0\n  mload(0x40)\n  mload(0x40)\n  dup1\n  swap2\n  sub\n  swap1\n  log3\n    /* \"@openzeppelin/contracts/access/Ownable.sol\":2975:3099  {... */\n  pop\n    /* \"@openzeppelin/contracts/access/Ownable.sol\":2912:3099  function _transferOwnership(address newOwner) internal virtual {... */\n  pop\n  jump\t// out\n    /* \"#utility.yul\":88:205   */\ntag_18:\n    /* \"#utility.yul\":197:198   */\n  0x00\n    /* \"#utility.yul\":194:195   */\n  0x00\n    /* \"#utility.yul\":187:199   */\n  revert\n    /* \"#utility.yul\":334:460   */\ntag_20:\n    /* \"#utility.yul\":371:378   */\n  0x00\n    /* \"#utility.yul\":411:453   */\n  0xffffffffffffffffffffffffffffffffffffffff\n    /* \"#utility.yul\":404:409   */\n  dup3\n    /* \"#utility.yul\":400:454   */\n  and\n    /* \"#utility.yul\":389:454   */\n  swap1\n  pop\n    /* \"#utility.yul\":334:460   */\n  swap2\n  swap1\n  pop\n  jump\t// out\n    /* \"#utility.yul\":466:562   */\ntag_21:\n    /* \"#utility.yul\":503:510   */\n  0x00\n    /* \"#utility.yul\":532:556   */\n  tag_35\n    /* \"#utility.yul\":550:555   */\n  dup3\n    /* \"#utility.yul\":532:556   */\n  tag_20\n  jump\t// in\ntag_35:\n    /* \"#utility.yul\":521:556   */\n  swap1\n  pop\n    /* \"#utility.yul\":466:562   */\n  swap2\n  swap1\n  pop\n  jump\t// out\n    /* \"#utility.yul\":568:690   */\ntag_22:\n    /* \"#utility.yul\":641:665   */\n  tag_37\n    /* \"#utility.yul\":659:664   */\n  dup2\n    /* \"#utility.yul\":641:665   */\n  tag_21\n  jump\t// in\ntag_37:\n    /* \"#utility.yul\":634:639   */\n  dup2\n    /* \"#utility.yul\":631:666   */\n  eq\n    /* \"#utility.yul\":621:684   */\n  tag_38\n  jumpi\n    /* \"#utility.yul\":680:681   */\n  0x00\n    /* \"#utility.yul\":677:678   */\n  0x00\n    /* \"#utility.yul\":670:682   */\n  revert\n    /* \"#utility.yul\":621:684   */\ntag_38:\n    /* \"#utility.yul\":568:690   */\n  pop\n  jump\t// out\n    /* \"#utility.yul\":696:839   */\ntag_23:\n    /* \"#utility.yul\":753:758   */\n  0x00\n    /* \"#utility.yul\":784:790   */\n  dup2\n    /* \"#utility.yul\":778:791   */\n  mload\n    /* \"#utility.yul\":769:791   */\n  swap1\n  pop\n    /* \"#utility.yul\":800:833   */\n  tag_40\n    /* \"#utility.yul\":827:832   */\n  dup2\n    /* \"#utility.yul\":800:833   */\n  tag_22\n  jump\t// in\ntag_40:\n    /* \"#utility.yul\":696:839   */\n  swap3\n  swap2\n  pop\n  pop\n  jump\t// out\n    /* \"#utility.yul\":845:922   */\ntag_24:\n    /* \"#utility.yul\":882:889   */\n  0x00\n    /* \"#utility.yul\":911:916   */\n  dup2\n    /* \"#utility.yul\":900:916   */\n  swap1\n  pop\n    /* \"#utility.yul\":845:922   */\n  swap2\n  swap1\n  pop\n  jump\t// out\n    /* \"#utility.yul\":928:1050   */\ntag_25:\n    /* \"#utility.yul\":1001:1025   */\n  tag_43\n    /* \"#utility.yul\":1019:1024   */\n  dup2\n    /* \"#utility.yul\":1001:1025   */\n  tag_24\n  jump\t// in\ntag_43:\n    /* \"#utility.yul\":994:999   */\n  dup2\n    /* \"#utility.yul\":991:1026   */\n  eq\n    /* \"#utility.yul\":981:1044   */\n  tag_44\n  jumpi\n    /* \"#utility.yul\":1040:1041   */\n  0x00\n    /* \"#utility.yul\":1037:1038   */\n  0x00\n    /* \"#utility.yul\":1030:1042   */\n  revert\n    /* \"#utility.yul\":981:1044   */\ntag_44:\n    /* \"#utility.yul\":928:1050   */\n  pop\n  jump\t// out\n    /* \"#utility.yul\":1056:1199   */\ntag_26:\n    /* \"#utility.yul\":1113:1118   */\n  0x00\n    /* \"#utility.yul\":1144:1150   */\n  dup2\n    /* \"#utility.yul\":1138:1151   */\n  mload\n    /* \"#utility.yul\":1129:1151   */\n  swap1\n  pop\n    /* \"#utility.yul\":1160:1193   */\n  tag_46\n    /* \"#utility.yul\":1187:1192   */\n  dup2\n    /* \"#utility.yul\":1160:1193   */\n  tag_25\n  jump\t// in\ntag_46:\n    /* \"#utility.yul\":1056:1199   */\n  swap3\n  swap2\n  pop\n  pop\n  jump\t// out\n    /* \"#utility.yul\":1205:1868   */\ntag_3:\n    /* \"#utility.yul\":1293:1299   */\n  0x00\n    /* \"#utility.yul\":1301:1307   */\n  0x00\n    /* \"#utility.yul\":1309:1315   */\n  0x00\n    /* \"#utility.yul\":1358:1360   */\n  0x60\n    /* \"#utility.yul\":1346:1355   */\n  dup5\n    /* \"#utility.yul\":1337:1344   */\n  dup7\n    /* \"#utility.yul\":1333:1356   */\n  sub\n    /* \"#utility.yul\":1329:1361   */\n  slt\n    /* \"#utility.yul\":1326:1445   */\n  iszero\n  tag_48\n  jumpi\n    /* \"#utility.yul\":1364:1443   */\n  tag_49\n  tag_18\n  jump\t// in\ntag_49:\n    /* \"#utility.yul\":1326:1445   */\ntag_48:\n    /* \"#utility.yul\":1484:1485   */\n  0x00\n    /* \"#utility.yul\":1509:1573   */\n  tag_50\n    /* \"#utility.yul\":1565:1572   */\n  dup7\n    /* \"#utility.yul\":1556:1562   */\n  dup3\n    /* \"#utility.yul\":1545:1554   */\n  dup8\n    /* \"#utility.yul\":1541:1563   */\n  add\n    /* \"#utility.yul\":1509:1573   */\n  tag_23\n  jump\t// in\ntag_50:\n    /* \"#utility.yul\":1499:1573   */\n  swap4\n  pop\n    /* \"#utility.yul\":1455:1583   */\n  pop\n    /* \"#utility.yul\":1622:1624   */\n  0x20\n    /* \"#utility.yul\":1648:1712   */\n  tag_51\n    /* \"#utility.yul\":1704:1711   */\n  dup7\n    /* \"#utility.yul\":1695:1701   */\n  dup3\n    /* \"#utility.yul\":1684:1693   */\n  dup8\n    /* \"#utility.yul\":1680:1702   */\n  add\n    /* \"#utility.yul\":1648:1712   */\n  tag_26\n  jump\t// in\ntag_51:\n    /* \"#utility.yul\":1638:1712   */\n  swap3\n  pop\n    /* \"#utility.yul\":1593:1722   */\n  pop\n    /* \"#utility.yul\":1761:1763   */\n  0x40\n    /* \"#utility.yul\":1787:1851   */\n  tag_52\n    /* \"#utility.yul\":1843:1850   */\n  dup7\n    /* \"#utility.yul\":1834:1840   */\n  dup3\n    /* \"#utility.yul\":1823:1832   */\n  dup8\n    /* \"#utility.yul\":1819:1841   */\n  add\n    /* \"#utility.yul\":1787:1851   */\n  tag_26\n  jump\t// in\ntag_52:\n    /* \"#utility.yul\":1777:1851   */\n  swap2\n  pop\n    /* \"#utility.yul\":1732:1861   */\n  pop\n    /* \"#utility.yul\":1205:1868   */\n  swap3\n  pop\n  swap3\n  pop\n  swap3\n  jump\t// out\n    /* \"#utility.yul\":1874:1992   */\ntag_27:\n    /* \"#utility.yul\":1961:1985   */\n  tag_54\n    /* \"#utility.yul\":1979:1984   */\n  dup2\n    /* \"#utility.yul\":1961:1985   */\n  tag_21\n  jump\t// in\ntag_54:\n    /* \"#utility.yul\":1956:1959   */\n  dup3\n    /* \"#utility.yul\":1949:1986   */\n  mstore\n    /* \"#utility.yul\":1874:1992   */\n  pop\n  pop\n  jump\t// out\n    /* \"#utility.yul\":1998:2220   */\ntag_9:\n    /* \"#utility.yul\":2091:2095   */\n  0x00\n    /* \"#utility.yul\":2129:2131   */\n  0x20\n    /* \"#utility.yul\":2118:2127   */\n  dup3\n    /* \"#utility.yul\":2114:2132   */\n  add\n    /* \"#utility.yul\":2106:2132   */\n  swap1\n  pop\n    /* \"#utility.yul\":2142:2213   */\n  tag_56\n    /* \"#utility.yul\":2210:2211   */\n  0x00\n    /* \"#utility.yul\":2199:2208   */\n  dup4\n    /* \"#utility.yul\":2195:2212   */\n  add\n    /* \"#utility.yul\":2186:2192   */\n  dup5\n    /* \"#utility.yul\":2142:2213   */\n  tag_27\n  jump\t// in\ntag_56:\n    /* \"#utility.yul\":1998:2220   */\n  swap3\n  swap2\n  pop\n  pop\n  jump\t// out\n    /* \"#utility.yul\":2226:2406   */\ntag_28:\n    /* \"#utility.yul\":2274:2351   */\n  0x4e487b7100000000000000000000000000000000000000000000000000000000\n    /* \"#utility.yul\":2271:2272   */\n  0x00\n    /* \"#utility.yul\":2264:2352   */\n  mstore\n    /* \"#utility.yul\":2371:2375   */\n  0x11\n    /* \"#utility.yul\":2368:2369   */\n  0x04\n    /* \"#utility.yul\":2361:2376   */\n  mstore\n    /* \"#utility.yul\":2395:2399   */\n  0x24\n    /* \"#utility.yul\":2392:2393   */\n  0x00\n    /* \"#utility.yul\":2385:2400   */\n  revert\n    /* \"#utility.yul\":2412:2822   */\ntag_14:\n    /* \"#utility.yul\":2452:2459   */\n  0x00\n    /* \"#utility.yul\":2475:2495   */\n  tag_59\n    /* \"#utility.yul\":2493:2494   */\n  dup3\n    /* \"#utility.yul\":2475:2495   */\n  tag_24\n  jump\t// in\ntag_59:\n    /* \"#utility.yul\":2470:2495   */\n  swap2\n  pop\n    /* \"#utility.yul\":2509:2529   */\n  tag_60\n    /* \"#utility.yul\":2527:2528   */\n  dup4\n    /* \"#utility.yul\":2509:2529   */\n  tag_24\n  jump\t// in\ntag_60:\n    /* \"#utility.yul\":2504:2529   */\n  swap3\n  pop\n    /* \"#utility.yul\":2564:2565   */\n  dup3\n    /* \"#utility.yul\":2561:2562   */\n  dup3\n    /* \"#utility.yul\":2557:2566   */\n  mul\n    /* \"#utility.yul\":2586:2616   */\n  tag_61\n    /* \"#utility.yul\":2604:2615   */\n  dup2\n    /* \"#utility.yul\":2586:2616   */\n  tag_24\n  jump\t// in\ntag_61:\n    /* \"#utility.yul\":2575:2616   */\n  swap2\n  pop\n    /* \"#utility.yul\":2765:2766   */\n  dup3\n    /* \"#utility.yul\":2756:2763   */\n  dup3\n    /* \"#utility.yul\":2752:2767   */\n  div\n    /* \"#utility.yul\":2749:2750   */\n  dup5\n    /* \"#utility.yul\":2746:2768   */\n  eq\n    /* \"#utility.yul\":2726:2727   */\n  dup4\n    /* \"#utility.yul\":2719:2728   */\n  iszero\n    /* \"#utility.yul\":2699:2782   */\n  or\n    /* \"#utility.yul\":2676:2815   */\n  tag_62\n  jumpi\n    /* \"#utility.yul\":2795:2813   */\n  tag_63\n  tag_28\n  jump\t// in\ntag_63:\n    /* \"#utility.yul\":2676:2815   */\ntag_62:\n    /* \"#utility.yul\":2460:2822   */\n  pop\n    /* \"#utility.yul\":2412:2822   */\n  swap3\n  swap2\n  pop\n  pop\n  jump\t// out\n    /* \"contracts/lottery.sol\":252:3564  contract Lottery is Ownable {... */\ntag_15:\n  dataSize(sub_0)\n  dup1\n  dataOffset(sub_0)\n  0x00\n  codecopy\n  0x00\n  return\nstop\n\nsub_0: assembly {\n        /* \"contracts/lottery.sol\":252:3564  contract Lottery is Ownable {... */\n      mstore(0x40, 0x80)\n      callvalue\n      dup1\n      iszero\n      tag_1\n      jumpi\n      revert(0x00, 0x00)\n    tag_1:\n      pop\n      jumpi(tag_2, lt(calldatasize, 0x04))\n      shr(0xe0, calldataload(0x00))\n      dup1\n      0x715018a6\n      gt\n      tag_19\n      jumpi\n      dup1\n      0xb6658d07\n      gt\n      tag_20\n      jumpi\n      dup1\n      0xb6658d07\n      eq\n      tag_15\n      jumpi\n      dup1\n      0xc2412676\n      eq\n      tag_16\n      jumpi\n      dup1\n      0xf2fde38b\n      eq\n      tag_17\n      jumpi\n      dup1\n      0xf98d487f\n      eq\n      tag_18\n      jumpi\n      jump(tag_2)\n    tag_20:\n      dup1\n      0x715018a6\n      eq\n      tag_11\n      jumpi\n      dup1\n      0x8da5cb5b\n      eq\n      tag_12\n      jumpi\n      dup1\n      0xa5234736\n      eq\n      tag_13\n      jumpi\n      dup1\n      0xae169a50\n      eq\n      tag_14\n      jumpi\n      jump(tag_2)\n    tag_19:\n      dup1\n      0x49c0de88\n      gt\n      tag_21\n      jumpi\n      dup1\n      0x49c0de88\n      eq\n      tag_7\n      jumpi\n      dup1\n      0x5cbbd635\n      eq\n      tag_8\n      jumpi\n      dup1\n      0x6b35f5ce\n      eq\n      tag_9\n      jumpi\n      dup1\n      0x6be4097c\n      eq\n      tag_10\n      jumpi\n      jump(tag_2)\n    tag_21:\n      dup1\n      0x1209b1f6\n      eq\n      tag_3\n      jumpi\n      dup1\n      0x19fb30dd\n      eq\n      tag_4\n      jumpi\n      dup1\n      0x2d97902f\n      eq\n      tag_5\n      jumpi\n      dup1\n      0x3d4962ed\n      eq\n      tag_6\n      jumpi\n    tag_2:\n      revert(0x00, 0x00)\n        /* \"contracts/lottery.sol\":316:342  uint256 public ticketPrice */\n    tag_3:\n      tag_22\n      tag_23\n      jump\t// in\n    tag_22:\n      mload(0x40)\n      tag_24\n      swap2\n      swap1\n      tag_25\n      jump\t// in\n    tag_24:\n      mload(0x40)\n      dup1\n      swap2\n      sub\n      swap1\n      return\n        /* \"contracts/lottery.sol\":3428:3559  function getPolTokenName() external view returns (string memory) {... */\n    tag_4:\n      tag_26\n      tag_27\n      jump\t// in\n    tag_26:\n      mload(0x40)\n      tag_28\n      swap2\n      swap1\n      tag_29\n      jump\t// in\n    tag_28:\n      mload(0x40)\n      dup1\n      swap2\n      sub\n      swap1\n      return\n        /* \"contracts/lottery.sol\":349:379  uint256 public lotteryDuration */\n    tag_5:\n      tag_30\n      tag_31\n      jump\t// in\n    tag_30:\n      mload(0x40)\n      tag_32\n      swap2\n      swap1\n      tag_25\n      jump\t// in\n    tag_32:\n      mload(0x40)\n      dup1\n      swap2\n      sub\n      swap1\n      return\n        /* \"contracts/lottery.sol\":1244:1603  function buyTicket(uint8[4] memory numbers) external {... */\n    tag_6:\n      tag_33\n      0x04\n      dup1\n      calldatasize\n      sub\n      dup2\n      add\n      swap1\n      tag_34\n      swap2\n      swap1\n      tag_35\n      jump\t// in\n    tag_34:\n      tag_36\n      jump\t// in\n    tag_33:\n      stop\n        /* \"contracts/lottery.sol\":661:711  mapping(uint256 => Ticket[]) public lotteryTickets */\n    tag_7:\n      tag_37\n      0x04\n      dup1\n      calldatasize\n      sub\n      dup2\n      add\n      swap1\n      tag_38\n      swap2\n      swap1\n      tag_39\n      jump\t// in\n    tag_38:\n      tag_40\n      jump\t// in\n    tag_37:\n      mload(0x40)\n      tag_41\n      swap2\n      swap1\n      tag_42\n      jump\t// in\n    tag_41:\n      mload(0x40)\n      dup1\n      swap2\n      sub\n      swap1\n      return\n        /* \"contracts/lottery.sol\":461:488  uint256 public lastDrawTime */\n    tag_8:\n      tag_43\n      tag_44\n      jump\t// in\n    tag_43:\n      mload(0x40)\n      tag_45\n      swap2\n      swap1\n      tag_25\n      jump\t// in\n    tag_45:\n      mload(0x40)\n      dup1\n      swap2\n      sub\n      swap1\n      return\n        /* \"contracts/lottery.sol\":775:814  mapping(uint256 => bool) public isDrawn */\n    tag_9:\n      tag_46\n      0x04\n      dup1\n      calldatasize\n      sub\n      dup2\n      add\n      swap1\n      tag_47\n      swap2\n      swap1\n      tag_48\n      jump\t// in\n    tag_47:\n      tag_49\n      jump\t// in\n    tag_46:\n      mload(0x40)\n      tag_50\n      swap2\n      swap1\n      tag_51\n      jump\t// in\n    tag_50:\n      mload(0x40)\n      dup1\n      swap2\n      sub\n      swap1\n      return\n        /* \"contracts/lottery.sol\":423:454  uint256 public currentLotteryId */\n    tag_10:\n      tag_52\n      tag_53\n      jump\t// in\n    tag_52:\n      mload(0x40)\n      tag_54\n      swap2\n      swap1\n      tag_25\n      jump\t// in\n    tag_54:\n      mload(0x40)\n      dup1\n      swap2\n      sub\n      swap1\n      return\n        /* \"@openzeppelin/contracts/access/Ownable.sol\":2293:2394  function renounceOwnership() public virtual onlyOwner {... */\n    tag_11:\n      tag_55\n      tag_56\n      jump\t// in\n    tag_55:\n      stop\n        /* \"@openzeppelin/contracts/access/Ownable.sol\":1638:1723  function owner() public view virtual returns (address) {... */\n    tag_12:\n      tag_57\n      tag_58\n      jump\t// in\n    tag_57:\n      mload(0x40)\n      tag_59\n      swap2\n      swap1\n      tag_42\n      jump\t// in\n    tag_59:\n      mload(0x40)\n      dup1\n      swap2\n      sub\n      swap1\n      return\n        /* \"contracts/lottery.sol\":1611:2084  function drawWinningNumbers(uint8[4] memory numbers) external onlyOwner {... */\n    tag_13:\n      tag_60\n      0x04\n      dup1\n      calldatasize\n      sub\n      dup2\n      add\n      swap1\n      tag_61\n      swap2\n      swap1\n      tag_35\n      jump\t// in\n    tag_61:\n      tag_62\n      jump\t// in\n    tag_60:\n      stop\n        /* \"contracts/lottery.sol\":2092:2713  function claimReward(uint256 lotteryId) external {... */\n    tag_14:\n      tag_63\n      0x04\n      dup1\n      calldatasize\n      sub\n      dup2\n      add\n      swap1\n      tag_64\n      swap2\n      swap1\n      tag_48\n      jump\t// in\n    tag_64:\n      tag_65\n      jump\t// in\n    tag_63:\n      stop\n        /* \"contracts/lottery.sol\":287:309  IERC20 public polToken */\n    tag_15:\n      tag_66\n      tag_67\n      jump\t// in\n    tag_66:\n      mload(0x40)\n      tag_68\n      swap2\n      swap1\n      tag_69\n      jump\t// in\n    tag_68:\n      mload(0x40)\n      dup1\n      swap2\n      sub\n      swap1\n      return\n        /* \"contracts/lottery.sol\":387:414  IERC20Metadata public Token */\n    tag_16:\n      tag_70\n      tag_71\n      jump\t// in\n    tag_70:\n      mload(0x40)\n      tag_72\n      swap2\n      swap1\n      tag_73\n      jump\t// in\n    tag_72:\n      mload(0x40)\n      dup1\n      swap2\n      sub\n      swap1\n      return\n        /* \"@openzeppelin/contracts/access/Ownable.sol\":2543:2758  function transferOwnership(address newOwner) public virtual onlyOwner {... */\n    tag_17:\n      tag_74\n      0x04\n      dup1\n      calldatasize\n      sub\n      dup2\n      add\n      swap1\n      tag_75\n      swap2\n      swap1\n      tag_76\n      jump\t// in\n    tag_75:\n      tag_77\n      jump\t// in\n    tag_74:\n      stop\n        /* \"contracts/lottery.sol\":718:768  mapping(uint256 => uint8[4]) public winningNumbers */\n    tag_18:\n      tag_78\n      0x04\n      dup1\n      calldatasize\n      sub\n      dup2\n      add\n      swap1\n      tag_79\n      swap2\n      swap1\n      tag_39\n      jump\t// in\n    tag_79:\n      tag_80\n      jump\t// in\n    tag_78:\n      mload(0x40)\n      tag_81\n      swap2\n      swap1\n      tag_82\n      jump\t// in\n    tag_81:\n      mload(0x40)\n      dup1\n      swap2\n      sub\n      swap1\n      return\n        /* \"contracts/lottery.sol\":316:342  uint256 public ticketPrice */\n    tag_23:\n      sload(0x02)\n      dup2\n      jump\t// out\n        /* \"contracts/lottery.sol\":3428:3559  function getPolTokenName() external view returns (string memory) {... */\n    tag_27:\n        /* \"contracts/lottery.sol\":3478:3491  string memory */\n      0x60\n        /* \"contracts/lottery.sol\":3522:3547  VALID_ERC20_TOKEN_ADDRESS */\n      0x07\n      0x00\n      swap1\n      sload\n      swap1\n      0x0100\n      exp\n      swap1\n      div\n      0xffffffffffffffffffffffffffffffffffffffff\n      and\n        /* \"contracts/lottery.sol\":3507:3553  IERC20Metadata(VALID_ERC20_TOKEN_ADDRESS).name */\n      0xffffffffffffffffffffffffffffffffffffffff\n      and\n      0x06fdde03\n        /* \"contracts/lottery.sol\":3507:3555  IERC20Metadata(VALID_ERC20_TOKEN_ADDRESS).name() */\n      mload(0x40)\n      dup2\n      0xffffffff\n      and\n      0xe0\n      shl\n      dup2\n      mstore\n      0x04\n      add\n      0x00\n      mload(0x40)\n      dup1\n      dup4\n      sub\n      dup2\n      dup7\n      gas\n      staticcall\n      iszero\n      dup1\n      iszero\n      tag_85\n      jumpi\n      returndatacopy(0x00, 0x00, returndatasize)\n      revert(0x00, returndatasize)\n    tag_85:\n      pop\n      pop\n      pop\n      pop\n      mload(0x40)\n      returndatasize\n      0x00\n      dup3\n      returndatacopy\n      returndatasize\n      not(0x1f)\n      0x1f\n      dup3\n      add\n      and\n      dup3\n      add\n      dup1\n      0x40\n      mstore\n      pop\n      dup2\n      add\n      swap1\n      tag_86\n      swap2\n      swap1\n      tag_87\n      jump\t// in\n    tag_86:\n        /* \"contracts/lottery.sol\":3500:3555  return IERC20Metadata(VALID_ERC20_TOKEN_ADDRESS).name() */\n      swap1\n      pop\n        /* \"contracts/lottery.sol\":3428:3559  function getPolTokenName() external view returns (string memory) {... */\n      swap1\n      jump\t// out\n        /* \"contracts/lottery.sol\":349:379  uint256 public lotteryDuration */\n    tag_31:\n      sload(0x03)\n      dup2\n      jump\t// out\n        /* \"contracts/lottery.sol\":1244:1603  function buyTicket(uint8[4] memory numbers) external {... */\n    tag_36:\n        /* \"contracts/lottery.sol\":1316:1335  _areUnique(numbers) */\n      tag_89\n        /* \"contracts/lottery.sol\":1327:1334  numbers */\n      dup2\n        /* \"contracts/lottery.sol\":1316:1326  _areUnique */\n      tag_90\n        /* \"contracts/lottery.sol\":1316:1335  _areUnique(numbers) */\n      jump\t// in\n    tag_89:\n        /* \"contracts/lottery.sol\":1308:1362  require(_areUnique(numbers), \"Numbers must be unique\") */\n      tag_91\n      jumpi\n      mload(0x40)\n      0x08c379a000000000000000000000000000000000000000000000000000000000\n      dup2\n      mstore\n      0x04\n      add\n      tag_92\n      swap1\n      tag_93\n      jump\t// in\n    tag_92:\n      mload(0x40)\n      dup1\n      swap2\n      sub\n      swap1\n      revert\n    tag_91:\n        /* \"contracts/lottery.sol\":1381:1389  polToken */\n      0x01\n      0x00\n      swap1\n      sload\n      swap1\n      0x0100\n      exp\n      swap1\n      div\n      0xffffffffffffffffffffffffffffffffffffffff\n      and\n        /* \"contracts/lottery.sol\":1381:1402  polToken.transferFrom */\n      0xffffffffffffffffffffffffffffffffffffffff\n      and\n      0x23b872dd\n        /* \"contracts/lottery.sol\":1403:1413  msg.sender */\n      caller\n        /* \"contracts/lottery.sol\":1423:1427  this */\n      address\n        /* \"contracts/lottery.sol\":1430:1441  ticketPrice */\n      sload(0x02)\n        /* \"contracts/lottery.sol\":1381:1442  polToken.transferFrom(msg.sender, address(this), ticketPrice) */\n      mload(0x40)\n      dup5\n      0xffffffff\n      and\n      0xe0\n      shl\n      dup2\n      mstore\n      0x04\n      add\n      tag_94\n      swap4\n      swap3\n      swap2\n      swap1\n      tag_95\n      jump\t// in\n    tag_94:\n      0x20\n      mload(0x40)\n      dup1\n      dup4\n      sub\n      dup2\n      0x00\n      dup8\n      gas\n      call\n      iszero\n      dup1\n      iszero\n      tag_97\n      jumpi\n      returndatacopy(0x00, 0x00, returndatasize)\n      revert(0x00, returndatasize)\n    tag_97:\n      pop\n      pop\n      pop\n      pop\n      mload(0x40)\n      returndatasize\n      not(0x1f)\n      0x1f\n      dup3\n      add\n      and\n      dup3\n      add\n      dup1\n      0x40\n      mstore\n      pop\n      dup2\n      add\n      swap1\n      tag_98\n      swap2\n      swap1\n      tag_99\n      jump\t// in\n    tag_98:\n        /* \"contracts/lottery.sol\":1373:1461  require(polToken.transferFrom(msg.sender, address(this), ticketPrice), \"Payment failed\") */\n      tag_100\n      jumpi\n      mload(0x40)\n      0x08c379a000000000000000000000000000000000000000000000000000000000\n      dup2\n      mstore\n      0x04\n      add\n      tag_101\n      swap1\n      tag_102\n      jump\t// in\n    tag_101:\n      mload(0x40)\n      dup1\n      swap2\n      sub\n      swap1\n      revert\n    tag_100:\n        /* \"contracts/lottery.sol\":1474:1488  lotteryTickets */\n      0x08\n        /* \"contracts/lottery.sol\":1474:1506  lotteryTickets[currentLotteryId] */\n      0x00\n        /* \"contracts/lottery.sol\":1489:1505  currentLotteryId */\n      sload(0x05)\n        /* \"contracts/lottery.sol\":1474:1506  lotteryTickets[currentLotteryId] */\n      dup2\n      mstore\n      0x20\n      add\n      swap1\n      dup2\n      mstore\n      0x20\n      add\n      0x00\n      keccak256\n        /* \"contracts/lottery.sol\":1512:1594  Ticket({... */\n      mload(0x40)\n      dup1\n      0x40\n      add\n      0x40\n      mstore\n      dup1\n        /* \"contracts/lottery.sol\":1541:1551  msg.sender */\n      caller\n        /* \"contracts/lottery.sol\":1512:1594  Ticket({... */\n      0xffffffffffffffffffffffffffffffffffffffff\n      and\n      dup2\n      mstore\n      0x20\n      add\n        /* \"contracts/lottery.sol\":1575:1582  numbers */\n      dup4\n        /* \"contracts/lottery.sol\":1512:1594  Ticket({... */\n      dup2\n      mstore\n      pop\n        /* \"contracts/lottery.sol\":1474:1595  lotteryTickets[currentLotteryId].push(Ticket({... */\n      swap1\n      dup1\n      0x01\n      dup2\n      sload\n      add\n      dup1\n      dup3\n      sstore\n      dup1\n      swap2\n      pop\n      pop\n      0x01\n      swap1\n      sub\n      swap1\n      0x00\n      mstore\n      keccak256(0x00, 0x20)\n      swap1\n      0x02\n      mul\n      add\n      0x00\n      swap1\n      swap2\n      swap1\n      swap2\n      swap1\n      swap2\n      pop\n      0x00\n      dup3\n      add\n      mload\n      dup2\n      0x00\n      add\n      exp(0x0100, 0x00)\n      dup2\n      sload\n      dup2\n      0xffffffffffffffffffffffffffffffffffffffff\n      mul\n      not\n      and\n      swap1\n      dup4\n      0xffffffffffffffffffffffffffffffffffffffff\n      and\n      mul\n      or\n      swap1\n      sstore\n      pop\n      0x20\n      dup3\n      add\n      mload\n      dup2\n      0x01\n      add\n      swap1\n      0x04\n      tag_104\n      swap3\n      swap2\n      swap1\n      tag_105\n      jump\t// in\n    tag_104:\n      pop\n      pop\n      pop\n        /* \"contracts/lottery.sol\":1244:1603  function buyTicket(uint8[4] memory numbers) external {... */\n      pop\n      jump\t// out\n        /* \"contracts/lottery.sol\":661:711  mapping(uint256 => Ticket[]) public lotteryTickets */\n    tag_40:\n      mstore(0x20, 0x08)\n      dup2\n      0x00\n      mstore\n      keccak256(0x00, 0x40)\n      dup2\n      dup2\n      sload\n      dup2\n      lt\n      tag_106\n      jumpi\n      0x00\n      dup1\n      revert\n    tag_106:\n      swap1\n      0x00\n      mstore\n      keccak256(0x00, 0x20)\n      swap1\n      0x02\n      mul\n      add\n      0x00\n      swap2\n      pop\n      swap2\n      pop\n      pop\n      dup1\n      0x00\n      add\n      0x00\n      swap1\n      sload\n      swap1\n      0x0100\n      exp\n      swap1\n      div\n      0xffffffffffffffffffffffffffffffffffffffff\n      and\n      swap1\n      pop\n      dup2\n      jump\t// out\n        /* \"contracts/lottery.sol\":461:488  uint256 public lastDrawTime */\n    tag_44:\n      sload(0x06)\n      dup2\n      jump\t// out\n        /* \"contracts/lottery.sol\":775:814  mapping(uint256 => bool) public isDrawn */\n    tag_49:\n      mstore(0x20, 0x0a)\n      dup1\n      0x00\n      mstore\n      keccak256(0x00, 0x40)\n      0x00\n      swap2\n      pop\n      sload\n      swap1\n      0x0100\n      exp\n      swap1\n      div\n      0xff\n      and\n      dup2\n      jump\t// out\n        /* \"contracts/lottery.sol\":423:454  uint256 public currentLotteryId */\n    tag_53:\n      sload(0x05)\n      dup2\n      jump\t// out\n        /* \"@openzeppelin/contracts/access/Ownable.sol\":2293:2394  function renounceOwnership() public virtual onlyOwner {... */\n    tag_56:\n        /* \"@openzeppelin/contracts/access/Ownable.sol\":1531:1544  _checkOwner() */\n      tag_109\n        /* \"@openzeppelin/contracts/access/Ownable.sol\":1531:1542  _checkOwner */\n      tag_110\n        /* \"@openzeppelin/contracts/access/Ownable.sol\":1531:1544  _checkOwner() */\n      jump\t// in\n    tag_109:\n        /* \"@openzeppelin/contracts/access/Ownable.sol\":2357:2387  _transferOwnership(address(0)) */\n      tag_112\n        /* \"@openzeppelin/contracts/access/Ownable.sol\":2384:2385  0 */\n      0x00\n        /* \"@openzeppelin/contracts/access/Ownable.sol\":2357:2375  _transferOwnership */\n      tag_113\n        /* \"@openzeppelin/contracts/access/Ownable.sol\":2357:2387  _transferOwnership(address(0)) */\n      jump\t// in\n    tag_112:\n        /* \"@openzeppelin/contracts/access/Ownable.sol\":2293:2394  function renounceOwnership() public virtual onlyOwner {... */\n      jump\t// out\n        /* \"@openzeppelin/contracts/access/Ownable.sol\":1638:1723  function owner() public view virtual returns (address) {... */\n    tag_58:\n        /* \"@openzeppelin/contracts/access/Ownable.sol\":1684:1691  address */\n      0x00\n        /* \"@openzeppelin/contracts/access/Ownable.sol\":1710:1716  _owner */\n      0x00\n      0x00\n      swap1\n      sload\n      swap1\n      0x0100\n      exp\n      swap1\n      div\n      0xffffffffffffffffffffffffffffffffffffffff\n      and\n        /* \"@openzeppelin/contracts/access/Ownable.sol\":1703:1716  return _owner */\n      swap1\n      pop\n        /* \"@openzeppelin/contracts/access/Ownable.sol\":1638:1723  function owner() public view virtual returns (address) {... */\n      swap1\n      jump\t// out\n        /* \"contracts/lottery.sol\":1611:2084  function drawWinningNumbers(uint8[4] memory numbers) external onlyOwner {... */\n    tag_62:\n        /* \"@openzeppelin/contracts/access/Ownable.sol\":1531:1544  _checkOwner() */\n      tag_116\n        /* \"@openzeppelin/contracts/access/Ownable.sol\":1531:1542  _checkOwner */\n      tag_110\n        /* \"@openzeppelin/contracts/access/Ownable.sol\":1531:1544  _checkOwner() */\n      jump\t// in\n    tag_116:\n        /* \"contracts/lottery.sol\":1703:1710  isDrawn */\n      0x0a\n        /* \"contracts/lottery.sol\":1703:1728  isDrawn[currentLotteryId] */\n      0x00\n        /* \"contracts/lottery.sol\":1711:1727  currentLotteryId */\n      sload(0x05)\n        /* \"contracts/lottery.sol\":1703:1728  isDrawn[currentLotteryId] */\n      dup2\n      mstore\n      0x20\n      add\n      swap1\n      dup2\n      mstore\n      0x20\n      add\n      0x00\n      keccak256\n      0x00\n      swap1\n      sload\n      swap1\n      0x0100\n      exp\n      swap1\n      div\n      0xff\n      and\n        /* \"contracts/lottery.sol\":1702:1728  !isDrawn[currentLotteryId] */\n      iszero\n        /* \"contracts/lottery.sol\":1694:1746  require(!isDrawn[currentLotteryId], \"Already drawn\") */\n      tag_118\n      jumpi\n      mload(0x40)\n      0x08c379a000000000000000000000000000000000000000000000000000000000\n      dup2\n      mstore\n      0x04\n      add\n      tag_119\n      swap1\n      tag_120\n      jump\t// in\n    tag_119:\n      mload(0x40)\n      dup1\n      swap2\n      sub\n      swap1\n      revert\n    tag_118:\n        /* \"contracts/lottery.sol\":1799:1814  lotteryDuration */\n      sload(0x03)\n        /* \"contracts/lottery.sol\":1784:1796  lastDrawTime */\n      sload(0x06)\n        /* \"contracts/lottery.sol\":1784:1814  lastDrawTime + lotteryDuration */\n      tag_121\n      swap2\n      swap1\n      tag_122\n      jump\t// in\n    tag_121:\n        /* \"contracts/lottery.sol\":1765:1780  block.timestamp */\n      timestamp\n        /* \"contracts/lottery.sol\":1765:1814  block.timestamp >= lastDrawTime + lotteryDuration */\n      lt\n      iszero\n        /* \"contracts/lottery.sol\":1757:1828  require(block.timestamp >= lastDrawTime + lotteryDuration, \"Too early\") */\n      tag_123\n      jumpi\n      mload(0x40)\n      0x08c379a000000000000000000000000000000000000000000000000000000000\n      dup2\n      mstore\n      0x04\n      add\n      tag_124\n      swap1\n      tag_125\n      jump\t// in\n    tag_124:\n      mload(0x40)\n      dup1\n      swap2\n      sub\n      swap1\n      revert\n    tag_123:\n        /* \"contracts/lottery.sol\":1849:1868  _areUnique(numbers) */\n      tag_126\n        /* \"contracts/lottery.sol\":1860:1867  numbers */\n      dup2\n        /* \"contracts/lottery.sol\":1849:1859  _areUnique */\n      tag_90\n        /* \"contracts/lottery.sol\":1849:1868  _areUnique(numbers) */\n      jump\t// in\n    tag_126:\n        /* \"contracts/lottery.sol\":1841:1903  require(_areUnique(numbers), \"Winning numbers must be unique\") */\n      tag_127\n      jumpi\n      mload(0x40)\n      0x08c379a000000000000000000000000000000000000000000000000000000000\n      dup2\n      mstore\n      0x04\n      add\n      tag_128\n      swap1\n      tag_129\n      jump\t// in\n    tag_128:\n      mload(0x40)\n      dup1\n      swap2\n      sub\n      swap1\n      revert\n    tag_127:\n        /* \"contracts/lottery.sol\":1951:1958  numbers */\n      dup1\n        /* \"contracts/lottery.sol\":1916:1930  winningNumbers */\n      0x09\n        /* \"contracts/lottery.sol\":1916:1948  winningNumbers[currentLotteryId] */\n      0x00\n        /* \"contracts/lottery.sol\":1931:1947  currentLotteryId */\n      sload(0x05)\n        /* \"contracts/lottery.sol\":1916:1948  winningNumbers[currentLotteryId] */\n      dup2\n      mstore\n      0x20\n      add\n      swap1\n      dup2\n      mstore\n      0x20\n      add\n      0x00\n      keccak256\n        /* \"contracts/lottery.sol\":1916:1958  winningNumbers[currentLotteryId] = numbers */\n      swap1\n      0x04\n      tag_130\n      swap3\n      swap2\n      swap1\n      tag_105\n      jump\t// in\n    tag_130:\n      pop\n        /* \"contracts/lottery.sol\":1997:2001  true */\n      0x01\n        /* \"contracts/lottery.sol\":1969:1976  isDrawn */\n      0x0a\n        /* \"contracts/lottery.sol\":1969:1994  isDrawn[currentLotteryId] */\n      0x00\n        /* \"contracts/lottery.sol\":1977:1993  currentLotteryId */\n      sload(0x05)\n        /* \"contracts/lottery.sol\":1969:1994  isDrawn[currentLotteryId] */\n      dup2\n      mstore\n      0x20\n      add\n      swap1\n      dup2\n      mstore\n      0x20\n      add\n      0x00\n      keccak256\n      0x00\n        /* \"contracts/lottery.sol\":1969:2001  isDrawn[currentLotteryId] = true */\n      0x0100\n      exp\n      dup2\n      sload\n      dup2\n      0xff\n      mul\n      not\n      and\n      swap1\n      dup4\n      iszero\n      iszero\n      mul\n      or\n      swap1\n      sstore\n      pop\n        /* \"contracts/lottery.sol\":2029:2044  block.timestamp */\n      timestamp\n        /* \"contracts/lottery.sol\":2014:2026  lastDrawTime */\n      0x06\n        /* \"contracts/lottery.sol\":2014:2044  lastDrawTime = block.timestamp */\n      dup2\n      swap1\n      sstore\n      pop\n        /* \"contracts/lottery.sol\":2075:2076  1 */\n      0x01\n        /* \"contracts/lottery.sol\":2055:2071  currentLotteryId */\n      0x05\n      0x00\n        /* \"contracts/lottery.sol\":2055:2076  currentLotteryId += 1 */\n      dup3\n      dup3\n      sload\n      tag_131\n      swap2\n      swap1\n      tag_122\n      jump\t// in\n    tag_131:\n      swap3\n      pop\n      pop\n      dup2\n      swap1\n      sstore\n      pop\n        /* \"contracts/lottery.sol\":1611:2084  function drawWinningNumbers(uint8[4] memory numbers) external onlyOwner {... */\n      pop\n      jump\t// out\n        /* \"contracts/lottery.sol\":2092:2713  function claimReward(uint256 lotteryId) external {... */\n    tag_65:\n        /* \"contracts/lottery.sol\":2160:2167  isDrawn */\n      0x0a\n        /* \"contracts/lottery.sol\":2160:2178  isDrawn[lotteryId] */\n      0x00\n        /* \"contracts/lottery.sol\":2168:2177  lotteryId */\n      dup3\n        /* \"contracts/lottery.sol\":2160:2178  isDrawn[lotteryId] */\n      dup2\n      mstore\n      0x20\n      add\n      swap1\n      dup2\n      mstore\n      0x20\n      add\n      0x00\n      keccak256\n      0x00\n      swap1\n      sload\n      swap1\n      0x0100\n      exp\n      swap1\n      div\n      0xff\n      and\n        /* \"contracts/lottery.sol\":2152:2208  require(isDrawn[lotteryId], \"Winning numbers not drawn\") */\n      tag_133\n      jumpi\n      mload(0x40)\n      0x08c379a000000000000000000000000000000000000000000000000000000000\n      dup2\n      mstore\n      0x04\n      add\n      tag_134\n      swap1\n      tag_135\n      jump\t// in\n    tag_134:\n      mload(0x40)\n      dup1\n      swap2\n      sub\n      swap1\n      revert\n    tag_133:\n        /* \"contracts/lottery.sol\":2221:2244  uint8[4] memory winNums */\n      0x00\n        /* \"contracts/lottery.sol\":2247:2261  winningNumbers */\n      0x09\n        /* \"contracts/lottery.sol\":2247:2272  winningNumbers[lotteryId] */\n      0x00\n        /* \"contracts/lottery.sol\":2262:2271  lotteryId */\n      dup4\n        /* \"contracts/lottery.sol\":2247:2272  winningNumbers[lotteryId] */\n      dup2\n      mstore\n      0x20\n      add\n      swap1\n      dup2\n      mstore\n      0x20\n      add\n      0x00\n      keccak256\n        /* \"contracts/lottery.sol\":2221:2272  uint8[4] memory winNums = winningNumbers[lotteryId] */\n      0x04\n      dup1\n      0x20\n      mul\n      mload(0x40)\n      swap1\n      dup2\n      add\n      0x40\n      mstore\n      dup1\n      swap3\n      swap2\n      swap1\n      dup3\n      0x04\n      dup1\n      iszero\n      tag_136\n      jumpi\n      0x20\n      mul\n      dup3\n      add\n      swap2\n      0x00\n      swap1\n    tag_137:\n      dup3\n      dup3\n      swap1\n      sload\n      swap1\n      0x0100\n      exp\n      swap1\n      div\n      0xff\n      and\n      0xff\n      and\n      dup2\n      mstore\n      0x20\n      add\n      swap1\n      0x01\n      add\n      swap1\n      0x20\n      dup3\n      0x00\n      add\n      div\n      swap3\n      dup4\n      add\n      swap3\n      0x01\n      sub\n      dup3\n      mul\n      swap2\n      pop\n      dup1\n      dup5\n      gt\n      tag_137\n      jumpi\n      swap1\n      pop\n    tag_136:\n      pop\n      pop\n      pop\n      pop\n      pop\n      swap1\n      pop\n        /* \"contracts/lottery.sol\":2283:2306  Ticket[] memory tickets */\n      0x00\n        /* \"contracts/lottery.sol\":2309:2323  lotteryTickets */\n      0x08\n        /* \"contracts/lottery.sol\":2309:2334  lotteryTickets[lotteryId] */\n      0x00\n        /* \"contracts/lottery.sol\":2324:2333  lotteryId */\n      dup5\n        /* \"contracts/lottery.sol\":2309:2334  lotteryTickets[lotteryId] */\n      dup2\n      mstore\n      0x20\n      add\n      swap1\n      dup2\n      mstore\n      0x20\n      add\n      0x00\n      keccak256\n        /* \"contracts/lottery.sol\":2283:2334  Ticket[] memory tickets = lotteryTickets[lotteryId] */\n      dup1\n      sload\n      dup1\n      0x20\n      mul\n      0x20\n      add\n      mload(0x40)\n      swap1\n      dup2\n      add\n      0x40\n      mstore\n      dup1\n      swap3\n      swap2\n      swap1\n      dup2\n      dup2\n      mstore\n      0x20\n      add\n      0x00\n      swap1\n    tag_138:\n      dup3\n      dup3\n      lt\n      iszero\n      tag_139\n      jumpi\n      dup4\n      dup3\n      swap1\n      0x00\n      mstore\n      keccak256(0x00, 0x20)\n      swap1\n      0x02\n      mul\n      add\n      mload(0x40)\n      dup1\n      0x40\n      add\n      0x40\n      mstore\n      swap1\n      dup2\n      0x00\n      dup3\n      add\n      0x00\n      swap1\n      sload\n      swap1\n      0x0100\n      exp\n      swap1\n      div\n      0xffffffffffffffffffffffffffffffffffffffff\n      and\n      0xffffffffffffffffffffffffffffffffffffffff\n      and\n      0xffffffffffffffffffffffffffffffffffffffff\n      and\n      dup2\n      mstore\n      0x20\n      add\n      0x01\n      dup3\n      add\n      0x04\n      dup1\n      0x20\n      mul\n      mload(0x40)\n      swap1\n      dup2\n      add\n      0x40\n      mstore\n      dup1\n      swap3\n      swap2\n      swap1\n      dup3\n      0x04\n      dup1\n      iszero\n      tag_141\n      jumpi\n      0x20\n      mul\n      dup3\n      add\n      swap2\n      0x00\n      swap1\n    tag_142:\n      dup3\n      dup3\n      swap1\n      sload\n      swap1\n      0x0100\n      exp\n      swap1\n      div\n      0xff\n      and\n      0xff\n      and\n      dup2\n      mstore\n      0x20\n      add\n      swap1\n      0x01\n      add\n      swap1\n      0x20\n      dup3\n      0x00\n      add\n      div\n      swap3\n      dup4\n      add\n      swap3\n      0x01\n      sub\n      dup3\n      mul\n      swap2\n      pop\n      dup1\n      dup5\n      gt\n      tag_142\n      jumpi\n      swap1\n      pop\n    tag_141:\n      pop\n      pop\n      pop\n      pop\n      pop\n      dup2\n      mstore\n      pop\n      pop\n      dup2\n      mstore\n      0x20\n      add\n      swap1\n      0x01\n      add\n      swap1\n      jump(tag_138)\n    tag_139:\n      pop\n      pop\n      pop\n      pop\n      swap1\n      pop\n        /* \"contracts/lottery.sol\":2352:2361  uint256 i */\n      0x00\n        /* \"contracts/lottery.sol\":2364:2365  0 */\n      0x00\n        /* \"contracts/lottery.sol\":2352:2365  uint256 i = 0 */\n      swap1\n      pop\n        /* \"contracts/lottery.sol\":2347:2706  for (uint256 i = 0; i < tickets.length; i++) {... */\n    tag_143:\n        /* \"contracts/lottery.sol\":2371:2378  tickets */\n      dup2\n        /* \"contracts/lottery.sol\":2371:2385  tickets.length */\n      mload\n        /* \"contracts/lottery.sol\":2367:2368  i */\n      dup2\n        /* \"contracts/lottery.sol\":2367:2385  i < tickets.length */\n      lt\n        /* \"contracts/lottery.sol\":2347:2706  for (uint256 i = 0; i < tickets.length; i++) {... */\n      iszero\n      tag_144\n      jumpi\n        /* \"contracts/lottery.sol\":2431:2441  msg.sender */\n      caller\n        /* \"contracts/lottery.sol\":2411:2441  tickets[i].buyer == msg.sender */\n      0xffffffffffffffffffffffffffffffffffffffff\n      and\n        /* \"contracts/lottery.sol\":2411:2418  tickets */\n      dup3\n        /* \"contracts/lottery.sol\":2419:2420  i */\n      dup3\n        /* \"contracts/lottery.sol\":2411:2421  tickets[i] */\n      dup2\n      mload\n      dup2\n      lt\n      tag_146\n      jumpi\n      tag_147\n      tag_148\n      jump\t// in\n    tag_147:\n    tag_146:\n      0x20\n      mul\n      0x20\n      add\n      add\n      mload\n        /* \"contracts/lottery.sol\":2411:2427  tickets[i].buyer */\n      0x00\n      add\n      mload\n        /* \"contracts/lottery.sol\":2411:2441  tickets[i].buyer == msg.sender */\n      0xffffffffffffffffffffffffffffffffffffffff\n      and\n      eq\n        /* \"contracts/lottery.sol\":2411:2487  tickets[i].buyer == msg.sender && _matchNumbers(tickets[i].numbers, winNums) */\n      dup1\n      iszero\n      tag_149\n      jumpi\n      pop\n        /* \"contracts/lottery.sol\":2445:2487  _matchNumbers(tickets[i].numbers, winNums) */\n      tag_150\n        /* \"contracts/lottery.sol\":2459:2466  tickets */\n      dup3\n        /* \"contracts/lottery.sol\":2467:2468  i */\n      dup3\n        /* \"contracts/lottery.sol\":2459:2469  tickets[i] */\n      dup2\n      mload\n      dup2\n      lt\n      tag_151\n      jumpi\n      tag_152\n      tag_148\n      jump\t// in\n    tag_152:\n    tag_151:\n      0x20\n      mul\n      0x20\n      add\n      add\n      mload\n        /* \"contracts/lottery.sol\":2459:2477  tickets[i].numbers */\n      0x20\n      add\n      mload\n        /* \"contracts/lottery.sol\":2479:2486  winNums */\n      dup5\n        /* \"contracts/lottery.sol\":2445:2458  _matchNumbers */\n      tag_153\n        /* \"contracts/lottery.sol\":2445:2487  _matchNumbers(tickets[i].numbers, winNums) */\n      jump\t// in\n    tag_150:\n        /* \"contracts/lottery.sol\":2411:2487  tickets[i].buyer == msg.sender && _matchNumbers(tickets[i].numbers, winNums) */\n    tag_149:\n        /* \"contracts/lottery.sol\":2407:2695  if (tickets[i].buyer == msg.sender && _matchNumbers(tickets[i].numbers, winNums)) {... */\n      iszero\n      tag_154\n      jumpi\n        /* \"contracts/lottery.sol\":2581:2589  polToken */\n      0x01\n      0x00\n      swap1\n      sload\n      swap1\n      0x0100\n      exp\n      swap1\n      div\n      0xffffffffffffffffffffffffffffffffffffffff\n      and\n        /* \"contracts/lottery.sol\":2581:2598  polToken.transfer */\n      0xffffffffffffffffffffffffffffffffffffffff\n      and\n      0xa9059cbb\n        /* \"contracts/lottery.sol\":2599:2609  msg.sender */\n      caller\n        /* \"contracts/lottery.sol\":2625:2627  10 */\n      0x0a\n        /* \"contracts/lottery.sol\":2611:2622  ticketPrice */\n      sload(0x02)\n        /* \"contracts/lottery.sol\":2611:2627  ticketPrice * 10 */\n      tag_155\n      swap2\n      swap1\n      tag_156\n      jump\t// in\n    tag_155:\n        /* \"contracts/lottery.sol\":2581:2628  polToken.transfer(msg.sender, ticketPrice * 10) */\n      mload(0x40)\n      dup4\n      0xffffffff\n      and\n      0xe0\n      shl\n      dup2\n      mstore\n      0x04\n      add\n      tag_157\n      swap3\n      swap2\n      swap1\n      tag_158\n      jump\t// in\n    tag_157:\n      0x20\n      mload(0x40)\n      dup1\n      dup4\n      sub\n      dup2\n      0x00\n      dup8\n      gas\n      call\n      iszero\n      dup1\n      iszero\n      tag_160\n      jumpi\n      returndatacopy(0x00, 0x00, returndatasize)\n      revert(0x00, returndatasize)\n    tag_160:\n      pop\n      pop\n      pop\n      pop\n      mload(0x40)\n      returndatasize\n      not(0x1f)\n      0x1f\n      dup3\n      add\n      and\n      dup3\n      add\n      dup1\n      0x40\n      mstore\n      pop\n      dup2\n      add\n      swap1\n      tag_161\n      swap2\n      swap1\n      tag_99\n      jump\t// in\n    tag_161:\n        /* \"contracts/lottery.sol\":2573:2655  require(polToken.transfer(msg.sender, ticketPrice * 10), \"Reward transfer failed\") */\n      tag_162\n      jumpi\n      mload(0x40)\n      0x08c379a000000000000000000000000000000000000000000000000000000000\n      dup2\n      mstore\n      0x04\n      add\n      tag_163\n      swap1\n      tag_164\n      jump\t// in\n    tag_163:\n      mload(0x40)\n      dup1\n      swap2\n      sub\n      swap1\n      revert\n    tag_162:\n        /* \"contracts/lottery.sol\":2674:2679  break */\n      jump(tag_144)\n        /* \"contracts/lottery.sol\":2407:2695  if (tickets[i].buyer == msg.sender && _matchNumbers(tickets[i].numbers, winNums)) {... */\n    tag_154:\n        /* \"contracts/lottery.sol\":2387:2390  i++ */\n      dup1\n      dup1\n      0x01\n      add\n      swap2\n      pop\n      pop\n        /* \"contracts/lottery.sol\":2347:2706  for (uint256 i = 0; i < tickets.length; i++) {... */\n      jump(tag_143)\n    tag_144:\n      pop\n        /* \"contracts/lottery.sol\":2141:2713  {... */\n      pop\n      pop\n        /* \"contracts/lottery.sol\":2092:2713  function claimReward(uint256 lotteryId) external {... */\n      pop\n      jump\t// out\n        /* \"contracts/lottery.sol\":287:309  IERC20 public polToken */\n    tag_67:\n      0x01\n      0x00\n      swap1\n      sload\n      swap1\n      0x0100\n      exp\n      swap1\n      div\n      0xffffffffffffffffffffffffffffffffffffffff\n      and\n      dup2\n      jump\t// out\n        /* \"contracts/lottery.sol\":387:414  IERC20Metadata public Token */\n    tag_71:\n      0x04\n      0x00\n      swap1\n      sload\n      swap1\n      0x0100\n      exp\n      swap1\n      div\n      0xffffffffffffffffffffffffffffffffffffffff\n      and\n      dup2\n      jump\t// out\n        /* \"@openzeppelin/contracts/access/Ownable.sol\":2543:2758  function transferOwnership(address newOwner) public virtual onlyOwner {... */\n    tag_77:\n        /* \"@openzeppelin/contracts/access/Ownable.sol\":1531:1544  _checkOwner() */\n      tag_166\n        /* \"@openzeppelin/contracts/access/Ownable.sol\":1531:1542  _checkOwner */\n      tag_110\n        /* \"@openzeppelin/contracts/access/Ownable.sol\":1531:1544  _checkOwner() */\n      jump\t// in\n    tag_166:\n        /* \"@openzeppelin/contracts/access/Ownable.sol\":2647:2648  0 */\n      0x00\n        /* \"@openzeppelin/contracts/access/Ownable.sol\":2627:2649  newOwner == address(0) */\n      0xffffffffffffffffffffffffffffffffffffffff\n      and\n        /* \"@openzeppelin/contracts/access/Ownable.sol\":2627:2635  newOwner */\n      dup2\n        /* \"@openzeppelin/contracts/access/Ownable.sol\":2627:2649  newOwner == address(0) */\n      0xffffffffffffffffffffffffffffffffffffffff\n      and\n      sub\n        /* \"@openzeppelin/contracts/access/Ownable.sol\":2623:2714  if (newOwner == address(0)) {... */\n      tag_168\n      jumpi\n        /* \"@openzeppelin/contracts/access/Ownable.sol\":2700:2701  0 */\n      0x00\n        /* \"@openzeppelin/contracts/access/Ownable.sol\":2672:2703  OwnableInvalidOwner(address(0)) */\n      mload(0x40)\n      0x1e4fbdf700000000000000000000000000000000000000000000000000000000\n      dup2\n      mstore\n      0x04\n      add\n      tag_169\n      swap2\n      swap1\n      tag_42\n      jump\t// in\n    tag_169:\n      mload(0x40)\n      dup1\n      swap2\n      sub\n      swap1\n      revert\n        /* \"@openzeppelin/contracts/access/Ownable.sol\":2623:2714  if (newOwner == address(0)) {... */\n    tag_168:\n        /* \"@openzeppelin/contracts/access/Ownable.sol\":2723:2751  _transferOwnership(newOwner) */\n      tag_170\n        /* \"@openzeppelin/contracts/access/Ownable.sol\":2742:2750  newOwner */\n      dup2\n        /* \"@openzeppelin/contracts/access/Ownable.sol\":2723:2741  _transferOwnership */\n      tag_113\n        /* \"@openzeppelin/contracts/access/Ownable.sol\":2723:2751  _transferOwnership(newOwner) */\n      jump\t// in\n    tag_170:\n        /* \"@openzeppelin/contracts/access/Ownable.sol\":2543:2758  function transferOwnership(address newOwner) public virtual onlyOwner {... */\n      pop\n      jump\t// out\n        /* \"contracts/lottery.sol\":718:768  mapping(uint256 => uint8[4]) public winningNumbers */\n    tag_80:\n      mstore(0x20, 0x09)\n      dup2\n      0x00\n      mstore\n      keccak256(0x00, 0x40)\n      dup2\n      0x04\n      dup2\n      lt\n      tag_171\n      jumpi\n      0x00\n      dup1\n      revert\n    tag_171:\n      0x20\n      swap2\n      dup3\n      dup3\n      div\n      add\n      swap2\n      swap1\n      mod\n      swap2\n      pop\n      swap2\n      pop\n      swap1\n      sload\n      swap1\n      0x0100\n      exp\n      swap1\n      div\n      0xff\n      and\n      dup2\n      jump\t// out\n        /* \"contracts/lottery.sol\":2721:2993  function _areUnique(uint8[4] memory nums) internal pure returns (bool) {... */\n    tag_90:\n        /* \"contracts/lottery.sol\":2786:2790  bool */\n      0x00\n        /* \"contracts/lottery.sol\":2808:2815  uint8 i */\n      0x00\n        /* \"contracts/lottery.sol\":2818:2819  0 */\n      0x00\n        /* \"contracts/lottery.sol\":2808:2819  uint8 i = 0 */\n      swap1\n      pop\n        /* \"contracts/lottery.sol\":2803:2964  for (uint8 i = 0; i < 4; i++) {... */\n    tag_174:\n        /* \"contracts/lottery.sol\":2825:2826  4 */\n      0x04\n        /* \"contracts/lottery.sol\":2821:2822  i */\n      dup2\n        /* \"contracts/lottery.sol\":2821:2826  i < 4 */\n      0xff\n      and\n      lt\n        /* \"contracts/lottery.sol\":2803:2964  for (uint8 i = 0; i < 4; i++) {... */\n      iszero\n      tag_175\n      jumpi\n        /* \"contracts/lottery.sol\":2853:2860  uint8 j */\n      0x00\n        /* \"contracts/lottery.sol\":2867:2868  1 */\n      0x01\n        /* \"contracts/lottery.sol\":2863:2864  i */\n      dup3\n        /* \"contracts/lottery.sol\":2863:2868  i + 1 */\n      tag_180\n      swap2\n      swap1\n      tag_181\n      jump\t// in\n    tag_180:\n        /* \"contracts/lottery.sol\":2853:2868  uint8 j = i + 1 */\n      swap1\n      pop\n        /* \"contracts/lottery.sol\":2848:2953  for (uint8 j = i + 1; j < 4; j++) {... */\n    tag_177:\n        /* \"contracts/lottery.sol\":2874:2875  4 */\n      0x04\n        /* \"contracts/lottery.sol\":2870:2871  j */\n      dup2\n        /* \"contracts/lottery.sol\":2870:2875  j < 4 */\n      0xff\n      and\n      lt\n        /* \"contracts/lottery.sol\":2848:2953  for (uint8 j = i + 1; j < 4; j++) {... */\n      iszero\n      tag_178\n      jumpi\n        /* \"contracts/lottery.sol\":2916:2920  nums */\n      dup4\n        /* \"contracts/lottery.sol\":2921:2922  j */\n      dup2\n        /* \"contracts/lottery.sol\":2916:2923  nums[j] */\n      0xff\n      and\n      0x04\n      dup2\n      lt\n      tag_182\n      jumpi\n      tag_183\n      tag_148\n      jump\t// in\n    tag_183:\n    tag_182:\n      0x20\n      mul\n      add\n      mload\n        /* \"contracts/lottery.sol\":2905:2923  nums[i] == nums[j] */\n      0xff\n      and\n        /* \"contracts/lottery.sol\":2905:2909  nums */\n      dup5\n        /* \"contracts/lottery.sol\":2910:2911  i */\n      dup4\n        /* \"contracts/lottery.sol\":2905:2912  nums[i] */\n      0xff\n      and\n      0x04\n      dup2\n      lt\n      tag_184\n      jumpi\n      tag_185\n      tag_148\n      jump\t// in\n    tag_185:\n    tag_184:\n      0x20\n      mul\n      add\n      mload\n        /* \"contracts/lottery.sol\":2905:2923  nums[i] == nums[j] */\n      0xff\n      and\n      sub\n        /* \"contracts/lottery.sol\":2901:2937  if (nums[i] == nums[j]) return false */\n      tag_186\n      jumpi\n        /* \"contracts/lottery.sol\":2932:2937  false */\n      0x00\n        /* \"contracts/lottery.sol\":2925:2937  return false */\n      swap3\n      pop\n      pop\n      pop\n      jump(tag_173)\n        /* \"contracts/lottery.sol\":2901:2937  if (nums[i] == nums[j]) return false */\n    tag_186:\n        /* \"contracts/lottery.sol\":2877:2880  j++ */\n      dup1\n      dup1\n      0x01\n      add\n      swap2\n      pop\n      pop\n        /* \"contracts/lottery.sol\":2848:2953  for (uint8 j = i + 1; j < 4; j++) {... */\n      jump(tag_177)\n    tag_178:\n      pop\n        /* \"contracts/lottery.sol\":2828:2831  i++ */\n      dup1\n      dup1\n      0x01\n      add\n      swap2\n      pop\n      pop\n        /* \"contracts/lottery.sol\":2803:2964  for (uint8 i = 0; i < 4; i++) {... */\n      jump(tag_174)\n    tag_175:\n      pop\n        /* \"contracts/lottery.sol\":2981:2985  true */\n      0x01\n        /* \"contracts/lottery.sol\":2974:2985  return true */\n      swap1\n      pop\n        /* \"contracts/lottery.sol\":2721:2993  function _areUnique(uint8[4] memory nums) internal pure returns (bool) {... */\n    tag_173:\n      swap2\n      swap1\n      pop\n      jump\t// out\n        /* \"@openzeppelin/contracts/access/Ownable.sol\":1796:1958  function _checkOwner() internal view virtual {... */\n    tag_110:\n        /* \"@openzeppelin/contracts/access/Ownable.sol\":1866:1878  _msgSender() */\n      tag_188\n        /* \"@openzeppelin/contracts/access/Ownable.sol\":1866:1876  _msgSender */\n      tag_189\n        /* \"@openzeppelin/contracts/access/Ownable.sol\":1866:1878  _msgSender() */\n      jump\t// in\n    tag_188:\n        /* \"@openzeppelin/contracts/access/Ownable.sol\":1855:1878  owner() != _msgSender() */\n      0xffffffffffffffffffffffffffffffffffffffff\n      and\n        /* \"@openzeppelin/contracts/access/Ownable.sol\":1855:1862  owner() */\n      tag_190\n        /* \"@openzeppelin/contracts/access/Ownable.sol\":1855:1860  owner */\n      tag_58\n        /* \"@openzeppelin/contracts/access/Ownable.sol\":1855:1862  owner() */\n      jump\t// in\n    tag_190:\n        /* \"@openzeppelin/contracts/access/Ownable.sol\":1855:1878  owner() != _msgSender() */\n      0xffffffffffffffffffffffffffffffffffffffff\n      and\n      eq\n        /* \"@openzeppelin/contracts/access/Ownable.sol\":1851:1952  if (owner() != _msgSender()) {... */\n      tag_191\n      jumpi\n        /* \"@openzeppelin/contracts/access/Ownable.sol\":1928:1940  _msgSender() */\n      tag_192\n        /* \"@openzeppelin/contracts/access/Ownable.sol\":1928:1938  _msgSender */\n      tag_189\n        /* \"@openzeppelin/contracts/access/Ownable.sol\":1928:1940  _msgSender() */\n      jump\t// in\n    tag_192:\n        /* \"@openzeppelin/contracts/access/Ownable.sol\":1901:1941  OwnableUnauthorizedAccount(_msgSender()) */\n      mload(0x40)\n      0x118cdaa700000000000000000000000000000000000000000000000000000000\n      dup2\n      mstore\n      0x04\n      add\n      tag_193\n      swap2\n      swap1\n      tag_42\n      jump\t// in\n    tag_193:\n      mload(0x40)\n      dup1\n      swap2\n      sub\n      swap1\n      revert\n        /* \"@openzeppelin/contracts/access/Ownable.sol\":1851:1952  if (owner() != _msgSender()) {... */\n    tag_191:\n        /* \"@openzeppelin/contracts/access/Ownable.sol\":1796:1958  function _checkOwner() internal view virtual {... */\n      jump\t// out\n        /* \"@openzeppelin/contracts/access/Ownable.sol\":2912:3099  function _transferOwnership(address newOwner) internal virtual {... */\n    tag_113:\n        /* \"@openzeppelin/contracts/access/Ownable.sol\":2985:3001  address oldOwner */\n      0x00\n        /* \"@openzeppelin/contracts/access/Ownable.sol\":3004:3010  _owner */\n      0x00\n      0x00\n      swap1\n      sload\n      swap1\n      0x0100\n      exp\n      swap1\n      div\n      0xffffffffffffffffffffffffffffffffffffffff\n      and\n        /* \"@openzeppelin/contracts/access/Ownable.sol\":2985:3010  address oldOwner = _owner */\n      swap1\n      pop\n        /* \"@openzeppelin/contracts/access/Ownable.sol\":3029:3037  newOwner */\n      dup2\n        /* \"@openzeppelin/contracts/access/Ownable.sol\":3020:3026  _owner */\n      0x00\n      0x00\n        /* \"@openzeppelin/contracts/access/Ownable.sol\":3020:3037  _owner = newOwner */\n      0x0100\n      exp\n      dup2\n      sload\n      dup2\n      0xffffffffffffffffffffffffffffffffffffffff\n      mul\n      not\n      and\n      swap1\n      dup4\n      0xffffffffffffffffffffffffffffffffffffffff\n      and\n      mul\n      or\n      swap1\n      sstore\n      pop\n        /* \"@openzeppelin/contracts/access/Ownable.sol\":3083:3091  newOwner */\n      dup2\n        /* \"@openzeppelin/contracts/access/Ownable.sol\":3052:3092  OwnershipTransferred(oldOwner, newOwner) */\n      0xffffffffffffffffffffffffffffffffffffffff\n      and\n        /* \"@openzeppelin/contracts/access/Ownable.sol\":3073:3081  oldOwner */\n      dup2\n        /* \"@openzeppelin/contracts/access/Ownable.sol\":3052:3092  OwnershipTransferred(oldOwner, newOwner) */\n      0xffffffffffffffffffffffffffffffffffffffff\n      and\n      0x8be0079c531659141344cd1fd0a4f28419497f9722a3daafe3b4186f6b6457e0\n      mload(0x40)\n      mload(0x40)\n      dup1\n      swap2\n      sub\n      swap1\n      log3\n        /* \"@openzeppelin/contracts/access/Ownable.sol\":2975:3099  {... */\n      pop\n        /* \"@openzeppelin/contracts/access/Ownable.sol\":2912:3099  function _transferOwnership(address newOwner) internal virtual {... */\n      pop\n      jump\t// out\n        /* \"contracts/lottery.sol\":3001:3424  function _matchNumbers(uint8[4] memory a, uint8[4] memory b) internal pure returns (bool) {... */\n    tag_153:\n        /* \"contracts/lottery.sol\":3085:3089  bool */\n      0x00\n        /* \"contracts/lottery.sol\":3107:3114  uint8 i */\n      0x00\n        /* \"contracts/lottery.sol\":3117:3118  0 */\n      0x00\n        /* \"contracts/lottery.sol\":3107:3118  uint8 i = 0 */\n      swap1\n      pop\n        /* \"contracts/lottery.sol\":3102:3395  for (uint8 i = 0; i < 4; i++) {... */\n    tag_196:\n        /* \"contracts/lottery.sol\":3124:3125  4 */\n      0x04\n        /* \"contracts/lottery.sol\":3120:3121  i */\n      dup2\n        /* \"contracts/lottery.sol\":3120:3125  i < 4 */\n      0xff\n      and\n      lt\n        /* \"contracts/lottery.sol\":3102:3395  for (uint8 i = 0; i < 4; i++) {... */\n      iszero\n      tag_197\n      jumpi\n        /* \"contracts/lottery.sol\":3147:3157  bool found */\n      0x00\n        /* \"contracts/lottery.sol\":3160:3165  false */\n      0x00\n        /* \"contracts/lottery.sol\":3147:3165  bool found = false */\n      swap1\n      pop\n        /* \"contracts/lottery.sol\":3185:3192  uint8 j */\n      0x00\n        /* \"contracts/lottery.sol\":3195:3196  0 */\n      0x00\n        /* \"contracts/lottery.sol\":3185:3196  uint8 j = 0 */\n      swap1\n      pop\n        /* \"contracts/lottery.sol\":3180:3345  for (uint8 j = 0; j < 4; j++) {... */\n    tag_199:\n        /* \"contracts/lottery.sol\":3202:3203  4 */\n      0x04\n        /* \"contracts/lottery.sol\":3198:3199  j */\n      dup2\n        /* \"contracts/lottery.sol\":3198:3203  j < 4 */\n      0xff\n      and\n      lt\n        /* \"contracts/lottery.sol\":3180:3345  for (uint8 j = 0; j < 4; j++) {... */\n      iszero\n      tag_200\n      jumpi\n        /* \"contracts/lottery.sol\":3241:3242  b */\n      dup5\n        /* \"contracts/lottery.sol\":3243:3244  j */\n      dup2\n        /* \"contracts/lottery.sol\":3241:3245  b[j] */\n      0xff\n      and\n      0x04\n      dup2\n      lt\n      tag_202\n      jumpi\n      tag_203\n      tag_148\n      jump\t// in\n    tag_203:\n    tag_202:\n      0x20\n      mul\n      add\n      mload\n        /* \"contracts/lottery.sol\":3233:3245  a[i] == b[j] */\n      0xff\n      and\n        /* \"contracts/lottery.sol\":3233:3234  a */\n      dup7\n        /* \"contracts/lottery.sol\":3235:3236  i */\n      dup5\n        /* \"contracts/lottery.sol\":3233:3237  a[i] */\n      0xff\n      and\n      0x04\n      dup2\n      lt\n      tag_204\n      jumpi\n      tag_205\n      tag_148\n      jump\t// in\n    tag_205:\n    tag_204:\n      0x20\n      mul\n      add\n      mload\n        /* \"contracts/lottery.sol\":3233:3245  a[i] == b[j] */\n      0xff\n      and\n      sub\n        /* \"contracts/lottery.sol\":3229:3330  if (a[i] == b[j]) {... */\n      tag_206\n      jumpi\n        /* \"contracts/lottery.sol\":3278:3282  true */\n      0x01\n        /* \"contracts/lottery.sol\":3270:3282  found = true */\n      swap2\n      pop\n        /* \"contracts/lottery.sol\":3305:3310  break */\n      jump(tag_200)\n        /* \"contracts/lottery.sol\":3229:3330  if (a[i] == b[j]) {... */\n    tag_206:\n        /* \"contracts/lottery.sol\":3205:3208  j++ */\n      dup1\n      dup1\n      0x01\n      add\n      swap2\n      pop\n      pop\n        /* \"contracts/lottery.sol\":3180:3345  for (uint8 j = 0; j < 4; j++) {... */\n      jump(tag_199)\n    tag_200:\n      pop\n        /* \"contracts/lottery.sol\":3364:3369  found */\n      dup1\n        /* \"contracts/lottery.sol\":3359:3383  if (!found) return false */\n      tag_207\n      jumpi\n        /* \"contracts/lottery.sol\":3378:3383  false */\n      0x00\n        /* \"contracts/lottery.sol\":3371:3383  return false */\n      swap3\n      pop\n      pop\n      pop\n      jump(tag_195)\n        /* \"contracts/lottery.sol\":3359:3383  if (!found) return false */\n    tag_207:\n        /* \"contracts/lottery.sol\":3132:3395  {... */\n      pop\n        /* \"contracts/lottery.sol\":3127:3130  i++ */\n      dup1\n      dup1\n      0x01\n      add\n      swap2\n      pop\n      pop\n        /* \"contracts/lottery.sol\":3102:3395  for (uint8 i = 0; i < 4; i++) {... */\n      jump(tag_196)\n    tag_197:\n      pop\n        /* \"contracts/lottery.sol\":3412:3416  true */\n      0x01\n        /* \"contracts/lottery.sol\":3405:3416  return true */\n      swap1\n      pop\n        /* \"contracts/lottery.sol\":3001:3424  function _matchNumbers(uint8[4] memory a, uint8[4] memory b) internal pure returns (bool) {... */\n    tag_195:\n      swap3\n      swap2\n      pop\n      pop\n      jump\t// out\n        /* \"@openzeppelin/contracts/utils/Context.sol\":656:752  function _msgSender() internal view virtual returns (address) {... */\n    tag_189:\n        /* \"@openzeppelin/contracts/utils/Context.sol\":709:716  address */\n      0x00\n        /* \"@openzeppelin/contracts/utils/Context.sol\":735:745  msg.sender */\n      caller\n        /* \"@openzeppelin/contracts/utils/Context.sol\":728:745  return msg.sender */\n      swap1\n      pop\n        /* \"@openzeppelin/contracts/utils/Context.sol\":656:752  function _msgSender() internal view virtual returns (address) {... */\n      swap1\n      jump\t// out\n    tag_105:\n      dup3\n      add(0x1f, 0x04)\n      0x20\n      swap1\n      div\n      dup2\n      add\n      swap3\n      dup3\n      iszero\n      tag_209\n      jumpi\n      swap2\n      0x20\n      mul\n      dup3\n      add\n      0x00\n    tag_210:\n      dup4\n      dup3\n      gt\n      iszero\n      tag_211\n      jumpi\n      dup4\n      mload\n      dup4\n      dup3\n      0x0100\n      exp\n      dup2\n      sload\n      dup2\n      0xff\n      mul\n      not\n      and\n      swap1\n      dup4\n      0xff\n      and\n      mul\n      or\n      swap1\n      sstore\n      pop\n      swap3\n      0x20\n      add\n      swap3\n      0x01\n      add\n      0x20\n      dup2\n      0x00\n      add\n      div\n      swap3\n      dup4\n      add\n      swap3\n      0x01\n      sub\n      mul\n      jump(tag_210)\n    tag_211:\n      dup1\n      iszero\n      tag_212\n      jumpi\n      dup3\n      dup2\n      0x0100\n      exp\n      dup2\n      sload\n      swap1\n      0xff\n      mul\n      not\n      and\n      swap1\n      sstore\n      0x01\n      add\n      0x20\n      dup2\n      0x00\n      add\n      div\n      swap3\n      dup4\n      add\n      swap3\n      0x01\n      sub\n      mul\n      jump(tag_211)\n    tag_212:\n      pop\n    tag_209:\n      pop\n      swap1\n      pop\n      tag_213\n      swap2\n      swap1\n      tag_214\n      jump\t// in\n    tag_213:\n      pop\n      swap1\n      jump\t// out\n    tag_214:\n    tag_215:\n      dup1\n      dup3\n      gt\n      iszero\n      tag_216\n      jumpi\n      0x00\n      dup2\n      0x00\n      swap1\n      sstore\n      pop\n      0x01\n      add\n      jump(tag_215)\n    tag_216:\n      pop\n      swap1\n      jump\t// out\n        /* \"#utility.yul\":7:84   */\n    tag_217:\n        /* \"#utility.yul\":44:51   */\n      0x00\n        /* \"#utility.yul\":73:78   */\n      dup2\n        /* \"#utility.yul\":62:78   */\n      swap1\n      pop\n        /* \"#utility.yul\":7:84   */\n      swap2\n      swap1\n      pop\n      jump\t// out\n        /* \"#utility.yul\":90:208   */\n    tag_218:\n        /* \"#utility.yul\":177:201   */\n      tag_279\n        /* \"#utility.yul\":195:200   */\n      dup2\n        /* \"#utility.yul\":177:201   */\n      tag_217\n      jump\t// in\n    tag_279:\n        /* \"#utility.yul\":172:175   */\n      dup3\n        /* \"#utility.yul\":165:202   */\n      mstore\n        /* \"#utility.yul\":90:208   */\n      pop\n      pop\n      jump\t// out\n        /* \"#utility.yul\":214:436   */\n    tag_25:\n        /* \"#utility.yul\":307:311   */\n      0x00\n        /* \"#utility.yul\":345:347   */\n      0x20\n        /* \"#utility.yul\":334:343   */\n      dup3\n        /* \"#utility.yul\":330:348   */\n      add\n        /* \"#utility.yul\":322:348   */\n      swap1\n      pop\n        /* \"#utility.yul\":358:429   */\n      tag_281\n        /* \"#utility.yul\":426:427   */\n      0x00\n        /* \"#utility.yul\":415:424   */\n      dup4\n        /* \"#utility.yul\":411:428   */\n      add\n        /* \"#utility.yul\":402:408   */\n      dup5\n        /* \"#utility.yul\":358:429   */\n      tag_218\n      jump\t// in\n    tag_281:\n        /* \"#utility.yul\":214:436   */\n      swap3\n      swap2\n      pop\n      pop\n      jump\t// out\n        /* \"#utility.yul\":442:541   */\n    tag_219:\n        /* \"#utility.yul\":494:500   */\n      0x00\n        /* \"#utility.yul\":528:533   */\n      dup2\n        /* \"#utility.yul\":522:534   */\n      mload\n        /* \"#utility.yul\":512:534   */\n      swap1\n      pop\n        /* \"#utility.yul\":442:541   */\n      swap2\n      swap1\n      pop\n      jump\t// out\n        /* \"#utility.yul\":547:716   */\n    tag_220:\n        /* \"#utility.yul\":631:642   */\n      0x00\n        /* \"#utility.yul\":665:671   */\n      dup3\n        /* \"#utility.yul\":660:663   */\n      dup3\n        /* \"#utility.yul\":653:672   */\n      mstore\n        /* \"#utility.yul\":705:709   */\n      0x20\n        /* \"#utility.yul\":700:703   */\n      dup3\n        /* \"#utility.yul\":696:710   */\n      add\n        /* \"#utility.yul\":681:710   */\n      swap1\n      pop\n        /* \"#utility.yul\":547:716   */\n      swap3\n      swap2\n      pop\n      pop\n      jump\t// out\n        /* \"#utility.yul\":722:861   */\n    tag_221:\n        /* \"#utility.yul\":811:817   */\n      dup3\n        /* \"#utility.yul\":806:809   */\n      dup2\n        /* \"#utility.yul\":801:804   */\n      dup4\n        /* \"#utility.yul\":795:818   */\n      mcopy\n        /* \"#utility.yul\":852:853   */\n      0x00\n        /* \"#utility.yul\":843:849   */\n      dup4\n        /* \"#utility.yul\":838:841   */\n      dup4\n        /* \"#utility.yul\":834:850   */\n      add\n        /* \"#utility.yul\":827:854   */\n      mstore\n        /* \"#utility.yul\":722:861   */\n      pop\n      pop\n      pop\n      jump\t// out\n        /* \"#utility.yul\":867:969   */\n    tag_222:\n        /* \"#utility.yul\":908:914   */\n      0x00\n        /* \"#utility.yul\":959:961   */\n      0x1f\n        /* \"#utility.yul\":955:962   */\n      not\n        /* \"#utility.yul\":950:952   */\n      0x1f\n        /* \"#utility.yul\":943:948   */\n      dup4\n        /* \"#utility.yul\":939:953   */\n      add\n        /* \"#utility.yul\":935:963   */\n      and\n        /* \"#utility.yul\":925:963   */\n      swap1\n      pop\n        /* \"#utility.yul\":867:969   */\n      swap2\n      swap1\n      pop\n      jump\t// out\n        /* \"#utility.yul\":975:1352   */\n    tag_223:\n        /* \"#utility.yul\":1063:1066   */\n      0x00\n        /* \"#utility.yul\":1091:1130   */\n      tag_287\n        /* \"#utility.yul\":1124:1129   */\n      dup3\n        /* \"#utility.yul\":1091:1130   */\n      tag_219\n      jump\t// in\n    tag_287:\n        /* \"#utility.yul\":1146:1217   */\n      tag_288\n        /* \"#utility.yul\":1210:1216   */\n      dup2\n        /* \"#utility.yul\":1205:1208   */\n      dup6\n        /* \"#utility.yul\":1146:1217   */\n      tag_220\n      jump\t// in\n    tag_288:\n        /* \"#utility.yul\":1139:1217   */\n      swap4\n      pop\n        /* \"#utility.yul\":1226:1291   */\n      tag_289\n        /* \"#utility.yul\":1284:1290   */\n      dup2\n        /* \"#utility.yul\":1279:1282   */\n      dup6\n        /* \"#utility.yul\":1272:1276   */\n      0x20\n        /* \"#utility.yul\":1265:1270   */\n      dup7\n        /* \"#utility.yul\":1261:1277   */\n      add\n        /* \"#utility.yul\":1226:1291   */\n      tag_221\n      jump\t// in\n    tag_289:\n        /* \"#utility.yul\":1316:1345   */\n      tag_290\n        /* \"#utility.yul\":1338:1344   */\n      dup2\n        /* \"#utility.yul\":1316:1345   */\n      tag_222\n      jump\t// in\n    tag_290:\n        /* \"#utility.yul\":1311:1314   */\n      dup5\n        /* \"#utility.yul\":1307:1346   */\n      add\n        /* \"#utility.yul\":1300:1346   */\n      swap2\n      pop\n        /* \"#utility.yul\":1067:1352   */\n      pop\n        /* \"#utility.yul\":975:1352   */\n      swap3\n      swap2\n      pop\n      pop\n      jump\t// out\n        /* \"#utility.yul\":1358:1671   */\n    tag_29:\n        /* \"#utility.yul\":1471:1475   */\n      0x00\n        /* \"#utility.yul\":1509:1511   */\n      0x20\n        /* \"#utility.yul\":1498:1507   */\n      dup3\n        /* \"#utility.yul\":1494:1512   */\n      add\n        /* \"#utility.yul\":1486:1512   */\n      swap1\n      pop\n        /* \"#utility.yul\":1558:1567   */\n      dup2\n        /* \"#utility.yul\":1552:1556   */\n      dup2\n        /* \"#utility.yul\":1548:1568   */\n      sub\n        /* \"#utility.yul\":1544:1545   */\n      0x00\n        /* \"#utility.yul\":1533:1542   */\n      dup4\n        /* \"#utility.yul\":1529:1546   */\n      add\n        /* \"#utility.yul\":1522:1569   */\n      mstore\n        /* \"#utility.yul\":1586:1664   */\n      tag_292\n        /* \"#utility.yul\":1659:1663   */\n      dup2\n        /* \"#utility.yul\":1650:1656   */\n      dup5\n        /* \"#utility.yul\":1586:1664   */\n      tag_223\n      jump\t// in\n    tag_292:\n        /* \"#utility.yul\":1578:1664   */\n      swap1\n      pop\n        /* \"#utility.yul\":1358:1671   */\n      swap3\n      swap2\n      pop\n      pop\n      jump\t// out\n        /* \"#utility.yul\":1677:1752   */\n    tag_224:\n        /* \"#utility.yul\":1710:1716   */\n      0x00\n        /* \"#utility.yul\":1743:1745   */\n      0x40\n        /* \"#utility.yul\":1737:1746   */\n      mload\n        /* \"#utility.yul\":1727:1746   */\n      swap1\n      pop\n        /* \"#utility.yul\":1677:1752   */\n      swap1\n      jump\t// out\n        /* \"#utility.yul\":1758:1875   */\n    tag_225:\n        /* \"#utility.yul\":1867:1868   */\n      0x00\n        /* \"#utility.yul\":1864:1865   */\n      0x00\n        /* \"#utility.yul\":1857:1869   */\n      revert\n        /* \"#utility.yul\":1881:1998   */\n    tag_226:\n        /* \"#utility.yul\":1990:1991   */\n      0x00\n        /* \"#utility.yul\":1987:1988   */\n      0x00\n        /* \"#utility.yul\":1980:1992   */\n      revert\n        /* \"#utility.yul\":2004:2121   */\n    tag_227:\n        /* \"#utility.yul\":2113:2114   */\n      0x00\n        /* \"#utility.yul\":2110:2111   */\n      0x00\n        /* \"#utility.yul\":2103:2115   */\n      revert\n        /* \"#utility.yul\":2127:2307   */\n    tag_228:\n        /* \"#utility.yul\":2175:2252   */\n      0x4e487b7100000000000000000000000000000000000000000000000000000000\n        /* \"#utility.yul\":2172:2173   */\n      0x00\n        /* \"#utility.yul\":2165:2253   */\n      mstore\n        /* \"#utility.yul\":2272:2276   */\n      0x41\n        /* \"#utility.yul\":2269:2270   */\n      0x04\n        /* \"#utility.yul\":2262:2277   */\n      mstore\n        /* \"#utility.yul\":2296:2300   */\n      0x24\n        /* \"#utility.yul\":2293:2294   */\n      0x00\n        /* \"#utility.yul\":2286:2301   */\n      revert\n        /* \"#utility.yul\":2313:2594   */\n    tag_229:\n        /* \"#utility.yul\":2396:2423   */\n      tag_299\n        /* \"#utility.yul\":2418:2422   */\n      dup3\n        /* \"#utility.yul\":2396:2423   */\n      tag_222\n      jump\t// in\n    tag_299:\n        /* \"#utility.yul\":2388:2394   */\n      dup2\n        /* \"#utility.yul\":2384:2424   */\n      add\n        /* \"#utility.yul\":2526:2532   */\n      dup2\n        /* \"#utility.yul\":2514:2524   */\n      dup2\n        /* \"#utility.yul\":2511:2533   */\n      lt\n        /* \"#utility.yul\":2490:2508   */\n      0xffffffffffffffff\n        /* \"#utility.yul\":2478:2488   */\n      dup3\n        /* \"#utility.yul\":2475:2509   */\n      gt\n        /* \"#utility.yul\":2472:2534   */\n      or\n        /* \"#utility.yul\":2469:2557   */\n      iszero\n      tag_300\n      jumpi\n        /* \"#utility.yul\":2537:2555   */\n      tag_301\n      tag_228\n      jump\t// in\n    tag_301:\n        /* \"#utility.yul\":2469:2557   */\n    tag_300:\n        /* \"#utility.yul\":2577:2587   */\n      dup1\n        /* \"#utility.yul\":2573:2575   */\n      0x40\n        /* \"#utility.yul\":2566:2588   */\n      mstore\n        /* \"#utility.yul\":2356:2594   */\n      pop\n        /* \"#utility.yul\":2313:2594   */\n      pop\n      pop\n      jump\t// out\n        /* \"#utility.yul\":2600:2729   */\n    tag_230:\n        /* \"#utility.yul\":2634:2640   */\n      0x00\n        /* \"#utility.yul\":2661:2681   */\n      tag_303\n      tag_224\n      jump\t// in\n    tag_303:\n        /* \"#utility.yul\":2651:2681   */\n      swap1\n      pop\n        /* \"#utility.yul\":2690:2723   */\n      tag_304\n        /* \"#utility.yul\":2718:2722   */\n      dup3\n        /* \"#utility.yul\":2710:2716   */\n      dup3\n        /* \"#utility.yul\":2690:2723   */\n      tag_229\n      jump\t// in\n    tag_304:\n        /* \"#utility.yul\":2600:2729   */\n      swap2\n      swap1\n      pop\n      jump\t// out\n        /* \"#utility.yul\":2735:2982   */\n    tag_231:\n        /* \"#utility.yul\":2808:2812   */\n      0x00\n        /* \"#utility.yul\":2898:2916   */\n      0xffffffffffffffff\n        /* \"#utility.yul\":2890:2896   */\n      dup3\n        /* \"#utility.yul\":2887:2917   */\n      gt\n        /* \"#utility.yul\":2884:2940   */\n      iszero\n      tag_306\n      jumpi\n        /* \"#utility.yul\":2920:2938   */\n      tag_307\n      tag_228\n      jump\t// in\n    tag_307:\n        /* \"#utility.yul\":2884:2940   */\n    tag_306:\n        /* \"#utility.yul\":2970:2974   */\n      0x20\n        /* \"#utility.yul\":2962:2968   */\n      dup3\n        /* \"#utility.yul\":2958:2975   */\n      mul\n        /* \"#utility.yul\":2950:2975   */\n      swap1\n      pop\n        /* \"#utility.yul\":2735:2982   */\n      swap2\n      swap1\n      pop\n      jump\t// out\n        /* \"#utility.yul\":2988:3105   */\n    tag_232:\n        /* \"#utility.yul\":3097:3098   */\n      0x00\n        /* \"#utility.yul\":3094:3095   */\n      0x00\n        /* \"#utility.yul\":3087:3099   */\n      revert\n        /* \"#utility.yul\":3111:3197   */\n    tag_233:\n        /* \"#utility.yul\":3146:3153   */\n      0x00\n        /* \"#utility.yul\":3186:3190   */\n      0xff\n        /* \"#utility.yul\":3179:3184   */\n      dup3\n        /* \"#utility.yul\":3175:3191   */\n      and\n        /* \"#utility.yul\":3164:3191   */\n      swap1\n      pop\n        /* \"#utility.yul\":3111:3197   */\n      swap2\n      swap1\n      pop\n      jump\t// out\n        /* \"#utility.yul\":3203:3321   */\n    tag_234:\n        /* \"#utility.yul\":3274:3296   */\n      tag_311\n        /* \"#utility.yul\":3290:3295   */\n      dup2\n        /* \"#utility.yul\":3274:3296   */\n      tag_233\n      jump\t// in\n    tag_311:\n        /* \"#utility.yul\":3267:3272   */\n      dup2\n        /* \"#utility.yul\":3264:3297   */\n      eq\n        /* \"#utility.yul\":3254:3315   */\n      tag_312\n      jumpi\n        /* \"#utility.yul\":3311:3312   */\n      0x00\n        /* \"#utility.yul\":3308:3309   */\n      0x00\n        /* \"#utility.yul\":3301:3313   */\n      revert\n        /* \"#utility.yul\":3254:3315   */\n    tag_312:\n        /* \"#utility.yul\":3203:3321   */\n      pop\n      jump\t// out\n        /* \"#utility.yul\":3327:3462   */\n    tag_235:\n        /* \"#utility.yul\":3371:3376   */\n      0x00\n        /* \"#utility.yul\":3409:3415   */\n      dup2\n        /* \"#utility.yul\":3396:3416   */\n      calldataload\n        /* \"#utility.yul\":3387:3416   */\n      swap1\n      pop\n        /* \"#utility.yul\":3425:3456   */\n      tag_314\n        /* \"#utility.yul\":3450:3455   */\n      dup2\n        /* \"#utility.yul\":3425:3456   */\n      tag_234\n      jump\t// in\n    tag_314:\n        /* \"#utility.yul\":3327:3462   */\n      swap3\n      swap2\n      pop\n      pop\n      jump\t// out\n        /* \"#utility.yul\":3484:4121   */\n    tag_236:\n        /* \"#utility.yul\":3576:3581   */\n      0x00\n        /* \"#utility.yul\":3601:3678   */\n      tag_316\n        /* \"#utility.yul\":3617:3677   */\n      tag_317\n        /* \"#utility.yul\":3670:3676   */\n      dup5\n        /* \"#utility.yul\":3617:3677   */\n      tag_231\n      jump\t// in\n    tag_317:\n        /* \"#utility.yul\":3601:3678   */\n      tag_230\n      jump\t// in\n    tag_316:\n        /* \"#utility.yul\":3592:3678   */\n      swap1\n      pop\n        /* \"#utility.yul\":3698:3703   */\n      dup1\n        /* \"#utility.yul\":3751:3755   */\n      0x20\n        /* \"#utility.yul\":3743:3749   */\n      dup5\n        /* \"#utility.yul\":3739:3756   */\n      mul\n        /* \"#utility.yul\":3731:3737   */\n      dup4\n        /* \"#utility.yul\":3727:3757   */\n      add\n        /* \"#utility.yul\":3780:3783   */\n      dup6\n        /* \"#utility.yul\":3772:3778   */\n      dup2\n        /* \"#utility.yul\":3769:3784   */\n      gt\n        /* \"#utility.yul\":3766:3888   */\n      iszero\n      tag_318\n      jumpi\n        /* \"#utility.yul\":3799:3878   */\n      tag_319\n      tag_232\n      jump\t// in\n    tag_319:\n        /* \"#utility.yul\":3766:3888   */\n    tag_318:\n        /* \"#utility.yul\":3914:3920   */\n      dup4\n        /* \"#utility.yul\":3897:4115   */\n    tag_320:\n        /* \"#utility.yul\":3931:3937   */\n      dup2\n        /* \"#utility.yul\":3926:3929   */\n      dup2\n        /* \"#utility.yul\":3923:3938   */\n      lt\n        /* \"#utility.yul\":3897:4115   */\n      iszero\n      tag_322\n      jumpi\n        /* \"#utility.yul\":4006:4009   */\n      dup1\n        /* \"#utility.yul\":4035:4070   */\n      tag_323\n        /* \"#utility.yul\":4066:4069   */\n      dup9\n        /* \"#utility.yul\":4054:4064   */\n      dup3\n        /* \"#utility.yul\":4035:4070   */\n      tag_235\n      jump\t// in\n    tag_323:\n        /* \"#utility.yul\":4030:4033   */\n      dup5\n        /* \"#utility.yul\":4023:4071   */\n      mstore\n        /* \"#utility.yul\":4100:4104   */\n      0x20\n        /* \"#utility.yul\":4095:4098   */\n      dup5\n        /* \"#utility.yul\":4091:4105   */\n      add\n        /* \"#utility.yul\":4084:4105   */\n      swap4\n      pop\n        /* \"#utility.yul\":3973:4115   */\n      pop\n        /* \"#utility.yul\":3957:3961   */\n      0x20\n        /* \"#utility.yul\":3952:3955   */\n      dup2\n        /* \"#utility.yul\":3948:3962   */\n      add\n        /* \"#utility.yul\":3941:3962   */\n      swap1\n      pop\n        /* \"#utility.yul\":3897:4115   */\n      jump(tag_320)\n    tag_322:\n        /* \"#utility.yul\":3901:3922   */\n      pop\n        /* \"#utility.yul\":3582:4121   */\n      pop\n      pop\n        /* \"#utility.yul\":3484:4121   */\n      swap4\n      swap3\n      pop\n      pop\n      pop\n      jump\t// out\n        /* \"#utility.yul\":4143:4478   */\n    tag_237:\n        /* \"#utility.yul\":4210:4215   */\n      0x00\n        /* \"#utility.yul\":4259:4262   */\n      dup3\n        /* \"#utility.yul\":4252:4256   */\n      0x1f\n        /* \"#utility.yul\":4244:4250   */\n      dup4\n        /* \"#utility.yul\":4240:4257   */\n      add\n        /* \"#utility.yul\":4236:4263   */\n      slt\n        /* \"#utility.yul\":4226:4348   */\n      tag_325\n      jumpi\n        /* \"#utility.yul\":4267:4346   */\n      tag_326\n      tag_227\n      jump\t// in\n    tag_326:\n        /* \"#utility.yul\":4226:4348   */\n    tag_325:\n        /* \"#utility.yul\":4371:4375   */\n      0x04\n        /* \"#utility.yul\":4393:4472   */\n      tag_327\n        /* \"#utility.yul\":4468:4471   */\n      dup5\n        /* \"#utility.yul\":4460:4466   */\n      dup3\n        /* \"#utility.yul\":4452:4458   */\n      dup6\n        /* \"#utility.yul\":4393:4472   */\n      tag_236\n      jump\t// in\n    tag_327:\n        /* \"#utility.yul\":4384:4472   */\n      swap2\n      pop\n        /* \"#utility.yul\":4216:4478   */\n      pop\n        /* \"#utility.yul\":4143:4478   */\n      swap3\n      swap2\n      pop\n      pop\n      jump\t// out\n        /* \"#utility.yul\":4484:4856   */\n    tag_35:\n        /* \"#utility.yul\":4564:4570   */\n      0x00\n        /* \"#utility.yul\":4613:4616   */\n      0x80\n        /* \"#utility.yul\":4601:4610   */\n      dup3\n        /* \"#utility.yul\":4592:4599   */\n      dup5\n        /* \"#utility.yul\":4588:4611   */\n      sub\n        /* \"#utility.yul\":4584:4617   */\n      slt\n        /* \"#utility.yul\":4581:4701   */\n      iszero\n      tag_329\n      jumpi\n        /* \"#utility.yul\":4620:4699   */\n      tag_330\n      tag_225\n      jump\t// in\n    tag_330:\n        /* \"#utility.yul\":4581:4701   */\n    tag_329:\n        /* \"#utility.yul\":4740:4741   */\n      0x00\n        /* \"#utility.yul\":4765:4839   */\n      tag_331\n        /* \"#utility.yul\":4831:4838   */\n      dup5\n        /* \"#utility.yul\":4822:4828   */\n      dup3\n        /* \"#utility.yul\":4811:4820   */\n      dup6\n        /* \"#utility.yul\":4807:4829   */\n      add\n        /* \"#utility.yul\":4765:4839   */\n      tag_237\n      jump\t// in\n    tag_331:\n        /* \"#utility.yul\":4755:4839   */\n      swap2\n      pop\n        /* \"#utility.yul\":4711:4849   */\n      pop\n        /* \"#utility.yul\":4484:4856   */\n      swap3\n      swap2\n      pop\n      pop\n      jump\t// out\n        /* \"#utility.yul\":4862:4984   */\n    tag_238:\n        /* \"#utility.yul\":4935:4959   */\n      tag_333\n        /* \"#utility.yul\":4953:4958   */\n      dup2\n        /* \"#utility.yul\":4935:4959   */\n      tag_217\n      jump\t// in\n    tag_333:\n        /* \"#utility.yul\":4928:4933   */\n      dup2\n        /* \"#utility.yul\":4925:4960   */\n      eq\n        /* \"#utility.yul\":4915:4978   */\n      tag_334\n      jumpi\n        /* \"#utility.yul\":4974:4975   */\n      0x00\n        /* \"#utility.yul\":4971:4972   */\n      0x00\n        /* \"#utility.yul\":4964:4976   */\n      revert\n        /* \"#utility.yul\":4915:4978   */\n    tag_334:\n        /* \"#utility.yul\":4862:4984   */\n      pop\n      jump\t// out\n        /* \"#utility.yul\":4990:5129   */\n    tag_239:\n        /* \"#utility.yul\":5036:5041   */\n      0x00\n        /* \"#utility.yul\":5074:5080   */\n      dup2\n        /* \"#utility.yul\":5061:5081   */\n      calldataload\n        /* \"#utility.yul\":5052:5081   */\n      swap1\n      pop\n        /* \"#utility.yul\":5090:5123   */\n      tag_336\n        /* \"#utility.yul\":5117:5122   */\n      dup2\n        /* \"#utility.yul\":5090:5123   */\n      tag_238\n      jump\t// in\n    tag_336:\n        /* \"#utility.yul\":4990:5129   */\n      swap3\n      swap2\n      pop\n      pop\n      jump\t// out\n        /* \"#utility.yul\":5135:5609   */\n    tag_39:\n        /* \"#utility.yul\":5203:5209   */\n      0x00\n        /* \"#utility.yul\":5211:5217   */\n      0x00\n        /* \"#utility.yul\":5260:5262   */\n      0x40\n        /* \"#utility.yul\":5248:5257   */\n      dup4\n        /* \"#utility.yul\":5239:5246   */\n      dup6\n        /* \"#utility.yul\":5235:5258   */\n      sub\n        /* \"#utility.yul\":5231:5263   */\n      slt\n        /* \"#utility.yul\":5228:5347   */\n      iszero\n      tag_338\n      jumpi\n        /* \"#utility.yul\":5266:5345   */\n      tag_339\n      tag_225\n      jump\t// in\n    tag_339:\n        /* \"#utility.yul\":5228:5347   */\n    tag_338:\n        /* \"#utility.yul\":5386:5387   */\n      0x00\n        /* \"#utility.yul\":5411:5464   */\n      tag_340\n        /* \"#utility.yul\":5456:5463   */\n      dup6\n        /* \"#utility.yul\":5447:5453   */\n      dup3\n        /* \"#utility.yul\":5436:5445   */\n      dup7\n        /* \"#utility.yul\":5432:5454   */\n      add\n        /* \"#utility.yul\":5411:5464   */\n      tag_239\n      jump\t// in\n    tag_340:\n        /* \"#utility.yul\":5401:5464   */\n      swap3\n      pop\n        /* \"#utility.yul\":5357:5474   */\n      pop\n        /* \"#utility.yul\":5513:5515   */\n      0x20\n        /* \"#utility.yul\":5539:5592   */\n      tag_341\n        /* \"#utility.yul\":5584:5591   */\n      dup6\n        /* \"#utility.yul\":5575:5581   */\n      dup3\n        /* \"#utility.yul\":5564:5573   */\n      dup7\n        /* \"#utility.yul\":5560:5582   */\n      add\n        /* \"#utility.yul\":5539:5592   */\n      tag_239\n      jump\t// in\n    tag_341:\n        /* \"#utility.yul\":5529:5592   */\n      swap2\n      pop\n        /* \"#utility.yul\":5484:5602   */\n      pop\n        /* \"#utility.yul\":5135:5609   */\n      swap3\n      pop\n      swap3\n      swap1\n      pop\n      jump\t// out\n        /* \"#utility.yul\":5615:5741   */\n    tag_240:\n        /* \"#utility.yul\":5652:5659   */\n      0x00\n        /* \"#utility.yul\":5692:5734   */\n      0xffffffffffffffffffffffffffffffffffffffff\n        /* \"#utility.yul\":5685:5690   */\n      dup3\n        /* \"#utility.yul\":5681:5735   */\n      and\n        /* \"#utility.yul\":5670:5735   */\n      swap1\n      pop\n        /* \"#utility.yul\":5615:5741   */\n      swap2\n      swap1\n      pop\n      jump\t// out\n        /* \"#utility.yul\":5747:5843   */\n    tag_241:\n        /* \"#utility.yul\":5784:5791   */\n      0x00\n        /* \"#utility.yul\":5813:5837   */\n      tag_344\n        /* \"#utility.yul\":5831:5836   */\n      dup3\n        /* \"#utility.yul\":5813:5837   */\n      tag_240\n      jump\t// in\n    tag_344:\n        /* \"#utility.yul\":5802:5837   */\n      swap1\n      pop\n        /* \"#utility.yul\":5747:5843   */\n      swap2\n      swap1\n      pop\n      jump\t// out\n        /* \"#utility.yul\":5849:5967   */\n    tag_242:\n        /* \"#utility.yul\":5936:5960   */\n      tag_346\n        /* \"#utility.yul\":5954:5959   */\n      dup2\n        /* \"#utility.yul\":5936:5960   */\n      tag_241\n      jump\t// in\n    tag_346:\n        /* \"#utility.yul\":5931:5934   */\n      dup3\n        /* \"#utility.yul\":5924:5961   */\n      mstore\n        /* \"#utility.yul\":5849:5967   */\n      pop\n      pop\n      jump\t// out\n        /* \"#utility.yul\":5973:6195   */\n    tag_42:\n        /* \"#utility.yul\":6066:6070   */\n      0x00\n        /* \"#utility.yul\":6104:6106   */\n      0x20\n        /* \"#utility.yul\":6093:6102   */\n      dup3\n        /* \"#utility.yul\":6089:6107   */\n      add\n        /* \"#utility.yul\":6081:6107   */\n      swap1\n      pop\n        /* \"#utility.yul\":6117:6188   */\n      tag_348\n        /* \"#utility.yul\":6185:6186   */\n      0x00\n        /* \"#utility.yul\":6174:6183   */\n      dup4\n        /* \"#utility.yul\":6170:6187   */\n      add\n        /* \"#utility.yul\":6161:6167   */\n      dup5\n        /* \"#utility.yul\":6117:6188   */\n      tag_242\n      jump\t// in\n    tag_348:\n        /* \"#utility.yul\":5973:6195   */\n      swap3\n      swap2\n      pop\n      pop\n      jump\t// out\n        /* \"#utility.yul\":6201:6530   */\n    tag_48:\n        /* \"#utility.yul\":6260:6266   */\n      0x00\n        /* \"#utility.yul\":6309:6311   */\n      0x20\n        /* \"#utility.yul\":6297:6306   */\n      dup3\n        /* \"#utility.yul\":6288:6295   */\n      dup5\n        /* \"#utility.yul\":6284:6307   */\n      sub\n        /* \"#utility.yul\":6280:6312   */\n      slt\n        /* \"#utility.yul\":6277:6396   */\n      iszero\n      tag_350\n      jumpi\n        /* \"#utility.yul\":6315:6394   */\n      tag_351\n      tag_225\n      jump\t// in\n    tag_351:\n        /* \"#utility.yul\":6277:6396   */\n    tag_350:\n        /* \"#utility.yul\":6435:6436   */\n      0x00\n        /* \"#utility.yul\":6460:6513   */\n      tag_352\n        /* \"#utility.yul\":6505:6512   */\n      dup5\n        /* \"#utility.yul\":6496:6502   */\n      dup3\n        /* \"#utility.yul\":6485:6494   */\n      dup6\n        /* \"#utility.yul\":6481:6503   */\n      add\n        /* \"#utility.yul\":6460:6513   */\n      tag_239\n      jump\t// in\n    tag_352:\n        /* \"#utility.yul\":6450:6513   */\n      swap2\n      pop\n        /* \"#utility.yul\":6406:6523   */\n      pop\n        /* \"#utility.yul\":6201:6530   */\n      swap3\n      swap2\n      pop\n      pop\n      jump\t// out\n        /* \"#utility.yul\":6536:6626   */\n    tag_243:\n        /* \"#utility.yul\":6570:6577   */\n      0x00\n        /* \"#utility.yul\":6613:6618   */\n      dup2\n        /* \"#utility.yul\":6606:6619   */\n      iszero\n        /* \"#utility.yul\":6599:6620   */\n      iszero\n        /* \"#utility.yul\":6588:6620   */\n      swap1\n      pop\n        /* \"#utility.yul\":6536:6626   */\n      swap2\n      swap1\n      pop\n      jump\t// out\n        /* \"#utility.yul\":6632:6741   */\n    tag_244:\n        /* \"#utility.yul\":6713:6734   */\n      tag_355\n        /* \"#utility.yul\":6728:6733   */\n      dup2\n        /* \"#utility.yul\":6713:6734   */\n      tag_243\n      jump\t// in\n    tag_355:\n        /* \"#utility.yul\":6708:6711   */\n      dup3\n        /* \"#utility.yul\":6701:6735   */\n      mstore\n        /* \"#utility.yul\":6632:6741   */\n      pop\n      pop\n      jump\t// out\n        /* \"#utility.yul\":6747:6957   */\n    tag_51:\n        /* \"#utility.yul\":6834:6838   */\n      0x00\n        /* \"#utility.yul\":6872:6874   */\n      0x20\n        /* \"#utility.yul\":6861:6870   */\n      dup3\n        /* \"#utility.yul\":6857:6875   */\n      add\n        /* \"#utility.yul\":6849:6875   */\n      swap1\n      pop\n        /* \"#utility.yul\":6885:6950   */\n      tag_357\n        /* \"#utility.yul\":6947:6948   */\n      0x00\n        /* \"#utility.yul\":6936:6945   */\n      dup4\n        /* \"#utility.yul\":6932:6949   */\n      add\n        /* \"#utility.yul\":6923:6929   */\n      dup5\n        /* \"#utility.yul\":6885:6950   */\n      tag_244\n      jump\t// in\n    tag_357:\n        /* \"#utility.yul\":6747:6957   */\n      swap3\n      swap2\n      pop\n      pop\n      jump\t// out\n        /* \"#utility.yul\":6963:7023   */\n    tag_245:\n        /* \"#utility.yul\":6991:6994   */\n      0x00\n        /* \"#utility.yul\":7012:7017   */\n      dup2\n        /* \"#utility.yul\":7005:7017   */\n      swap1\n      pop\n        /* \"#utility.yul\":6963:7023   */\n      swap2\n      swap1\n      pop\n      jump\t// out\n        /* \"#utility.yul\":7029:7171   */\n    tag_246:\n        /* \"#utility.yul\":7079:7088   */\n      0x00\n        /* \"#utility.yul\":7112:7165   */\n      tag_360\n        /* \"#utility.yul\":7130:7164   */\n      tag_361\n        /* \"#utility.yul\":7139:7163   */\n      tag_362\n        /* \"#utility.yul\":7157:7162   */\n      dup5\n        /* \"#utility.yul\":7139:7163   */\n      tag_240\n      jump\t// in\n    tag_362:\n        /* \"#utility.yul\":7130:7164   */\n      tag_245\n      jump\t// in\n    tag_361:\n        /* \"#utility.yul\":7112:7165   */\n      tag_240\n      jump\t// in\n    tag_360:\n        /* \"#utility.yul\":7099:7165   */\n      swap1\n      pop\n        /* \"#utility.yul\":7029:7171   */\n      swap2\n      swap1\n      pop\n      jump\t// out\n        /* \"#utility.yul\":7177:7303   */\n    tag_247:\n        /* \"#utility.yul\":7227:7236   */\n      0x00\n        /* \"#utility.yul\":7260:7297   */\n      tag_364\n        /* \"#utility.yul\":7291:7296   */\n      dup3\n        /* \"#utility.yul\":7260:7297   */\n      tag_246\n      jump\t// in\n    tag_364:\n        /* \"#utility.yul\":7247:7297   */\n      swap1\n      pop\n        /* \"#utility.yul\":7177:7303   */\n      swap2\n      swap1\n      pop\n      jump\t// out\n        /* \"#utility.yul\":7309:7449   */\n    tag_248:\n        /* \"#utility.yul\":7373:7382   */\n      0x00\n        /* \"#utility.yul\":7406:7443   */\n      tag_366\n        /* \"#utility.yul\":7437:7442   */\n      dup3\n        /* \"#utility.yul\":7406:7443   */\n      tag_247\n      jump\t// in\n    tag_366:\n        /* \"#utility.yul\":7393:7443   */\n      swap1\n      pop\n        /* \"#utility.yul\":7309:7449   */\n      swap2\n      swap1\n      pop\n      jump\t// out\n        /* \"#utility.yul\":7455:7614   */\n    tag_249:\n        /* \"#utility.yul\":7556:7607   */\n      tag_368\n        /* \"#utility.yul\":7601:7606   */\n      dup2\n        /* \"#utility.yul\":7556:7607   */\n      tag_248\n      jump\t// in\n    tag_368:\n        /* \"#utility.yul\":7551:7554   */\n      dup3\n        /* \"#utility.yul\":7544:7608   */\n      mstore\n        /* \"#utility.yul\":7455:7614   */\n      pop\n      pop\n      jump\t// out\n        /* \"#utility.yul\":7620:7870   */\n    tag_69:\n        /* \"#utility.yul\":7727:7731   */\n      0x00\n        /* \"#utility.yul\":7765:7767   */\n      0x20\n        /* \"#utility.yul\":7754:7763   */\n      dup3\n        /* \"#utility.yul\":7750:7768   */\n      add\n        /* \"#utility.yul\":7742:7768   */\n      swap1\n      pop\n        /* \"#utility.yul\":7778:7863   */\n      tag_370\n        /* \"#utility.yul\":7860:7861   */\n      0x00\n        /* \"#utility.yul\":7849:7858   */\n      dup4\n        /* \"#utility.yul\":7845:7862   */\n      add\n        /* \"#utility.yul\":7836:7842   */\n      dup5\n        /* \"#utility.yul\":7778:7863   */\n      tag_249\n      jump\t// in\n    tag_370:\n        /* \"#utility.yul\":7620:7870   */\n      swap3\n      swap2\n      pop\n      pop\n      jump\t// out\n        /* \"#utility.yul\":7876:8024   */\n    tag_250:\n        /* \"#utility.yul\":7948:7957   */\n      0x00\n        /* \"#utility.yul\":7981:8018   */\n      tag_372\n        /* \"#utility.yul\":8012:8017   */\n      dup3\n        /* \"#utility.yul\":7981:8018   */\n      tag_247\n      jump\t// in\n    tag_372:\n        /* \"#utility.yul\":7968:8018   */\n      swap1\n      pop\n        /* \"#utility.yul\":7876:8024   */\n      swap2\n      swap1\n      pop\n      jump\t// out\n        /* \"#utility.yul\":8030:8205   */\n    tag_251:\n        /* \"#utility.yul\":8139:8198   */\n      tag_374\n        /* \"#utility.yul\":8192:8197   */\n      dup2\n        /* \"#utility.yul\":8139:8198   */\n      tag_250\n      jump\t// in\n    tag_374:\n        /* \"#utility.yul\":8134:8137   */\n      dup3\n        /* \"#utility.yul\":8127:8199   */\n      mstore\n        /* \"#utility.yul\":8030:8205   */\n      pop\n      pop\n      jump\t// out\n        /* \"#utility.yul\":8211:8477   */\n    tag_73:\n        /* \"#utility.yul\":8326:8330   */\n      0x00\n        /* \"#utility.yul\":8364:8366   */\n      0x20\n        /* \"#utility.yul\":8353:8362   */\n      dup3\n        /* \"#utility.yul\":8349:8367   */\n      add\n        /* \"#utility.yul\":8341:8367   */\n      swap1\n      pop\n        /* \"#utility.yul\":8377:8470   */\n      tag_376\n        /* \"#utility.yul\":8467:8468   */\n      0x00\n        /* \"#utility.yul\":8456:8465   */\n      dup4\n        /* \"#utility.yul\":8452:8469   */\n      add\n        /* \"#utility.yul\":8443:8449   */\n      dup5\n        /* \"#utility.yul\":8377:8470   */\n      tag_251\n      jump\t// in\n    tag_376:\n        /* \"#utility.yul\":8211:8477   */\n      swap3\n      swap2\n      pop\n      pop\n      jump\t// out\n        /* \"#utility.yul\":8483:8605   */\n    tag_252:\n        /* \"#utility.yul\":8556:8580   */\n      tag_378\n        /* \"#utility.yul\":8574:8579   */\n      dup2\n        /* \"#utility.yul\":8556:8580   */\n      tag_241\n      jump\t// in\n    tag_378:\n        /* \"#utility.yul\":8549:8554   */\n      dup2\n        /* \"#utility.yul\":8546:8581   */\n      eq\n        /* \"#utility.yul\":8536:8599   */\n      tag_379\n      jumpi\n        /* \"#utility.yul\":8595:8596   */\n      0x00\n        /* \"#utility.yul\":8592:8593   */\n      0x00\n        /* \"#utility.yul\":8585:8597   */\n      revert\n        /* \"#utility.yul\":8536:8599   */\n    tag_379:\n        /* \"#utility.yul\":8483:8605   */\n      pop\n      jump\t// out\n        /* \"#utility.yul\":8611:8750   */\n    tag_253:\n        /* \"#utility.yul\":8657:8662   */\n      0x00\n        /* \"#utility.yul\":8695:8701   */\n      dup2\n        /* \"#utility.yul\":8682:8702   */\n      calldataload\n        /* \"#utility.yul\":8673:8702   */\n      swap1\n      pop\n        /* \"#utility.yul\":8711:8744   */\n      tag_381\n        /* \"#utility.yul\":8738:8743   */\n      dup2\n        /* \"#utility.yul\":8711:8744   */\n      tag_252\n      jump\t// in\n    tag_381:\n        /* \"#utility.yul\":8611:8750   */\n      swap3\n      swap2\n      pop\n      pop\n      jump\t// out\n        /* \"#utility.yul\":8756:9085   */\n    tag_76:\n        /* \"#utility.yul\":8815:8821   */\n      0x00\n        /* \"#utility.yul\":8864:8866   */\n      0x20\n        /* \"#utility.yul\":8852:8861   */\n      dup3\n        /* \"#utility.yul\":8843:8850   */\n      dup5\n        /* \"#utility.yul\":8839:8862   */\n      sub\n        /* \"#utility.yul\":8835:8867   */\n      slt\n        /* \"#utility.yul\":8832:8951   */\n      iszero\n      tag_383\n      jumpi\n        /* \"#utility.yul\":8870:8949   */\n      tag_384\n      tag_225\n      jump\t// in\n    tag_384:\n        /* \"#utility.yul\":8832:8951   */\n    tag_383:\n        /* \"#utility.yul\":8990:8991   */\n      0x00\n        /* \"#utility.yul\":9015:9068   */\n      tag_385\n        /* \"#utility.yul\":9060:9067   */\n      dup5\n        /* \"#utility.yul\":9051:9057   */\n      dup3\n        /* \"#utility.yul\":9040:9049   */\n      dup6\n        /* \"#utility.yul\":9036:9058   */\n      add\n        /* \"#utility.yul\":9015:9068   */\n      tag_253\n      jump\t// in\n    tag_385:\n        /* \"#utility.yul\":9005:9068   */\n      swap2\n      pop\n        /* \"#utility.yul\":8961:9078   */\n      pop\n        /* \"#utility.yul\":8756:9085   */\n      swap3\n      swap2\n      pop\n      pop\n      jump\t// out\n        /* \"#utility.yul\":9091:9203   */\n    tag_254:\n        /* \"#utility.yul\":9174:9196   */\n      tag_387\n        /* \"#utility.yul\":9190:9195   */\n      dup2\n        /* \"#utility.yul\":9174:9196   */\n      tag_233\n      jump\t// in\n    tag_387:\n        /* \"#utility.yul\":9169:9172   */\n      dup3\n        /* \"#utility.yul\":9162:9197   */\n      mstore\n        /* \"#utility.yul\":9091:9203   */\n      pop\n      pop\n      jump\t// out\n        /* \"#utility.yul\":9209:9423   */\n    tag_82:\n        /* \"#utility.yul\":9298:9302   */\n      0x00\n        /* \"#utility.yul\":9336:9338   */\n      0x20\n        /* \"#utility.yul\":9325:9334   */\n      dup3\n        /* \"#utility.yul\":9321:9339   */\n      add\n        /* \"#utility.yul\":9313:9339   */\n      swap1\n      pop\n        /* \"#utility.yul\":9349:9416   */\n      tag_389\n        /* \"#utility.yul\":9413:9414   */\n      0x00\n        /* \"#utility.yul\":9402:9411   */\n      dup4\n        /* \"#utility.yul\":9398:9415   */\n      add\n        /* \"#utility.yul\":9389:9395   */\n      dup5\n        /* \"#utility.yul\":9349:9416   */\n      tag_254\n      jump\t// in\n    tag_389:\n        /* \"#utility.yul\":9209:9423   */\n      swap3\n      swap2\n      pop\n      pop\n      jump\t// out\n        /* \"#utility.yul\":9429:9546   */\n    tag_255:\n        /* \"#utility.yul\":9538:9539   */\n      0x00\n        /* \"#utility.yul\":9535:9536   */\n      0x00\n        /* \"#utility.yul\":9528:9540   */\n      revert\n        /* \"#utility.yul\":9552:9860   */\n    tag_256:\n        /* \"#utility.yul\":9614:9618   */\n      0x00\n        /* \"#utility.yul\":9704:9722   */\n      0xffffffffffffffff\n        /* \"#utility.yul\":9696:9702   */\n      dup3\n        /* \"#utility.yul\":9693:9723   */\n      gt\n        /* \"#utility.yul\":9690:9746   */\n      iszero\n      tag_392\n      jumpi\n        /* \"#utility.yul\":9726:9744   */\n      tag_393\n      tag_228\n      jump\t// in\n    tag_393:\n        /* \"#utility.yul\":9690:9746   */\n    tag_392:\n        /* \"#utility.yul\":9764:9793   */\n      tag_394\n        /* \"#utility.yul\":9786:9792   */\n      dup3\n        /* \"#utility.yul\":9764:9793   */\n      tag_222\n      jump\t// in\n    tag_394:\n        /* \"#utility.yul\":9756:9793   */\n      swap1\n      pop\n        /* \"#utility.yul\":9848:9852   */\n      0x20\n        /* \"#utility.yul\":9842:9846   */\n      dup2\n        /* \"#utility.yul\":9838:9853   */\n      add\n        /* \"#utility.yul\":9830:9853   */\n      swap1\n      pop\n        /* \"#utility.yul\":9552:9860   */\n      swap2\n      swap1\n      pop\n      jump\t// out\n        /* \"#utility.yul\":9866:10300   */\n    tag_257:\n        /* \"#utility.yul\":9955:9960   */\n      0x00\n        /* \"#utility.yul\":9980:10046   */\n      tag_396\n        /* \"#utility.yul\":9996:10045   */\n      tag_397\n        /* \"#utility.yul\":10038:10044   */\n      dup5\n        /* \"#utility.yul\":9996:10045   */\n      tag_256\n      jump\t// in\n    tag_397:\n        /* \"#utility.yul\":9980:10046   */\n      tag_230\n      jump\t// in\n    tag_396:\n        /* \"#utility.yul\":9971:10046   */\n      swap1\n      pop\n        /* \"#utility.yul\":10069:10075   */\n      dup3\n        /* \"#utility.yul\":10062:10067   */\n      dup2\n        /* \"#utility.yul\":10055:10076   */\n      mstore\n        /* \"#utility.yul\":10107:10111   */\n      0x20\n        /* \"#utility.yul\":10100:10105   */\n      dup2\n        /* \"#utility.yul\":10096:10112   */\n      add\n        /* \"#utility.yul\":10145:10148   */\n      dup5\n        /* \"#utility.yul\":10136:10142   */\n      dup5\n        /* \"#utility.yul\":10131:10134   */\n      dup5\n        /* \"#utility.yul\":10127:10143   */\n      add\n        /* \"#utility.yul\":10124:10149   */\n      gt\n        /* \"#utility.yul\":10121:10233   */\n      iszero\n      tag_398\n      jumpi\n        /* \"#utility.yul\":10152:10231   */\n      tag_399\n      tag_255\n      jump\t// in\n    tag_399:\n        /* \"#utility.yul\":10121:10233   */\n    tag_398:\n        /* \"#utility.yul\":10242:10294   */\n      tag_400\n        /* \"#utility.yul\":10287:10293   */\n      dup5\n        /* \"#utility.yul\":10282:10285   */\n      dup3\n        /* \"#utility.yul\":10277:10280   */\n      dup6\n        /* \"#utility.yul\":10242:10294   */\n      tag_221\n      jump\t// in\n    tag_400:\n        /* \"#utility.yul\":9961:10300   */\n      pop\n        /* \"#utility.yul\":9866:10300   */\n      swap4\n      swap3\n      pop\n      pop\n      pop\n      jump\t// out\n        /* \"#utility.yul\":10320:10675   */\n    tag_258:\n        /* \"#utility.yul\":10387:10392   */\n      0x00\n        /* \"#utility.yul\":10436:10439   */\n      dup3\n        /* \"#utility.yul\":10429:10433   */\n      0x1f\n        /* \"#utility.yul\":10421:10427   */\n      dup4\n        /* \"#utility.yul\":10417:10434   */\n      add\n        /* \"#utility.yul\":10413:10440   */\n      slt\n        /* \"#utility.yul\":10403:10525   */\n      tag_402\n      jumpi\n        /* \"#utility.yul\":10444:10523   */\n      tag_403\n      tag_227\n      jump\t// in\n    tag_403:\n        /* \"#utility.yul\":10403:10525   */\n    tag_402:\n        /* \"#utility.yul\":10554:10560   */\n      dup2\n        /* \"#utility.yul\":10548:10561   */\n      mload\n        /* \"#utility.yul\":10579:10669   */\n      tag_404\n        /* \"#utility.yul\":10665:10668   */\n      dup5\n        /* \"#utility.yul\":10657:10663   */\n      dup3\n        /* \"#utility.yul\":10650:10654   */\n      0x20\n        /* \"#utility.yul\":10642:10648   */\n      dup7\n        /* \"#utility.yul\":10638:10655   */\n      add\n        /* \"#utility.yul\":10579:10669   */\n      tag_257\n      jump\t// in\n    tag_404:\n        /* \"#utility.yul\":10570:10669   */\n      swap2\n      pop\n        /* \"#utility.yul\":10393:10675   */\n      pop\n        /* \"#utility.yul\":10320:10675   */\n      swap3\n      swap2\n      pop\n      pop\n      jump\t// out\n        /* \"#utility.yul\":10681:11205   */\n    tag_87:\n        /* \"#utility.yul\":10761:10767   */\n      0x00\n        /* \"#utility.yul\":10810:10812   */\n      0x20\n        /* \"#utility.yul\":10798:10807   */\n      dup3\n        /* \"#utility.yul\":10789:10796   */\n      dup5\n        /* \"#utility.yul\":10785:10808   */\n      sub\n        /* \"#utility.yul\":10781:10813   */\n      slt\n        /* \"#utility.yul\":10778:10897   */\n      iszero\n      tag_406\n      jumpi\n        /* \"#utility.yul\":10816:10895   */\n      tag_407\n      tag_225\n      jump\t// in\n    tag_407:\n        /* \"#utility.yul\":10778:10897   */\n    tag_406:\n        /* \"#utility.yul\":10957:10958   */\n      0x00\n        /* \"#utility.yul\":10946:10955   */\n      dup3\n        /* \"#utility.yul\":10942:10959   */\n      add\n        /* \"#utility.yul\":10936:10960   */\n      mload\n        /* \"#utility.yul\":10987:11005   */\n      0xffffffffffffffff\n        /* \"#utility.yul\":10979:10985   */\n      dup2\n        /* \"#utility.yul\":10976:11006   */\n      gt\n        /* \"#utility.yul\":10973:11090   */\n      iszero\n      tag_408\n      jumpi\n        /* \"#utility.yul\":11009:11088   */\n      tag_409\n      tag_226\n      jump\t// in\n    tag_409:\n        /* \"#utility.yul\":10973:11090   */\n    tag_408:\n        /* \"#utility.yul\":11114:11188   */\n      tag_410\n        /* \"#utility.yul\":11180:11187   */\n      dup5\n        /* \"#utility.yul\":11171:11177   */\n      dup3\n        /* \"#utility.yul\":11160:11169   */\n      dup6\n        /* \"#utility.yul\":11156:11178   */\n      add\n        /* \"#utility.yul\":11114:11188   */\n      tag_258\n      jump\t// in\n    tag_410:\n        /* \"#utility.yul\":11104:11188   */\n      swap2\n      pop\n        /* \"#utility.yul\":10907:11198   */\n      pop\n        /* \"#utility.yul\":10681:11205   */\n      swap3\n      swap2\n      pop\n      pop\n      jump\t// out\n        /* \"#utility.yul\":11211:11383   */\n    tag_259:\n        /* \"#utility.yul\":11351:11375   */\n      0x4e756d62657273206d75737420626520756e6971756500000000000000000000\n        /* \"#utility.yul\":11347:11348   */\n      0x00\n        /* \"#utility.yul\":11339:11345   */\n      dup3\n        /* \"#utility.yul\":11335:11349   */\n      add\n        /* \"#utility.yul\":11328:11376   */\n      mstore\n        /* \"#utility.yul\":11211:11383   */\n      pop\n      jump\t// out\n        /* \"#utility.yul\":11389:11755   */\n    tag_260:\n        /* \"#utility.yul\":11531:11534   */\n      0x00\n        /* \"#utility.yul\":11552:11619   */\n      tag_413\n        /* \"#utility.yul\":11616:11618   */\n      0x16\n        /* \"#utility.yul\":11611:11614   */\n      dup4\n        /* \"#utility.yul\":11552:11619   */\n      tag_220\n      jump\t// in\n    tag_413:\n        /* \"#utility.yul\":11545:11619   */\n      swap2\n      pop\n        /* \"#utility.yul\":11628:11721   */\n      tag_414\n        /* \"#utility.yul\":11717:11720   */\n      dup3\n        /* \"#utility.yul\":11628:11721   */\n      tag_259\n      jump\t// in\n    tag_414:\n        /* \"#utility.yul\":11746:11748   */\n      0x20\n        /* \"#utility.yul\":11741:11744   */\n      dup3\n        /* \"#utility.yul\":11737:11749   */\n      add\n        /* \"#utility.yul\":11730:11749   */\n      swap1\n      pop\n        /* \"#utility.yul\":11389:11755   */\n      swap2\n      swap1\n      pop\n      jump\t// out\n        /* \"#utility.yul\":11761:12180   */\n    tag_93:\n        /* \"#utility.yul\":11927:11931   */\n      0x00\n        /* \"#utility.yul\":11965:11967   */\n      0x20\n        /* \"#utility.yul\":11954:11963   */\n      dup3\n        /* \"#utility.yul\":11950:11968   */\n      add\n        /* \"#utility.yul\":11942:11968   */\n      swap1\n      pop\n        /* \"#utility.yul\":12014:12023   */\n      dup2\n        /* \"#utility.yul\":12008:12012   */\n      dup2\n        /* \"#utility.yul\":12004:12024   */\n      sub\n        /* \"#utility.yul\":12000:12001   */\n      0x00\n        /* \"#utility.yul\":11989:11998   */\n      dup4\n        /* \"#utility.yul\":11985:12002   */\n      add\n        /* \"#utility.yul\":11978:12025   */\n      mstore\n        /* \"#utility.yul\":12042:12173   */\n      tag_416\n        /* \"#utility.yul\":12168:12172   */\n      dup2\n        /* \"#utility.yul\":12042:12173   */\n      tag_260\n      jump\t// in\n    tag_416:\n        /* \"#utility.yul\":12034:12173   */\n      swap1\n      pop\n        /* \"#utility.yul\":11761:12180   */\n      swap2\n      swap1\n      pop\n      jump\t// out\n        /* \"#utility.yul\":12186:12628   */\n    tag_95:\n        /* \"#utility.yul\":12335:12339   */\n      0x00\n        /* \"#utility.yul\":12373:12375   */\n      0x60\n        /* \"#utility.yul\":12362:12371   */\n      dup3\n        /* \"#utility.yul\":12358:12376   */\n      add\n        /* \"#utility.yul\":12350:12376   */\n      swap1\n      pop\n        /* \"#utility.yul\":12386:12457   */\n      tag_418\n        /* \"#utility.yul\":12454:12455   */\n      0x00\n        /* \"#utility.yul\":12443:12452   */\n      dup4\n        /* \"#utility.yul\":12439:12456   */\n      add\n        /* \"#utility.yul\":12430:12436   */\n      dup7\n        /* \"#utility.yul\":12386:12457   */\n      tag_242\n      jump\t// in\n    tag_418:\n        /* \"#utility.yul\":12467:12539   */\n      tag_419\n        /* \"#utility.yul\":12535:12537   */\n      0x20\n        /* \"#utility.yul\":12524:12533   */\n      dup4\n        /* \"#utility.yul\":12520:12538   */\n      add\n        /* \"#utility.yul\":12511:12517   */\n      dup6\n        /* \"#utility.yul\":12467:12539   */\n      tag_242\n      jump\t// in\n    tag_419:\n        /* \"#utility.yul\":12549:12621   */\n      tag_420\n        /* \"#utility.yul\":12617:12619   */\n      0x40\n        /* \"#utility.yul\":12606:12615   */\n      dup4\n        /* \"#utility.yul\":12602:12620   */\n      add\n        /* \"#utility.yul\":12593:12599   */\n      dup5\n        /* \"#utility.yul\":12549:12621   */\n      tag_218\n      jump\t// in\n    tag_420:\n        /* \"#utility.yul\":12186:12628   */\n      swap5\n      swap4\n      pop\n      pop\n      pop\n      pop\n      jump\t// out\n        /* \"#utility.yul\":12634:12750   */\n    tag_261:\n        /* \"#utility.yul\":12704:12725   */\n      tag_422\n        /* \"#utility.yul\":12719:12724   */\n      dup2\n        /* \"#utility.yul\":12704:12725   */\n      tag_243\n      jump\t// in\n    tag_422:\n        /* \"#utility.yul\":12697:12702   */\n      dup2\n        /* \"#utility.yul\":12694:12726   */\n      eq\n        /* \"#utility.yul\":12684:12744   */\n      tag_423\n      jumpi\n        /* \"#utility.yul\":12740:12741   */\n      0x00\n        /* \"#utility.yul\":12737:12738   */\n      0x00\n        /* \"#utility.yul\":12730:12742   */\n      revert\n        /* \"#utility.yul\":12684:12744   */\n    tag_423:\n        /* \"#utility.yul\":12634:12750   */\n      pop\n      jump\t// out\n        /* \"#utility.yul\":12756:12893   */\n    tag_262:\n        /* \"#utility.yul\":12810:12815   */\n      0x00\n        /* \"#utility.yul\":12841:12847   */\n      dup2\n        /* \"#utility.yul\":12835:12848   */\n      mload\n        /* \"#utility.yul\":12826:12848   */\n      swap1\n      pop\n        /* \"#utility.yul\":12857:12887   */\n      tag_425\n        /* \"#utility.yul\":12881:12886   */\n      dup2\n        /* \"#utility.yul\":12857:12887   */\n      tag_261\n      jump\t// in\n    tag_425:\n        /* \"#utility.yul\":12756:12893   */\n      swap3\n      swap2\n      pop\n      pop\n      jump\t// out\n        /* \"#utility.yul\":12899:13244   */\n    tag_99:\n        /* \"#utility.yul\":12966:12972   */\n      0x00\n        /* \"#utility.yul\":13015:13017   */\n      0x20\n        /* \"#utility.yul\":13003:13012   */\n      dup3\n        /* \"#utility.yul\":12994:13001   */\n      dup5\n        /* \"#utility.yul\":12990:13013   */\n      sub\n        /* \"#utility.yul\":12986:13018   */\n      slt\n        /* \"#utility.yul\":12983:13102   */\n      iszero\n      tag_427\n      jumpi\n        /* \"#utility.yul\":13021:13100   */\n      tag_428\n      tag_225\n      jump\t// in\n    tag_428:\n        /* \"#utility.yul\":12983:13102   */\n    tag_427:\n        /* \"#utility.yul\":13141:13142   */\n      0x00\n        /* \"#utility.yul\":13166:13227   */\n      tag_429\n        /* \"#utility.yul\":13219:13226   */\n      dup5\n        /* \"#utility.yul\":13210:13216   */\n      dup3\n        /* \"#utility.yul\":13199:13208   */\n      dup6\n        /* \"#utility.yul\":13195:13217   */\n      add\n        /* \"#utility.yul\":13166:13227   */\n      tag_262\n      jump\t// in\n    tag_429:\n        /* \"#utility.yul\":13156:13227   */\n      swap2\n      pop\n        /* \"#utility.yul\":13112:13237   */\n      pop\n        /* \"#utility.yul\":12899:13244   */\n      swap3\n      swap2\n      pop\n      pop\n      jump\t// out\n        /* \"#utility.yul\":13250:13414   */\n    tag_263:\n        /* \"#utility.yul\":13390:13406   */\n      0x5061796d656e74206661696c6564000000000000000000000000000000000000\n        /* \"#utility.yul\":13386:13387   */\n      0x00\n        /* \"#utility.yul\":13378:13384   */\n      dup3\n        /* \"#utility.yul\":13374:13388   */\n      add\n        /* \"#utility.yul\":13367:13407   */\n      mstore\n        /* \"#utility.yul\":13250:13414   */\n      pop\n      jump\t// out\n        /* \"#utility.yul\":13420:13786   */\n    tag_264:\n        /* \"#utility.yul\":13562:13565   */\n      0x00\n        /* \"#utility.yul\":13583:13650   */\n      tag_432\n        /* \"#utility.yul\":13647:13649   */\n      0x0e\n        /* \"#utility.yul\":13642:13645   */\n      dup4\n        /* \"#utility.yul\":13583:13650   */\n      tag_220\n      jump\t// in\n    tag_432:\n        /* \"#utility.yul\":13576:13650   */\n      swap2\n      pop\n        /* \"#utility.yul\":13659:13752   */\n      tag_433\n        /* \"#utility.yul\":13748:13751   */\n      dup3\n        /* \"#utility.yul\":13659:13752   */\n      tag_263\n      jump\t// in\n    tag_433:\n        /* \"#utility.yul\":13777:13779   */\n      0x20\n        /* \"#utility.yul\":13772:13775   */\n      dup3\n        /* \"#utility.yul\":13768:13780   */\n      add\n        /* \"#utility.yul\":13761:13780   */\n      swap1\n      pop\n        /* \"#utility.yul\":13420:13786   */\n      swap2\n      swap1\n      pop\n      jump\t// out\n        /* \"#utility.yul\":13792:14211   */\n    tag_102:\n        /* \"#utility.yul\":13958:13962   */\n      0x00\n        /* \"#utility.yul\":13996:13998   */\n      0x20\n        /* \"#utility.yul\":13985:13994   */\n      dup3\n        /* \"#utility.yul\":13981:13999   */\n      add\n        /* \"#utility.yul\":13973:13999   */\n      swap1\n      pop\n        /* \"#utility.yul\":14045:14054   */\n      dup2\n        /* \"#utility.yul\":14039:14043   */\n      dup2\n        /* \"#utility.yul\":14035:14055   */\n      sub\n        /* \"#utility.yul\":14031:14032   */\n      0x00\n        /* \"#utility.yul\":14020:14029   */\n      dup4\n        /* \"#utility.yul\":14016:14033   */\n      add\n        /* \"#utility.yul\":14009:14056   */\n      mstore\n        /* \"#utility.yul\":14073:14204   */\n      tag_435\n        /* \"#utility.yul\":14199:14203   */\n      dup2\n        /* \"#utility.yul\":14073:14204   */\n      tag_264\n      jump\t// in\n    tag_435:\n        /* \"#utility.yul\":14065:14204   */\n      swap1\n      pop\n        /* \"#utility.yul\":13792:14211   */\n      swap2\n      swap1\n      pop\n      jump\t// out\n        /* \"#utility.yul\":14217:14380   */\n    tag_265:\n        /* \"#utility.yul\":14357:14372   */\n      0x416c726561647920647261776e00000000000000000000000000000000000000\n        /* \"#utility.yul\":14353:14354   */\n      0x00\n        /* \"#utility.yul\":14345:14351   */\n      dup3\n        /* \"#utility.yul\":14341:14355   */\n      add\n        /* \"#utility.yul\":14334:14373   */\n      mstore\n        /* \"#utility.yul\":14217:14380   */\n      pop\n      jump\t// out\n        /* \"#utility.yul\":14386:14752   */\n    tag_266:\n        /* \"#utility.yul\":14528:14531   */\n      0x00\n        /* \"#utility.yul\":14549:14616   */\n      tag_438\n        /* \"#utility.yul\":14613:14615   */\n      0x0d\n        /* \"#utility.yul\":14608:14611   */\n      dup4\n        /* \"#utility.yul\":14549:14616   */\n      tag_220\n      jump\t// in\n    tag_438:\n        /* \"#utility.yul\":14542:14616   */\n      swap2\n      pop\n        /* \"#utility.yul\":14625:14718   */\n      tag_439\n        /* \"#utility.yul\":14714:14717   */\n      dup3\n        /* \"#utility.yul\":14625:14718   */\n      tag_265\n      jump\t// in\n    tag_439:\n        /* \"#utility.yul\":14743:14745   */\n      0x20\n        /* \"#utility.yul\":14738:14741   */\n      dup3\n        /* \"#utility.yul\":14734:14746   */\n      add\n        /* \"#utility.yul\":14727:14746   */\n      swap1\n      pop\n        /* \"#utility.yul\":14386:14752   */\n      swap2\n      swap1\n      pop\n      jump\t// out\n        /* \"#utility.yul\":14758:15177   */\n    tag_120:\n        /* \"#utility.yul\":14924:14928   */\n      0x00\n        /* \"#utility.yul\":14962:14964   */\n      0x20\n        /* \"#utility.yul\":14951:14960   */\n      dup3\n        /* \"#utility.yul\":14947:14965   */\n      add\n        /* \"#utility.yul\":14939:14965   */\n      swap1\n      pop\n        /* \"#utility.yul\":15011:15020   */\n      dup2\n        /* \"#utility.yul\":15005:15009   */\n      dup2\n        /* \"#utility.yul\":15001:15021   */\n      sub\n        /* \"#utility.yul\":14997:14998   */\n      0x00\n        /* \"#utility.yul\":14986:14995   */\n      dup4\n        /* \"#utility.yul\":14982:14999   */\n      add\n        /* \"#utility.yul\":14975:15022   */\n      mstore\n        /* \"#utility.yul\":15039:15170   */\n      tag_441\n        /* \"#utility.yul\":15165:15169   */\n      dup2\n        /* \"#utility.yul\":15039:15170   */\n      tag_266\n      jump\t// in\n    tag_441:\n        /* \"#utility.yul\":15031:15170   */\n      swap1\n      pop\n        /* \"#utility.yul\":14758:15177   */\n      swap2\n      swap1\n      pop\n      jump\t// out\n        /* \"#utility.yul\":15183:15363   */\n    tag_267:\n        /* \"#utility.yul\":15231:15308   */\n      0x4e487b7100000000000000000000000000000000000000000000000000000000\n        /* \"#utility.yul\":15228:15229   */\n      0x00\n        /* \"#utility.yul\":15221:15309   */\n      mstore\n        /* \"#utility.yul\":15328:15332   */\n      0x11\n        /* \"#utility.yul\":15325:15326   */\n      0x04\n        /* \"#utility.yul\":15318:15333   */\n      mstore\n        /* \"#utility.yul\":15352:15356   */\n      0x24\n        /* \"#utility.yul\":15349:15350   */\n      0x00\n        /* \"#utility.yul\":15342:15357   */\n      revert\n        /* \"#utility.yul\":15369:15560   */\n    tag_122:\n        /* \"#utility.yul\":15409:15412   */\n      0x00\n        /* \"#utility.yul\":15428:15448   */\n      tag_444\n        /* \"#utility.yul\":15446:15447   */\n      dup3\n        /* \"#utility.yul\":15428:15448   */\n      tag_217\n      jump\t// in\n    tag_444:\n        /* \"#utility.yul\":15423:15448   */\n      swap2\n      pop\n        /* \"#utility.yul\":15462:15482   */\n      tag_445\n        /* \"#utility.yul\":15480:15481   */\n      dup4\n        /* \"#utility.yul\":15462:15482   */\n      tag_217\n      jump\t// in\n    tag_445:\n        /* \"#utility.yul\":15457:15482   */\n      swap3\n      pop\n        /* \"#utility.yul\":15505:15506   */\n      dup3\n        /* \"#utility.yul\":15502:15503   */\n      dup3\n        /* \"#utility.yul\":15498:15507   */\n      add\n        /* \"#utility.yul\":15491:15507   */\n      swap1\n      pop\n        /* \"#utility.yul\":15526:15529   */\n      dup1\n        /* \"#utility.yul\":15523:15524   */\n      dup3\n        /* \"#utility.yul\":15520:15530   */\n      gt\n        /* \"#utility.yul\":15517:15553   */\n      iszero\n      tag_446\n      jumpi\n        /* \"#utility.yul\":15533:15551   */\n      tag_447\n      tag_267\n      jump\t// in\n    tag_447:\n        /* \"#utility.yul\":15517:15553   */\n    tag_446:\n        /* \"#utility.yul\":15369:15560   */\n      swap3\n      swap2\n      pop\n      pop\n      jump\t// out\n        /* \"#utility.yul\":15566:15725   */\n    tag_268:\n        /* \"#utility.yul\":15706:15717   */\n      0x546f6f206561726c790000000000000000000000000000000000000000000000\n        /* \"#utility.yul\":15702:15703   */\n      0x00\n        /* \"#utility.yul\":15694:15700   */\n      dup3\n        /* \"#utility.yul\":15690:15704   */\n      add\n        /* \"#utility.yul\":15683:15718   */\n      mstore\n        /* \"#utility.yul\":15566:15725   */\n      pop\n      jump\t// out\n        /* \"#utility.yul\":15731:16096   */\n    tag_269:\n        /* \"#utility.yul\":15873:15876   */\n      0x00\n        /* \"#utility.yul\":15894:15960   */\n      tag_450\n        /* \"#utility.yul\":15958:15959   */\n      0x09\n        /* \"#utility.yul\":15953:15956   */\n      dup4\n        /* \"#utility.yul\":15894:15960   */\n      tag_220\n      jump\t// in\n    tag_450:\n        /* \"#utility.yul\":15887:15960   */\n      swap2\n      pop\n        /* \"#utility.yul\":15969:16062   */\n      tag_451\n        /* \"#utility.yul\":16058:16061   */\n      dup3\n        /* \"#utility.yul\":15969:16062   */\n      tag_268\n      jump\t// in\n    tag_451:\n        /* \"#utility.yul\":16087:16089   */\n      0x20\n        /* \"#utility.yul\":16082:16085   */\n      dup3\n        /* \"#utility.yul\":16078:16090   */\n      add\n        /* \"#utility.yul\":16071:16090   */\n      swap1\n      pop\n        /* \"#utility.yul\":15731:16096   */\n      swap2\n      swap1\n      pop\n      jump\t// out\n        /* \"#utility.yul\":16102:16521   */\n    tag_125:\n        /* \"#utility.yul\":16268:16272   */\n      0x00\n        /* \"#utility.yul\":16306:16308   */\n      0x20\n        /* \"#utility.yul\":16295:16304   */\n      dup3\n        /* \"#utility.yul\":16291:16309   */\n      add\n        /* \"#utility.yul\":16283:16309   */\n      swap1\n      pop\n        /* \"#utility.yul\":16355:16364   */\n      dup2\n        /* \"#utility.yul\":16349:16353   */\n      dup2\n        /* \"#utility.yul\":16345:16365   */\n      sub\n        /* \"#utility.yul\":16341:16342   */\n      0x00\n        /* \"#utility.yul\":16330:16339   */\n      dup4\n        /* \"#utility.yul\":16326:16343   */\n      add\n        /* \"#utility.yul\":16319:16366   */\n      mstore\n        /* \"#utility.yul\":16383:16514   */\n      tag_453\n        /* \"#utility.yul\":16509:16513   */\n      dup2\n        /* \"#utility.yul\":16383:16514   */\n      tag_269\n      jump\t// in\n    tag_453:\n        /* \"#utility.yul\":16375:16514   */\n      swap1\n      pop\n        /* \"#utility.yul\":16102:16521   */\n      swap2\n      swap1\n      pop\n      jump\t// out\n        /* \"#utility.yul\":16527:16707   */\n    tag_270:\n        /* \"#utility.yul\":16667:16699   */\n      0x57696e6e696e67206e756d62657273206d75737420626520756e697175650000\n        /* \"#utility.yul\":16663:16664   */\n      0x00\n        /* \"#utility.yul\":16655:16661   */\n      dup3\n        /* \"#utility.yul\":16651:16665   */\n      add\n        /* \"#utility.yul\":16644:16700   */\n      mstore\n        /* \"#utility.yul\":16527:16707   */\n      pop\n      jump\t// out\n        /* \"#utility.yul\":16713:17079   */\n    tag_271:\n        /* \"#utility.yul\":16855:16858   */\n      0x00\n        /* \"#utility.yul\":16876:16943   */\n      tag_456\n        /* \"#utility.yul\":16940:16942   */\n      0x1e\n        /* \"#utility.yul\":16935:16938   */\n      dup4\n        /* \"#utility.yul\":16876:16943   */\n      tag_220\n      jump\t// in\n    tag_456:\n        /* \"#utility.yul\":16869:16943   */\n      swap2\n      pop\n        /* \"#utility.yul\":16952:17045   */\n      tag_457\n        /* \"#utility.yul\":17041:17044   */\n      dup3\n        /* \"#utility.yul\":16952:17045   */\n      tag_270\n      jump\t// in\n    tag_457:\n        /* \"#utility.yul\":17070:17072   */\n      0x20\n        /* \"#utility.yul\":17065:17068   */\n      dup3\n        /* \"#utility.yul\":17061:17073   */\n      add\n        /* \"#utility.yul\":17054:17073   */\n      swap1\n      pop\n        /* \"#utility.yul\":16713:17079   */\n      swap2\n      swap1\n      pop\n      jump\t// out\n        /* \"#utility.yul\":17085:17504   */\n    tag_129:\n        /* \"#utility.yul\":17251:17255   */\n      0x00\n        /* \"#utility.yul\":17289:17291   */\n      0x20\n        /* \"#utility.yul\":17278:17287   */\n      dup3\n        /* \"#utility.yul\":17274:17292   */\n      add\n        /* \"#utility.yul\":17266:17292   */\n      swap1\n      pop\n        /* \"#utility.yul\":17338:17347   */\n      dup2\n        /* \"#utility.yul\":17332:17336   */\n      dup2\n        /* \"#utility.yul\":17328:17348   */\n      sub\n        /* \"#utility.yul\":17324:17325   */\n      0x00\n        /* \"#utility.yul\":17313:17322   */\n      dup4\n        /* \"#utility.yul\":17309:17326   */\n      add\n        /* \"#utility.yul\":17302:17349   */\n      mstore\n        /* \"#utility.yul\":17366:17497   */\n      tag_459\n        /* \"#utility.yul\":17492:17496   */\n      dup2\n        /* \"#utility.yul\":17366:17497   */\n      tag_271\n      jump\t// in\n    tag_459:\n        /* \"#utility.yul\":17358:17497   */\n      swap1\n      pop\n        /* \"#utility.yul\":17085:17504   */\n      swap2\n      swap1\n      pop\n      jump\t// out\n        /* \"#utility.yul\":17510:17685   */\n    tag_272:\n        /* \"#utility.yul\":17650:17677   */\n      0x57696e6e696e67206e756d62657273206e6f7420647261776e00000000000000\n        /* \"#utility.yul\":17646:17647   */\n      0x00\n        /* \"#utility.yul\":17638:17644   */\n      dup3\n        /* \"#utility.yul\":17634:17648   */\n      add\n        /* \"#utility.yul\":17627:17678   */\n      mstore\n        /* \"#utility.yul\":17510:17685   */\n      pop\n      jump\t// out\n        /* \"#utility.yul\":17691:18057   */\n    tag_273:\n        /* \"#utility.yul\":17833:17836   */\n      0x00\n        /* \"#utility.yul\":17854:17921   */\n      tag_462\n        /* \"#utility.yul\":17918:17920   */\n      0x19\n        /* \"#utility.yul\":17913:17916   */\n      dup4\n        /* \"#utility.yul\":17854:17921   */\n      tag_220\n      jump\t// in\n    tag_462:\n        /* \"#utility.yul\":17847:17921   */\n      swap2\n      pop\n        /* \"#utility.yul\":17930:18023   */\n      tag_463\n        /* \"#utility.yul\":18019:18022   */\n      dup3\n        /* \"#utility.yul\":17930:18023   */\n      tag_272\n      jump\t// in\n    tag_463:\n        /* \"#utility.yul\":18048:18050   */\n      0x20\n        /* \"#utility.yul\":18043:18046   */\n      dup3\n        /* \"#utility.yul\":18039:18051   */\n      add\n        /* \"#utility.yul\":18032:18051   */\n      swap1\n      pop\n        /* \"#utility.yul\":17691:18057   */\n      swap2\n      swap1\n      pop\n      jump\t// out\n        /* \"#utility.yul\":18063:18482   */\n    tag_135:\n        /* \"#utility.yul\":18229:18233   */\n      0x00\n        /* \"#utility.yul\":18267:18269   */\n      0x20\n        /* \"#utility.yul\":18256:18265   */\n      dup3\n        /* \"#utility.yul\":18252:18270   */\n      add\n        /* \"#utility.yul\":18244:18270   */\n      swap1\n      pop\n        /* \"#utility.yul\":18316:18325   */\n      dup2\n        /* \"#utility.yul\":18310:18314   */\n      dup2\n        /* \"#utility.yul\":18306:18326   */\n      sub\n        /* \"#utility.yul\":18302:18303   */\n      0x00\n        /* \"#utility.yul\":18291:18300   */\n      dup4\n        /* \"#utility.yul\":18287:18304   */\n      add\n        /* \"#utility.yul\":18280:18327   */\n      mstore\n        /* \"#utility.yul\":18344:18475   */\n      tag_465\n        /* \"#utility.yul\":18470:18474   */\n      dup2\n        /* \"#utility.yul\":18344:18475   */\n      tag_273\n      jump\t// in\n    tag_465:\n        /* \"#utility.yul\":18336:18475   */\n      swap1\n      pop\n        /* \"#utility.yul\":18063:18482   */\n      swap2\n      swap1\n      pop\n      jump\t// out\n        /* \"#utility.yul\":18488:18668   */\n    tag_148:\n        /* \"#utility.yul\":18536:18613   */\n      0x4e487b7100000000000000000000000000000000000000000000000000000000\n        /* \"#utility.yul\":18533:18534   */\n      0x00\n        /* \"#utility.yul\":18526:18614   */\n      mstore\n        /* \"#utility.yul\":18633:18637   */\n      0x32\n        /* \"#utility.yul\":18630:18631   */\n      0x04\n        /* \"#utility.yul\":18623:18638   */\n      mstore\n        /* \"#utility.yul\":18657:18661   */\n      0x24\n        /* \"#utility.yul\":18654:18655   */\n      0x00\n        /* \"#utility.yul\":18647:18662   */\n      revert\n        /* \"#utility.yul\":18674:19084   */\n    tag_156:\n        /* \"#utility.yul\":18714:18721   */\n      0x00\n        /* \"#utility.yul\":18737:18757   */\n      tag_468\n        /* \"#utility.yul\":18755:18756   */\n      dup3\n        /* \"#utility.yul\":18737:18757   */\n      tag_217\n      jump\t// in\n    tag_468:\n        /* \"#utility.yul\":18732:18757   */\n      swap2\n      pop\n        /* \"#utility.yul\":18771:18791   */\n      tag_469\n        /* \"#utility.yul\":18789:18790   */\n      dup4\n        /* \"#utility.yul\":18771:18791   */\n      tag_217\n      jump\t// in\n    tag_469:\n        /* \"#utility.yul\":18766:18791   */\n      swap3\n      pop\n        /* \"#utility.yul\":18826:18827   */\n      dup3\n        /* \"#utility.yul\":18823:18824   */\n      dup3\n        /* \"#utility.yul\":18819:18828   */\n      mul\n        /* \"#utility.yul\":18848:18878   */\n      tag_470\n        /* \"#utility.yul\":18866:18877   */\n      dup2\n        /* \"#utility.yul\":18848:18878   */\n      tag_217\n      jump\t// in\n    tag_470:\n        /* \"#utility.yul\":18837:18878   */\n      swap2\n      pop\n        /* \"#utility.yul\":19027:19028   */\n      dup3\n        /* \"#utility.yul\":19018:19025   */\n      dup3\n        /* \"#utility.yul\":19014:19029   */\n      div\n        /* \"#utility.yul\":19011:19012   */\n      dup5\n        /* \"#utility.yul\":19008:19030   */\n      eq\n        /* \"#utility.yul\":18988:18989   */\n      dup4\n        /* \"#utility.yul\":18981:18990   */\n      iszero\n        /* \"#utility.yul\":18961:19044   */\n      or\n        /* \"#utility.yul\":18938:19077   */\n      tag_471\n      jumpi\n        /* \"#utility.yul\":19057:19075   */\n      tag_472\n      tag_267\n      jump\t// in\n    tag_472:\n        /* \"#utility.yul\":18938:19077   */\n    tag_471:\n        /* \"#utility.yul\":18722:19084   */\n      pop\n        /* \"#utility.yul\":18674:19084   */\n      swap3\n      swap2\n      pop\n      pop\n      jump\t// out\n        /* \"#utility.yul\":19090:19422   */\n    tag_158:\n        /* \"#utility.yul\":19211:19215   */\n      0x00\n        /* \"#utility.yul\":19249:19251   */\n      0x40\n        /* \"#utility.yul\":19238:19247   */\n      dup3\n        /* \"#utility.yul\":19234:19252   */\n      add\n        /* \"#utility.yul\":19226:19252   */\n      swap1\n      pop\n        /* \"#utility.yul\":19262:19333   */\n      tag_474\n        /* \"#utility.yul\":19330:19331   */\n      0x00\n        /* \"#utility.yul\":19319:19328   */\n      dup4\n        /* \"#utility.yul\":19315:19332   */\n      add\n        /* \"#utility.yul\":19306:19312   */\n      dup6\n        /* \"#utility.yul\":19262:19333   */\n      tag_242\n      jump\t// in\n    tag_474:\n        /* \"#utility.yul\":19343:19415   */\n      tag_475\n        /* \"#utility.yul\":19411:19413   */\n      0x20\n        /* \"#utility.yul\":19400:19409   */\n      dup4\n        /* \"#utility.yul\":19396:19414   */\n      add\n        /* \"#utility.yul\":19387:19393   */\n      dup5\n        /* \"#utility.yul\":19343:19415   */\n      tag_218\n      jump\t// in\n    tag_475:\n        /* \"#utility.yul\":19090:19422   */\n      swap4\n      swap3\n      pop\n      pop\n      pop\n      jump\t// out\n        /* \"#utility.yul\":19428:19600   */\n    tag_274:\n        /* \"#utility.yul\":19568:19592   */\n      0x526577617264207472616e73666572206661696c656400000000000000000000\n        /* \"#utility.yul\":19564:19565   */\n      0x00\n        /* \"#utility.yul\":19556:19562   */\n      dup3\n        /* \"#utility.yul\":19552:19566   */\n      add\n        /* \"#utility.yul\":19545:19593   */\n      mstore\n        /* \"#utility.yul\":19428:19600   */\n      pop\n      jump\t// out\n        /* \"#utility.yul\":19606:19972   */\n    tag_275:\n        /* \"#utility.yul\":19748:19751   */\n      0x00\n        /* \"#utility.yul\":19769:19836   */\n      tag_478\n        /* \"#utility.yul\":19833:19835   */\n      0x16\n        /* \"#utility.yul\":19828:19831   */\n      dup4\n        /* \"#utility.yul\":19769:19836   */\n      tag_220\n      jump\t// in\n    tag_478:\n        /* \"#utility.yul\":19762:19836   */\n      swap2\n      pop\n        /* \"#utility.yul\":19845:19938   */\n      tag_479\n        /* \"#utility.yul\":19934:19937   */\n      dup3\n        /* \"#utility.yul\":19845:19938   */\n      tag_274\n      jump\t// in\n    tag_479:\n        /* \"#utility.yul\":19963:19965   */\n      0x20\n        /* \"#utility.yul\":19958:19961   */\n      dup3\n        /* \"#utility.yul\":19954:19966   */\n      add\n        /* \"#utility.yul\":19947:19966   */\n      swap1\n      pop\n        /* \"#utility.yul\":19606:19972   */\n      swap2\n      swap1\n      pop\n      jump\t// out\n        /* \"#utility.yul\":19978:20397   */\n    tag_164:\n        /* \"#utility.yul\":20144:20148   */\n      0x00\n        /* \"#utility.yul\":20182:20184   */\n      0x20\n        /* \"#utility.yul\":20171:20180   */\n      dup3\n        /* \"#utility.yul\":20167:20185   */\n      add\n        /* \"#utility.yul\":20159:20185   */\n      swap1\n      pop\n        /* \"#utility.yul\":20231:20240   */\n      dup2\n        /* \"#utility.yul\":20225:20229   */\n      dup2\n        /* \"#utility.yul\":20221:20241   */\n      sub\n        /* \"#utility.yul\":20217:20218   */\n      0x00\n        /* \"#utility.yul\":20206:20215   */\n      dup4\n        /* \"#utility.yul\":20202:20219   */\n      add\n        /* \"#utility.yul\":20195:20242   */\n      mstore\n        /* \"#utility.yul\":20259:20390   */\n      tag_481\n        /* \"#utility.yul\":20385:20389   */\n      dup2\n        /* \"#utility.yul\":20259:20390   */\n      tag_275\n      jump\t// in\n    tag_481:\n        /* \"#utility.yul\":20251:20390   */\n      swap1\n      pop\n        /* \"#utility.yul\":19978:20397   */\n      swap2\n      swap1\n      pop\n      jump\t// out\n        /* \"#utility.yul\":20403:20591   */\n    tag_181:\n        /* \"#utility.yul\":20441:20444   */\n      0x00\n        /* \"#utility.yul\":20460:20478   */\n      tag_483\n        /* \"#utility.yul\":20476:20477   */\n      dup3\n        /* \"#utility.yul\":20460:20478   */\n      tag_233\n      jump\t// in\n    tag_483:\n        /* \"#utility.yul\":20455:20478   */\n      swap2\n      pop\n        /* \"#utility.yul\":20492:20510   */\n      tag_484\n        /* \"#utility.yul\":20508:20509   */\n      dup4\n        /* \"#utility.yul\":20492:20510   */\n      tag_233\n      jump\t// in\n    tag_484:\n        /* \"#utility.yul\":20487:20510   */\n      swap3\n      pop\n        /* \"#utility.yul\":20533:20534   */\n      dup3\n        /* \"#utility.yul\":20530:20531   */\n      dup3\n        /* \"#utility.yul\":20526:20535   */\n      add\n        /* \"#utility.yul\":20519:20535   */\n      swap1\n      pop\n        /* \"#utility.yul\":20556:20560   */\n      0xff\n        /* \"#utility.yul\":20551:20554   */\n      dup2\n        /* \"#utility.yul\":20548:20561   */\n      gt\n        /* \"#utility.yul\":20545:20584   */\n      iszero\n      tag_485\n      jumpi\n        /* \"#utility.yul\":20564:20582   */\n      tag_486\n      tag_267\n      jump\t// in\n    tag_486:\n        /* \"#utility.yul\":20545:20584   */\n    tag_485:\n        /* \"#utility.yul\":20403:20591   */\n      swap3\n      swap2\n      pop\n      pop\n      jump\t// out\n\n    auxdata: 0xa2646970667358221220e32e4f29109b31287a08a9043c1d0de50a2d2a4191f45562ceff7ed1115b70ab64736f6c634300081e0033\n}\n",
				"bytecode": {
					"linkReferences": {},
					"object": "608060405273742d35cc6634c0532925a3b844bc454e4438f44e60075f6101000a81548173ffffffffffffffffffffffffffffffffffffffff021916908373ffffffffffffffffffffffffffffffffffffffff160217905550348015610063575f5ffd5b50604051611dd8380380611dd88339818101604052810190610085919061030b565b335f73ffffffffffffffffffffffffffffffffffffffff168173ffffffffffffffffffffffffffffffffffffffff16036100f6575f6040517f1e4fbdf70000000000000000000000000000000000000000000000000000000081526004016100ed919061036a565b60405180910390fd5b610105816101b960201b60201c565b508260015f6101000a81548173ffffffffffffffffffffffffffffffffffffffff021916908373ffffffffffffffffffffffffffffffffffffffff1602179055508260045f6101000a81548173ffffffffffffffffffffffffffffffffffffffff021916908373ffffffffffffffffffffffffffffffffffffffff16021790555081600281905550620151808161019c91906103b0565b6003819055504260068190555060016005819055505050506103f1565b5f5f5f9054906101000a900473ffffffffffffffffffffffffffffffffffffffff169050815f5f6101000a81548173ffffffffffffffffffffffffffffffffffffffff021916908373ffffffffffffffffffffffffffffffffffffffff1602179055508173ffffffffffffffffffffffffffffffffffffffff168173ffffffffffffffffffffffffffffffffffffffff167f8be0079c531659141344cd1fd0a4f28419497f9722a3daafe3b4186f6b6457e060405160405180910390a35050565b5f5ffd5b5f73ffffffffffffffffffffffffffffffffffffffff82169050919050565b5f6102a78261027e565b9050919050565b6102b78161029d565b81146102c1575f5ffd5b50565b5f815190506102d2816102ae565b92915050565b5f819050919050565b6102ea816102d8565b81146102f4575f5ffd5b50565b5f81519050610305816102e1565b92915050565b5f5f5f606084860312156103225761032161027a565b5b5f61032f868287016102c4565b9350506020610340868287016102f7565b9250506040610351868287016102f7565b9150509250925092565b6103648161029d565b82525050565b5f60208201905061037d5f83018461035b565b92915050565b7f4e487b71000000000000000000000000000000000000000000000000000000005f52601160045260245ffd5b5f6103ba826102d8565b91506103c5836102d8565b92508282026103d3816102d8565b915082820484148315176103ea576103e9610383565b5b5092915050565b6119da806103fe5f395ff3fe608060405234801561000f575f5ffd5b50600436106100fe575f3560e01c8063715018a611610095578063b6658d0711610064578063b6658d0714610274578063c241267614610292578063f2fde38b146102b0578063f98d487f146102cc576100fe565b8063715018a6146102145780638da5cb5b1461021e578063a52347361461023c578063ae169a5014610258576100fe565b806349c0de88116100d157806349c0de88146101785780635cbbd635146101a85780636b35f5ce146101c65780636be4097c146101f6576100fe565b80631209b1f61461010257806319fb30dd146101205780632d97902f1461013e5780633d4962ed1461015c575b5f5ffd5b61010a6102fc565b6040516101179190610f9f565b60405180910390f35b610128610302565b6040516101359190611028565b60405180910390f35b61014661039a565b6040516101539190610f9f565b60405180910390f35b610176600480360381019061017191906111bd565b6103a0565b005b610192600480360381019061018d9190611212565b61058c565b60405161019f919061128f565b60405180910390f35b6101b06105df565b6040516101bd9190610f9f565b60405180910390f35b6101e060048036038101906101db91906112a8565b6105e5565b6040516101ed91906112ed565b60405180910390f35b6101fe610602565b60405161020b9190610f9f565b60405180910390f35b61021c610608565b005b61022661061b565b604051610233919061128f565b60405180910390f35b610256600480360381019061025191906111bd565b610642565b005b610272600480360381019061026d91906112a8565b6107b5565b005b61027c610b3a565b6040516102899190611361565b60405180910390f35b61029a610b5f565b6040516102a7919061139a565b60405180910390f35b6102ca60048036038101906102c591906113dd565b610b84565b005b6102e660048036038101906102e19190611212565b610c08565b6040516102f39190611417565b60405180910390f35b60025481565b606060075f9054906101000a900473ffffffffffffffffffffffffffffffffffffffff1673ffffffffffffffffffffffffffffffffffffffff166306fdde036040518163ffffffff1660e01b81526004015f60405180830381865afa15801561036d573d5f5f3e3d5ffd5b505050506040513d5f823e3d601f19601f8201168201806040525081019061039591906114d2565b905090565b60035481565b6103a981610c3e565b6103e8576040517f08c379a00000000000000000000000000000000000000000000000000000000081526004016103df90611563565b60405180910390fd5b60015f9054906101000a900473ffffffffffffffffffffffffffffffffffffffff1673ffffffffffffffffffffffffffffffffffffffff166323b872dd33306002546040518463ffffffff1660e01b815260040161044893929190611581565b6020604051808303815f875af1158015610464573d5f5f3e3d5ffd5b505050506040513d601f19601f8201168201806040525081019061048891906115e0565b6104c7576040517f08c379a00000000000000000000000000000000000000000000000000000000081526004016104be90611655565b60405180910390fd5b60085f60055481526020019081526020015f2060405180604001604052803373ffffffffffffffffffffffffffffffffffffffff16815260200183815250908060018154018082558091505060019003905f5260205f2090600202015f909190919091505f820151815f015f6101000a81548173ffffffffffffffffffffffffffffffffffffffff021916908373ffffffffffffffffffffffffffffffffffffffff160217905550602082015181600101906004610586929190610ed5565b50505050565b6008602052815f5260405f2081815481106105a5575f80fd5b905f5260205f2090600202015f9150915050805f015f9054906101000a900473ffffffffffffffffffffffffffffffffffffffff16905081565b60065481565b600a602052805f5260405f205f915054906101000a900460ff1681565b60055481565b610610610cde565b6106195f610d65565b565b5f5f5f9054906101000a900473ffffffffffffffffffffffffffffffffffffffff16905090565b61064a610cde565b600a5f60055481526020019081526020015f205f9054906101000a900460ff16156106aa576040517f08c379a00000000000000000000000000000000000000000000000000000000081526004016106a1906116bd565b60405180910390fd5b6003546006546106ba9190611708565b4210156106fc576040517f08c379a00000000000000000000000000000000000000000000000000000000081526004016106f390611785565b60405180910390fd5b61070581610c3e565b610744576040517f08c379a000000000000000000000000000000000000000000000000000000000815260040161073b906117ed565b60405180910390fd5b8060095f60055481526020019081526020015f20906004610766929190610ed5565b506001600a5f60055481526020019081526020015f205f6101000a81548160ff02191690831515021790555042600681905550600160055f8282546107ab9190611708565b9250508190555050565b600a5f8281526020019081526020015f205f9054906101000a900460ff16610812576040517f08c379a000000000000000000000000000000000000000000000000000000000815260040161080990611855565b60405180910390fd5b5f60095f8381526020019081526020015f2060048060200260405190810160405280929190826004801561087f576020028201915f905b82829054906101000a900460ff1660ff16815260200190600101906020825f010492830192600103820291508084116108495790505b505050505090505f60085f8481526020019081526020015f20805480602002602001604051908101604052809291908181526020015f905b828210156109a4578382905f5260205f2090600202016040518060400160405290815f82015f9054906101000a900473ffffffffffffffffffffffffffffffffffffffff1673ffffffffffffffffffffffffffffffffffffffff1673ffffffffffffffffffffffffffffffffffffffff1681526020016001820160048060200260405190810160405280929190826004801561098c576020028201915f905b82829054906101000a900460ff1660ff16815260200190600101906020825f010492830192600103820291508084116109565790505b505050505081525050815260200190600101906108b7565b5050505090505f5f90505b8151811015610b34573373ffffffffffffffffffffffffffffffffffffffff168282815181106109e2576109e1611873565b5b60200260200101515f015173ffffffffffffffffffffffffffffffffffffffff16148015610a345750610a33828281518110610a2157610a20611873565b5b60200260200101516020015184610e26565b5b15610b275760015f9054906101000a900473ffffffffffffffffffffffffffffffffffffffff1673ffffffffffffffffffffffffffffffffffffffff1663a9059cbb33600a600254610a8691906118a0565b6040518363ffffffff1660e01b8152600401610aa39291906118e1565b6020604051808303815f875af1158015610abf573d5f5f3e3d5ffd5b505050506040513d601f19601f82011682018060405250810190610ae391906115e0565b610b22576040517f08c379a0000000000000000000000000000000000000000000000000000000008152600401610b1990611952565b60405180910390fd5b610b34565b80806001019150506109af565b50505050565b60015f9054906101000a900473ffffffffffffffffffffffffffffffffffffffff1681565b60045f9054906101000a900473ffffffffffffffffffffffffffffffffffffffff1681565b610b8c610cde565b5f73ffffffffffffffffffffffffffffffffffffffff168173ffffffffffffffffffffffffffffffffffffffff1603610bfc575f6040517f1e4fbdf7000000000000000000000000000000000000000000000000000000008152600401610bf3919061128f565b60405180910390fd5b610c0581610d65565b50565b6009602052815f5260405f208160048110610c21575f80fd5b60209182820401919006915091509054906101000a900460ff1681565b5f5f5f90505b60048160ff161015610cd3575f600182610c5e9190611970565b90505b60048160ff161015610cc557838160ff1660048110610c8357610c82611873565b5b602002015160ff16848360ff1660048110610ca157610ca0611873565b5b602002015160ff1603610cb8575f92505050610cd9565b8080600101915050610c61565b508080600101915050610c44565b50600190505b919050565b610ce6610ece565b73ffffffffffffffffffffffffffffffffffffffff16610d0461061b565b73ffffffffffffffffffffffffffffffffffffffff1614610d6357610d27610ece565b6040517f118cdaa7000000000000000000000000000000000000000000000000000000008152600401610d5a919061128f565b60405180910390fd5b565b5f5f5f9054906101000a900473ffffffffffffffffffffffffffffffffffffffff169050815f5f6101000a81548173ffffffffffffffffffffffffffffffffffffffff021916908373ffffffffffffffffffffffffffffffffffffffff1602179055508173ffffffffffffffffffffffffffffffffffffffff168173ffffffffffffffffffffffffffffffffffffffff167f8be0079c531659141344cd1fd0a4f28419497f9722a3daafe3b4186f6b6457e060405160405180910390a35050565b5f5f5f90505b60048160ff161015610ec2575f5f90505f5f90505b60048160ff161015610ea457848160ff1660048110610e6357610e62611873565b5b602002015160ff16868460ff1660048110610e8157610e80611873565b5b602002015160ff1603610e975760019150610ea4565b8080600101915050610e41565b5080610eb4575f92505050610ec8565b508080600101915050610e2c565b50600190505b92915050565b5f33905090565b826004601f01602090048101928215610f5b579160200282015f5b83821115610f2d57835183826101000a81548160ff021916908360ff16021790555092602001926001016020815f01049283019260010302610ef0565b8015610f595782816101000a81549060ff02191690556001016020815f01049283019260010302610f2d565b505b509050610f689190610f6c565b5090565b5b80821115610f83575f815f905550600101610f6d565b5090565b5f819050919050565b610f9981610f87565b82525050565b5f602082019050610fb25f830184610f90565b92915050565b5f81519050919050565b5f82825260208201905092915050565b8281835e5f83830152505050565b5f601f19601f8301169050919050565b5f610ffa82610fb8565b6110048185610fc2565b9350611014818560208601610fd2565b61101d81610fe0565b840191505092915050565b5f6020820190508181035f8301526110408184610ff0565b905092915050565b5f604051905090565b5f5ffd5b5f5ffd5b5f5ffd5b7f4e487b71000000000000000000000000000000000000000000000000000000005f52604160045260245ffd5b61109382610fe0565b810181811067ffffffffffffffff821117156110b2576110b161105d565b5b80604052505050565b5f6110c4611048565b90506110d0828261108a565b919050565b5f67ffffffffffffffff8211156110ef576110ee61105d565b5b602082029050919050565b5f5ffd5b5f60ff82169050919050565b611113816110fe565b811461111d575f5ffd5b50565b5f8135905061112e8161110a565b92915050565b5f611146611141846110d5565b6110bb565b905080602084028301858111156111605761115f6110fa565b5b835b8181101561118957806111758882611120565b845260208401935050602081019050611162565b5050509392505050565b5f82601f8301126111a7576111a6611059565b5b60046111b4848285611134565b91505092915050565b5f608082840312156111d2576111d1611051565b5b5f6111df84828501611193565b91505092915050565b6111f181610f87565b81146111fb575f5ffd5b50565b5f8135905061120c816111e8565b92915050565b5f5f6040838503121561122857611227611051565b5b5f611235858286016111fe565b9250506020611246858286016111fe565b9150509250929050565b5f73ffffffffffffffffffffffffffffffffffffffff82169050919050565b5f61127982611250565b9050919050565b6112898161126f565b82525050565b5f6020820190506112a25f830184611280565b92915050565b5f602082840312156112bd576112bc611051565b5b5f6112ca848285016111fe565b91505092915050565b5f8115159050919050565b6112e7816112d3565b82525050565b5f6020820190506113005f8301846112de565b92915050565b5f819050919050565b5f61132961132461131f84611250565b611306565b611250565b9050919050565b5f61133a8261130f565b9050919050565b5f61134b82611330565b9050919050565b61135b81611341565b82525050565b5f6020820190506113745f830184611352565b92915050565b5f61138482611330565b9050919050565b6113948161137a565b82525050565b5f6020820190506113ad5f83018461138b565b92915050565b6113bc8161126f565b81146113c6575f5ffd5b50565b5f813590506113d7816113b3565b92915050565b5f602082840312156113f2576113f1611051565b5b5f6113ff848285016113c9565b91505092915050565b611411816110fe565b82525050565b5f60208201905061142a5f830184611408565b92915050565b5f5ffd5b5f67ffffffffffffffff82111561144e5761144d61105d565b5b61145782610fe0565b9050602081019050919050565b5f61147661147184611434565b6110bb565b90508281526020810184848401111561149257611491611430565b5b61149d848285610fd2565b509392505050565b5f82601f8301126114b9576114b8611059565b5b81516114c9848260208601611464565b91505092915050565b5f602082840312156114e7576114e6611051565b5b5f82015167ffffffffffffffff81111561150457611503611055565b5b611510848285016114a5565b91505092915050565b7f4e756d62657273206d75737420626520756e69717565000000000000000000005f82015250565b5f61154d601683610fc2565b915061155882611519565b602082019050919050565b5f6020820190508181035f83015261157a81611541565b9050919050565b5f6060820190506115945f830186611280565b6115a16020830185611280565b6115ae6040830184610f90565b949350505050565b6115bf816112d3565b81146115c9575f5ffd5b50565b5f815190506115da816115b6565b92915050565b5f602082840312156115f5576115f4611051565b5b5f611602848285016115cc565b91505092915050565b7f5061796d656e74206661696c65640000000000000000000000000000000000005f82015250565b5f61163f600e83610fc2565b915061164a8261160b565b602082019050919050565b5f6020820190508181035f83015261166c81611633565b9050919050565b7f416c726561647920647261776e000000000000000000000000000000000000005f82015250565b5f6116a7600d83610fc2565b91506116b282611673565b602082019050919050565b5f6020820190508181035f8301526116d48161169b565b9050919050565b7f4e487b71000000000000000000000000000000000000000000000000000000005f52601160045260245ffd5b5f61171282610f87565b915061171d83610f87565b9250828201905080821115611735576117346116db565b5b92915050565b7f546f6f206561726c7900000000000000000000000000000000000000000000005f82015250565b5f61176f600983610fc2565b915061177a8261173b565b602082019050919050565b5f6020820190508181035f83015261179c81611763565b9050919050565b7f57696e6e696e67206e756d62657273206d75737420626520756e6971756500005f82015250565b5f6117d7601e83610fc2565b91506117e2826117a3565b602082019050919050565b5f6020820190508181035f830152611804816117cb565b9050919050565b7f57696e6e696e67206e756d62657273206e6f7420647261776e000000000000005f82015250565b5f61183f601983610fc2565b915061184a8261180b565b602082019050919050565b5f6020820190508181035f83015261186c81611833565b9050919050565b7f4e487b71000000000000000000000000000000000000000000000000000000005f52603260045260245ffd5b5f6118aa82610f87565b91506118b583610f87565b92508282026118c381610f87565b915082820484148315176118da576118d96116db565b5b5092915050565b5f6040820190506118f45f830185611280565b6119016020830184610f90565b9392505050565b7f526577617264207472616e73666572206661696c6564000000000000000000005f82015250565b5f61193c601683610fc2565b915061194782611908565b602082019050919050565b5f6020820190508181035f83015261196981611930565b9050919050565b5f61197a826110fe565b9150611985836110fe565b9250828201905060ff81111561199e5761199d6116db565b5b9291505056fea2646970667358221220e32e4f29109b31287a08a9043c1d0de50a2d2a4191f45562ceff7ed1115b70ab64736f6c634300081e0033",
					"opcodes": "PUSH1 0x80 PUSH1 0x40 MSTORE PUSH20 0x742D35CC6634C0532925A3B844BC454E4438F44E PUSH1 0x7 PUSH0 PUSH2 0x100 EXP DUP2 SLOAD DUP2 PUSH20 0xFFFFFFFFFFFFFFFFFFFFFFFFFFFFFFFFFFFFFFFF MUL NOT AND SWAP1 DUP4 PUSH20 0xFFFFFFFFFFFFFFFFFFFFFFFFFFFFFFFFFFFFFFFF AND MUL OR SWAP1 SSTORE POP CALLVALUE DUP1 ISZERO PUSH2 0x63 JUMPI PUSH0 PUSH0 REVERT JUMPDEST POP PUSH1 0x40 MLOAD PUSH2 0x1DD8 CODESIZE SUB DUP1 PUSH2 0x1DD8 DUP4 CODECOPY DUP2 DUP2 ADD PUSH1 0x40 MSTORE DUP2 ADD SWAP1 PUSH2 0x85 SWAP2 SWAP1 PUSH2 0x30B JUMP JUMPDEST CALLER PUSH0 PUSH20 0xFFFFFFFFFFFFFFFFFFFFFFFFFFFFFFFFFFFFFFFF AND DUP2 PUSH20 0xFFFFFFFFFFFFFFFFFFFFFFFFFFFFFFFFFFFFFFFF AND SUB PUSH2 0xF6 JUMPI PUSH0 PUSH1 0x40 MLOAD PUSH32 0x1E4FBDF700000000000000000000000000000000000000000000000000000000 DUP2 MSTORE PUSH1 0x4 ADD PUSH2 0xED SWAP2 SWAP1 PUSH2 0x36A JUMP JUMPDEST PUSH1 0x40 MLOAD DUP1 SWAP2 SUB SWAP1 REVERT JUMPDEST PUSH2 0x105 DUP2 PUSH2 0x1B9 PUSH1 0x20 SHL PUSH1 0x20 SHR JUMP JUMPDEST POP DUP3 PUSH1 0x1 PUSH0 PUSH2 0x100 EXP DUP2 SLOAD DUP2 PUSH20 0xFFFFFFFFFFFFFFFFFFFFFFFFFFFFFFFFFFFFFFFF MUL NOT AND SWAP1 DUP4 PUSH20 0xFFFFFFFFFFFFFFFFFFFFFFFFFFFFFFFFFFFFFFFF AND MUL OR SWAP1 SSTORE POP DUP3 PUSH1 0x4 PUSH0 PUSH2 0x100 EXP DUP2 SLOAD DUP2 PUSH20 0xFFFFFFFFFFFFFFFFFFFFFFFFFFFFFFFFFFFFFFFF MUL NOT AND SWAP1 DUP4 PUSH20 0xFFFFFFFFFFFFFFFFFFFFFFFFFFFFFFFFFFFFFFFF AND MUL OR SWAP1 SSTORE POP DUP2 PUSH1 0x2 DUP2 SWAP1 SSTORE POP PUSH3 0x15180 DUP2 PUSH2 0x19C SWAP2 SWAP1 PUSH2 0x3B0 JUMP JUMPDEST PUSH1 0x3 DUP2 SWAP1 SSTORE POP TIMESTAMP PUSH1 0x6 DUP2 SWAP1 SSTORE POP PUSH1 0x1 PUSH1 0x5 DUP2 SWAP1 SSTORE POP POP POP POP PUSH2 0x3F1 JUMP JUMPDEST PUSH0 PUSH0 PUSH0 SWAP1 SLOAD SWAP1 PUSH2 0x100 EXP SWAP1 DIV PUSH20 0xFFFFFFFFFFFFFFFFFFFFFFFFFFFFFFFFFFFFFFFF AND SWAP1 POP DUP2 PUSH0 PUSH0 PUSH2 0x100 EXP DUP2 SLOAD DUP2 PUSH20 0xFFFFFFFFFFFFFFFFFFFFFFFFFFFFFFFFFFFFFFFF MUL NOT AND SWAP1 DUP4 PUSH20 0xFFFFFFFFFFFFFFFFFFFFFFFFFFFFFFFFFFFFFFFF AND MUL OR SWAP1 SSTORE POP DUP2 PUSH20 0xFFFFFFFFFFFFFFFFFFFFFFFFFFFFFFFFFFFFFFFF AND DUP2 PUSH20 0xFFFFFFFFFFFFFFFFFFFFFFFFFFFFFFFFFFFFFFFF AND PUSH32 0x8BE0079C531659141344CD1FD0A4F28419497F9722A3DAAFE3B4186F6B6457E0 PUSH1 0x40 MLOAD PUSH1 0x40 MLOAD DUP1 SWAP2 SUB SWAP1 LOG3 POP POP JUMP JUMPDEST PUSH0 PUSH0 REVERT JUMPDEST PUSH0 PUSH20 0xFFFFFFFFFFFFFFFFFFFFFFFFFFFFFFFFFFFFFFFF DUP3 AND SWAP1 POP SWAP2 SWAP1 POP JUMP JUMPDEST PUSH0 PUSH2 0x2A7 DUP3 PUSH2 0x27E JUMP JUMPDEST SWAP1 POP SWAP2 SWAP1 POP JUMP JUMPDEST PUSH2 0x2B7 DUP2 PUSH2 0x29D JUMP JUMPDEST DUP2 EQ PUSH2 0x2C1 JUMPI PUSH0 PUSH0 REVERT JUMPDEST POP JUMP JUMPDEST PUSH0 DUP2 MLOAD SWAP1 POP PUSH2 0x2D2 DUP2 PUSH2 0x2AE JUMP JUMPDEST SWAP3 SWAP2 POP POP JUMP JUMPDEST PUSH0 DUP2 SWAP1 POP SWAP2 SWAP1 POP JUMP JUMPDEST PUSH2 0x2EA DUP2 PUSH2 0x2D8 JUMP JUMPDEST DUP2 EQ PUSH2 0x2F4 JUMPI PUSH0 PUSH0 REVERT JUMPDEST POP JUMP JUMPDEST PUSH0 DUP2 MLOAD SWAP1 POP PUSH2 0x305 DUP2 PUSH2 0x2E1 JUMP JUMPDEST SWAP3 SWAP2 POP POP JUMP JUMPDEST PUSH0 PUSH0 PUSH0 PUSH1 0x60 DUP5 DUP7 SUB SLT ISZERO PUSH2 0x322 JUMPI PUSH2 0x321 PUSH2 0x27A JUMP JUMPDEST JUMPDEST PUSH0 PUSH2 0x32F DUP7 DUP3 DUP8 ADD PUSH2 0x2C4 JUMP JUMPDEST SWAP4 POP POP PUSH1 0x20 PUSH2 0x340 DUP7 DUP3 DUP8 ADD PUSH2 0x2F7 JUMP JUMPDEST SWAP3 POP POP PUSH1 0x40 PUSH2 0x351 DUP7 DUP3 DUP8 ADD PUSH2 0x2F7 JUMP JUMPDEST SWAP2 POP POP SWAP3 POP SWAP3 POP SWAP3 JUMP JUMPDEST PUSH2 0x364 DUP2 PUSH2 0x29D JUMP JUMPDEST DUP3 MSTORE POP POP JUMP JUMPDEST PUSH0 PUSH1 0x20 DUP3 ADD SWAP1 POP PUSH2 0x37D PUSH0 DUP4 ADD DUP5 PUSH2 0x35B JUMP JUMPDEST SWAP3 SWAP2 POP POP JUMP JUMPDEST PUSH32 0x4E487B7100000000000000000000000000000000000000000000000000000000 PUSH0 MSTORE PUSH1 0x11 PUSH1 0x4 MSTORE PUSH1 0x24 PUSH0 REVERT JUMPDEST PUSH0 PUSH2 0x3BA DUP3 PUSH2 0x2D8 JUMP JUMPDEST SWAP2 POP PUSH2 0x3C5 DUP4 PUSH2 0x2D8 JUMP JUMPDEST SWAP3 POP DUP3 DUP3 MUL PUSH2 0x3D3 DUP2 PUSH2 0x2D8 JUMP JUMPDEST SWAP2 POP DUP3 DUP3 DIV DUP5 EQ DUP4 ISZERO OR PUSH2 0x3EA JUMPI PUSH2 0x3E9 PUSH2 0x383 JUMP JUMPDEST JUMPDEST POP SWAP3 SWAP2 POP POP JUMP JUMPDEST PUSH2 0x19DA DUP1 PUSH2 0x3FE PUSH0 CODECOPY PUSH0 RETURN INVALID PUSH1 0x80 PUSH1 0x40 MSTORE CALLVALUE DUP1 ISZERO PUSH2 0xF JUMPI PUSH0 PUSH0 REVERT JUMPDEST POP PUSH1 0x4 CALLDATASIZE LT PUSH2 0xFE JUMPI PUSH0 CALLDATALOAD PUSH1 0xE0 SHR DUP1 PUSH4 0x715018A6 GT PUSH2 0x95 JUMPI DUP1 PUSH4 0xB6658D07 GT PUSH2 0x64 JUMPI DUP1 PUSH4 0xB6658D07 EQ PUSH2 0x274 JUMPI DUP1 PUSH4 0xC2412676 EQ PUSH2 0x292 JUMPI DUP1 PUSH4 0xF2FDE38B EQ PUSH2 0x2B0 JUMPI DUP1 PUSH4 0xF98D487F EQ PUSH2 0x2CC JUMPI PUSH2 0xFE JUMP JUMPDEST DUP1 PUSH4 0x715018A6 EQ PUSH2 0x214 JUMPI DUP1 PUSH4 0x8DA5CB5B EQ PUSH2 0x21E JUMPI DUP1 PUSH4 0xA5234736 EQ PUSH2 0x23C JUMPI DUP1 PUSH4 0xAE169A50 EQ PUSH2 0x258 JUMPI PUSH2 0xFE JUMP JUMPDEST DUP1 PUSH4 0x49C0DE88 GT PUSH2 0xD1 JUMPI DUP1 PUSH4 0x49C0DE88 EQ PUSH2 0x178 JUMPI DUP1 PUSH4 0x5CBBD635 EQ PUSH2 0x1A8 JUMPI DUP1 PUSH4 0x6B35F5CE EQ PUSH2 0x1C6 JUMPI DUP1 PUSH4 0x6BE4097C EQ PUSH2 0x1F6 JUMPI PUSH2 0xFE JUMP JUMPDEST DUP1 PUSH4 0x1209B1F6 EQ PUSH2 0x102 JUMPI DUP1 PUSH4 0x19FB30DD EQ PUSH2 0x120 JUMPI DUP1 PUSH4 0x2D97902F EQ PUSH2 0x13E JUMPI DUP1 PUSH4 0x3D4962ED EQ PUSH2 0x15C JUMPI JUMPDEST PUSH0 PUSH0 REVERT JUMPDEST PUSH2 0x10A PUSH2 0x2FC JUMP JUMPDEST PUSH1 0x40 MLOAD PUSH2 0x117 SWAP2 SWAP1 PUSH2 0xF9F JUMP JUMPDEST PUSH1 0x40 MLOAD DUP1 SWAP2 SUB SWAP1 RETURN JUMPDEST PUSH2 0x128 PUSH2 0x302 JUMP JUMPDEST PUSH1 0x40 MLOAD PUSH2 0x135 SWAP2 SWAP1 PUSH2 0x1028 JUMP JUMPDEST PUSH1 0x40 MLOAD DUP1 SWAP2 SUB SWAP1 RETURN JUMPDEST PUSH2 0x146 PUSH2 0x39A JUMP JUMPDEST PUSH1 0x40 MLOAD PUSH2 0x153 SWAP2 SWAP1 PUSH2 0xF9F JUMP JUMPDEST PUSH1 0x40 MLOAD DUP1 SWAP2 SUB SWAP1 RETURN JUMPDEST PUSH2 0x176 PUSH1 0x4 DUP1 CALLDATASIZE SUB DUP2 ADD SWAP1 PUSH2 0x171 SWAP2 SWAP1 PUSH2 0x11BD JUMP JUMPDEST PUSH2 0x3A0 JUMP JUMPDEST STOP JUMPDEST PUSH2 0x192 PUSH1 0x4 DUP1 CALLDATASIZE SUB DUP2 ADD SWAP1 PUSH2 0x18D SWAP2 SWAP1 PUSH2 0x1212 JUMP JUMPDEST PUSH2 0x58C JUMP JUMPDEST PUSH1 0x40 MLOAD PUSH2 0x19F SWAP2 SWAP1 PUSH2 0x128F JUMP JUMPDEST PUSH1 0x40 MLOAD DUP1 SWAP2 SUB SWAP1 RETURN JUMPDEST PUSH2 0x1B0 PUSH2 0x5DF JUMP JUMPDEST PUSH1 0x40 MLOAD PUSH2 0x1BD SWAP2 SWAP1 PUSH2 0xF9F JUMP JUMPDEST PUSH1 0x40 MLOAD DUP1 SWAP2 SUB SWAP1 RETURN JUMPDEST PUSH2 0x1E0 PUSH1 0x4 DUP1 CALLDATASIZE SUB DUP2 ADD SWAP1 PUSH2 0x1DB SWAP2 SWAP1 PUSH2 0x12A8 JUMP JUMPDEST PUSH2 0x5E5 JUMP JUMPDEST PUSH1 0x40 MLOAD PUSH2 0x1ED SWAP2 SWAP1 PUSH2 0x12ED JUMP JUMPDEST PUSH1 0x40 MLOAD DUP1 SWAP2 SUB SWAP1 RETURN JUMPDEST PUSH2 0x1FE PUSH2 0x602 JUMP JUMPDEST PUSH1 0x40 MLOAD PUSH2 0x20B SWAP2 SWAP1 PUSH2 0xF9F JUMP JUMPDEST PUSH1 0x40 MLOAD DUP1 SWAP2 SUB SWAP1 RETURN JUMPDEST PUSH2 0x21C PUSH2 0x608 JUMP JUMPDEST STOP JUMPDEST PUSH2 0x226 PUSH2 0x61B JUMP JUMPDEST PUSH1 0x40 MLOAD PUSH2 0x233 SWAP2 SWAP1 PUSH2 0x128F JUMP JUMPDEST PUSH1 0x40 MLOAD DUP1 SWAP2 SUB SWAP1 RETURN JUMPDEST PUSH2 0x256 PUSH1 0x4 DUP1 CALLDATASIZE SUB DUP2 ADD SWAP1 PUSH2 0x251 SWAP2 SWAP1 PUSH2 0x11BD JUMP JUMPDEST PUSH2 0x642 JUMP JUMPDEST STOP JUMPDEST PUSH2 0x272 PUSH1 0x4 DUP1 CALLDATASIZE SUB DUP2 ADD SWAP1 PUSH2 0x26D SWAP2 SWAP1 PUSH2 0x12A8 JUMP JUMPDEST PUSH2 0x7B5 JUMP JUMPDEST STOP JUMPDEST PUSH2 0x27C PUSH2 0xB3A JUMP JUMPDEST PUSH1 0x40 MLOAD PUSH2 0x289 SWAP2 SWAP1 PUSH2 0x1361 JUMP JUMPDEST PUSH1 0x40 MLOAD DUP1 SWAP2 SUB SWAP1 RETURN JUMPDEST PUSH2 0x29A PUSH2 0xB5F JUMP JUMPDEST PUSH1 0x40 MLOAD PUSH2 0x2A7 SWAP2 SWAP1 PUSH2 0x139A JUMP JUMPDEST PUSH1 0x40 MLOAD DUP1 SWAP2 SUB SWAP1 RETURN JUMPDEST PUSH2 0x2CA PUSH1 0x4 DUP1 CALLDATASIZE SUB DUP2 ADD SWAP1 PUSH2 0x2C5 SWAP2 SWAP1 PUSH2 0x13DD JUMP JUMPDEST PUSH2 0xB84 JUMP JUMPDEST STOP JUMPDEST PUSH2 0x2E6 PUSH1 0x4 DUP1 CALLDATASIZE SUB DUP2 ADD SWAP1 PUSH2 0x2E1 SWAP2 SWAP1 PUSH2 0x1212 JUMP JUMPDEST PUSH2 0xC08 JUMP JUMPDEST PUSH1 0x40 MLOAD PUSH2 0x2F3 SWAP2 SWAP1 PUSH2 0x1417 JUMP JUMPDEST PUSH1 0x40 MLOAD DUP1 SWAP2 SUB SWAP1 RETURN JUMPDEST PUSH1 0x2 SLOAD DUP2 JUMP JUMPDEST PUSH1 0x60 PUSH1 0x7 PUSH0 SWAP1 SLOAD SWAP1 PUSH2 0x100 EXP SWAP1 DIV PUSH20 0xFFFFFFFFFFFFFFFFFFFFFFFFFFFFFFFFFFFFFFFF AND PUSH20 0xFFFFFFFFFFFFFFFFFFFFFFFFFFFFFFFFFFFFFFFF AND PUSH4 0x6FDDE03 PUSH1 0x40 MLOAD DUP2 PUSH4 0xFFFFFFFF AND PUSH1 0xE0 SHL DUP2 MSTORE PUSH1 0x4 ADD PUSH0 PUSH1 0x40 MLOAD DUP1 DUP4 SUB DUP2 DUP7 GAS STATICCALL ISZERO DUP1 ISZERO PUSH2 0x36D JUMPI RETURNDATASIZE PUSH0 PUSH0 RETURNDATACOPY RETURNDATASIZE PUSH0 REVERT JUMPDEST POP POP POP POP PUSH1 0x40 MLOAD RETURNDATASIZE PUSH0 DUP3 RETURNDATACOPY RETURNDATASIZE PUSH1 0x1F NOT PUSH1 0x1F DUP3 ADD AND DUP3 ADD DUP1 PUSH1 0x40 MSTORE POP DUP2 ADD SWAP1 PUSH2 0x395 SWAP2 SWAP1 PUSH2 0x14D2 JUMP JUMPDEST SWAP1 POP SWAP1 JUMP JUMPDEST PUSH1 0x3 SLOAD DUP2 JUMP JUMPDEST PUSH2 0x3A9 DUP2 PUSH2 0xC3E JUMP JUMPDEST PUSH2 0x3E8 JUMPI PUSH1 0x40 MLOAD PUSH32 0x8C379A000000000000000000000000000000000000000000000000000000000 DUP2 MSTORE PUSH1 0x4 ADD PUSH2 0x3DF SWAP1 PUSH2 0x1563 JUMP JUMPDEST PUSH1 0x40 MLOAD DUP1 SWAP2 SUB SWAP1 REVERT JUMPDEST PUSH1 0x1 PUSH0 SWAP1 SLOAD SWAP1 PUSH2 0x100 EXP SWAP1 DIV PUSH20 0xFFFFFFFFFFFFFFFFFFFFFFFFFFFFFFFFFFFFFFFF AND PUSH20 0xFFFFFFFFFFFFFFFFFFFFFFFFFFFFFFFFFFFFFFFF AND PUSH4 0x23B872DD CALLER ADDRESS PUSH1 0x2 SLOAD PUSH1 0x40 MLOAD DUP5 PUSH4 0xFFFFFFFF AND PUSH1 0xE0 SHL DUP2 MSTORE PUSH1 0x4 ADD PUSH2 0x448 SWAP4 SWAP3 SWAP2 SWAP1 PUSH2 0x1581 JUMP JUMPDEST PUSH1 0x20 PUSH1 0x40 MLOAD DUP1 DUP4 SUB DUP2 PUSH0 DUP8 GAS CALL ISZERO DUP1 ISZERO PUSH2 0x464 JUMPI RETURNDATASIZE PUSH0 PUSH0 RETURNDATACOPY RETURNDATASIZE PUSH0 REVERT JUMPDEST POP POP POP POP PUSH1 0x40 MLOAD RETURNDATASIZE PUSH1 0x1F NOT PUSH1 0x1F DUP3 ADD AND DUP3 ADD DUP1 PUSH1 0x40 MSTORE POP DUP2 ADD SWAP1 PUSH2 0x488 SWAP2 SWAP1 PUSH2 0x15E0 JUMP JUMPDEST PUSH2 0x4C7 JUMPI PUSH1 0x40 MLOAD PUSH32 0x8C379A000000000000000000000000000000000000000000000000000000000 DUP2 MSTORE PUSH1 0x4 ADD PUSH2 0x4BE SWAP1 PUSH2 0x1655 JUMP JUMPDEST PUSH1 0x40 MLOAD DUP1 SWAP2 SUB SWAP1 REVERT JUMPDEST PUSH1 0x8 PUSH0 PUSH1 0x5 SLOAD DUP2 MSTORE PUSH1 0x20 ADD SWAP1 DUP2 MSTORE PUSH1 0x20 ADD PUSH0 KECCAK256 PUSH1 0x40 MLOAD DUP1 PUSH1 0x40 ADD PUSH1 0x40 MSTORE DUP1 CALLER PUSH20 0xFFFFFFFFFFFFFFFFFFFFFFFFFFFFFFFFFFFFFFFF AND DUP2 MSTORE PUSH1 0x20 ADD DUP4 DUP2 MSTORE POP SWAP1 DUP1 PUSH1 0x1 DUP2 SLOAD ADD DUP1 DUP3 SSTORE DUP1 SWAP2 POP POP PUSH1 0x1 SWAP1 SUB SWAP1 PUSH0 MSTORE PUSH1 0x20 PUSH0 KECCAK256 SWAP1 PUSH1 0x2 MUL ADD PUSH0 SWAP1 SWAP2 SWAP1 SWAP2 SWAP1 SWAP2 POP PUSH0 DUP3 ADD MLOAD DUP2 PUSH0 ADD PUSH0 PUSH2 0x100 EXP DUP2 SLOAD DUP2 PUSH20 0xFFFFFFFFFFFFFFFFFFFFFFFFFFFFFFFFFFFFFFFF MUL NOT AND SWAP1 DUP4 PUSH20 0xFFFFFFFFFFFFFFFFFFFFFFFFFFFFFFFFFFFFFFFF AND MUL OR SWAP1 SSTORE POP PUSH1 0x20 DUP3 ADD MLOAD DUP2 PUSH1 0x1 ADD SWAP1 PUSH1 0x4 PUSH2 0x586 SWAP3 SWAP2 SWAP1 PUSH2 0xED5 JUMP JUMPDEST POP POP POP POP JUMP JUMPDEST PUSH1 0x8 PUSH1 0x20 MSTORE DUP2 PUSH0 MSTORE PUSH1 0x40 PUSH0 KECCAK256 DUP2 DUP2 SLOAD DUP2 LT PUSH2 0x5A5 JUMPI PUSH0 DUP1 REVERT JUMPDEST SWAP1 PUSH0 MSTORE PUSH1 0x20 PUSH0 KECCAK256 SWAP1 PUSH1 0x2 MUL ADD PUSH0 SWAP2 POP SWAP2 POP POP DUP1 PUSH0 ADD PUSH0 SWAP1 SLOAD SWAP1 PUSH2 0x100 EXP SWAP1 DIV PUSH20 0xFFFFFFFFFFFFFFFFFFFFFFFFFFFFFFFFFFFFFFFF AND SWAP1 POP DUP2 JUMP JUMPDEST PUSH1 0x6 SLOAD DUP2 JUMP JUMPDEST PUSH1 0xA PUSH1 0x20 MSTORE DUP1 PUSH0 MSTORE PUSH1 0x40 PUSH0 KECCAK256 PUSH0 SWAP2 POP SLOAD SWAP1 PUSH2 0x100 EXP SWAP1 DIV PUSH1 0xFF AND DUP2 JUMP JUMPDEST PUSH1 0x5 SLOAD DUP2 JUMP JUMPDEST PUSH2 0x610 PUSH2 0xCDE JUMP JUMPDEST PUSH2 0x619 PUSH0 PUSH2 0xD65 JUMP JUMPDEST JUMP JUMPDEST PUSH0 PUSH0 PUSH0 SWAP1 SLOAD SWAP1 PUSH2 0x100 EXP SWAP1 DIV PUSH20 0xFFFFFFFFFFFFFFFFFFFFFFFFFFFFFFFFFFFFFFFF AND SWAP1 POP SWAP1 JUMP JUMPDEST PUSH2 0x64A PUSH2 0xCDE JUMP JUMPDEST PUSH1 0xA PUSH0 PUSH1 0x5 SLOAD DUP2 MSTORE PUSH1 0x20 ADD SWAP1 DUP2 MSTORE PUSH1 0x20 ADD PUSH0 KECCAK256 PUSH0 SWAP1 SLOAD SWAP1 PUSH2 0x100 EXP SWAP1 DIV PUSH1 0xFF AND ISZERO PUSH2 0x6AA JUMPI PUSH1 0x40 MLOAD PUSH32 0x8C379A000000000000000000000000000000000000000000000000000000000 DUP2 MSTORE PUSH1 0x4 ADD PUSH2 0x6A1 SWAP1 PUSH2 0x16BD JUMP JUMPDEST PUSH1 0x40 MLOAD DUP1 SWAP2 SUB SWAP1 REVERT JUMPDEST PUSH1 0x3 SLOAD PUSH1 0x6 SLOAD PUSH2 0x6BA SWAP2 SWAP1 PUSH2 0x1708 JUMP JUMPDEST TIMESTAMP LT ISZERO PUSH2 0x6FC JUMPI PUSH1 0x40 MLOAD PUSH32 0x8C379A000000000000000000000000000000000000000000000000000000000 DUP2 MSTORE PUSH1 0x4 ADD PUSH2 0x6F3 SWAP1 PUSH2 0x1785 JUMP JUMPDEST PUSH1 0x40 MLOAD DUP1 SWAP2 SUB SWAP1 REVERT JUMPDEST PUSH2 0x705 DUP2 PUSH2 0xC3E JUMP JUMPDEST PUSH2 0x744 JUMPI PUSH1 0x40 MLOAD PUSH32 0x8C379A000000000000000000000000000000000000000000000000000000000 DUP2 MSTORE PUSH1 0x4 ADD PUSH2 0x73B SWAP1 PUSH2 0x17ED JUMP JUMPDEST PUSH1 0x40 MLOAD DUP1 SWAP2 SUB SWAP1 REVERT JUMPDEST DUP1 PUSH1 0x9 PUSH0 PUSH1 0x5 SLOAD DUP2 MSTORE PUSH1 0x20 ADD SWAP1 DUP2 MSTORE PUSH1 0x20 ADD PUSH0 KECCAK256 SWAP1 PUSH1 0x4 PUSH2 0x766 SWAP3 SWAP2 SWAP1 PUSH2 0xED5 JUMP JUMPDEST POP PUSH1 0x1 PUSH1 0xA PUSH0 PUSH1 0x5 SLOAD DUP2 MSTORE PUSH1 0x20 ADD SWAP1 DUP2 MSTORE PUSH1 0x20 ADD PUSH0 KECCAK256 PUSH0 PUSH2 0x100 EXP DUP2 SLOAD DUP2 PUSH1 0xFF MUL NOT AND SWAP1 DUP4 ISZERO ISZERO MUL OR SWAP1 SSTORE POP TIMESTAMP PUSH1 0x6 DUP2 SWAP1 SSTORE POP PUSH1 0x1 PUSH1 0x5 PUSH0 DUP3 DUP3 SLOAD PUSH2 0x7AB SWAP2 SWAP1 PUSH2 0x1708 JUMP JUMPDEST SWAP3 POP POP DUP2 SWAP1 SSTORE POP POP JUMP JUMPDEST PUSH1 0xA PUSH0 DUP3 DUP2 MSTORE PUSH1 0x20 ADD SWAP1 DUP2 MSTORE PUSH1 0x20 ADD PUSH0 KECCAK256 PUSH0 SWAP1 SLOAD SWAP1 PUSH2 0x100 EXP SWAP1 DIV PUSH1 0xFF AND PUSH2 0x812 JUMPI PUSH1 0x40 MLOAD PUSH32 0x8C379A000000000000000000000000000000000000000000000000000000000 DUP2 MSTORE PUSH1 0x4 ADD PUSH2 0x809 SWAP1 PUSH2 0x1855 JUMP JUMPDEST PUSH1 0x40 MLOAD DUP1 SWAP2 SUB SWAP1 REVERT JUMPDEST PUSH0 PUSH1 0x9 PUSH0 DUP4 DUP2 MSTORE PUSH1 0x20 ADD SWAP1 DUP2 MSTORE PUSH1 0x20 ADD PUSH0 KECCAK256 PUSH1 0x4 DUP1 PUSH1 0x20 MUL PUSH1 0x40 MLOAD SWAP1 DUP2 ADD PUSH1 0x40 MSTORE DUP1 SWAP3 SWAP2 SWAP1 DUP3 PUSH1 0x4 DUP1 ISZERO PUSH2 0x87F JUMPI PUSH1 0x20 MUL DUP3 ADD SWAP2 PUSH0 SWAP1 JUMPDEST DUP3 DUP3 SWAP1 SLOAD SWAP1 PUSH2 0x100 EXP SWAP1 DIV PUSH1 0xFF AND PUSH1 0xFF AND DUP2 MSTORE PUSH1 0x20 ADD SWAP1 PUSH1 0x1 ADD SWAP1 PUSH1 0x20 DUP3 PUSH0 ADD DIV SWAP3 DUP4 ADD SWAP3 PUSH1 0x1 SUB DUP3 MUL SWAP2 POP DUP1 DUP5 GT PUSH2 0x849 JUMPI SWAP1 POP JUMPDEST POP POP POP POP POP SWAP1 POP PUSH0 PUSH1 0x8 PUSH0 DUP5 DUP2 MSTORE PUSH1 0x20 ADD SWAP1 DUP2 MSTORE PUSH1 0x20 ADD PUSH0 KECCAK256 DUP1 SLOAD DUP1 PUSH1 0x20 MUL PUSH1 0x20 ADD PUSH1 0x40 MLOAD SWAP1 DUP2 ADD PUSH1 0x40 MSTORE DUP1 SWAP3 SWAP2 SWAP1 DUP2 DUP2 MSTORE PUSH1 0x20 ADD PUSH0 SWAP1 JUMPDEST DUP3 DUP3 LT ISZERO PUSH2 0x9A4 JUMPI DUP4 DUP3 SWAP1 PUSH0 MSTORE PUSH1 0x20 PUSH0 KECCAK256 SWAP1 PUSH1 0x2 MUL ADD PUSH1 0x40 MLOAD DUP1 PUSH1 0x40 ADD PUSH1 0x40 MSTORE SWAP1 DUP2 PUSH0 DUP3 ADD PUSH0 SWAP1 SLOAD SWAP1 PUSH2 0x100 EXP SWAP1 DIV PUSH20 0xFFFFFFFFFFFFFFFFFFFFFFFFFFFFFFFFFFFFFFFF AND PUSH20 0xFFFFFFFFFFFFFFFFFFFFFFFFFFFFFFFFFFFFFFFF AND PUSH20 0xFFFFFFFFFFFFFFFFFFFFFFFFFFFFFFFFFFFFFFFF AND DUP2 MSTORE PUSH1 0x20 ADD PUSH1 0x1 DUP3 ADD PUSH1 0x4 DUP1 PUSH1 0x20 MUL PUSH1 0x40 MLOAD SWAP1 DUP2 ADD PUSH1 0x40 MSTORE DUP1 SWAP3 SWAP2 SWAP1 DUP3 PUSH1 0x4 DUP1 ISZERO PUSH2 0x98C JUMPI PUSH1 0x20 MUL DUP3 ADD SWAP2 PUSH0 SWAP1 JUMPDEST DUP3 DUP3 SWAP1 SLOAD SWAP1 PUSH2 0x100 EXP SWAP1 DIV PUSH1 0xFF AND PUSH1 0xFF AND DUP2 MSTORE PUSH1 0x20 ADD SWAP1 PUSH1 0x1 ADD SWAP1 PUSH1 0x20 DUP3 PUSH0 ADD DIV SWAP3 DUP4 ADD SWAP3 PUSH1 0x1 SUB DUP3 MUL SWAP2 POP DUP1 DUP5 GT PUSH2 0x956 JUMPI SWAP1 POP JUMPDEST POP POP POP POP POP DUP2 MSTORE POP POP DUP2 MSTORE PUSH1 0x20 ADD SWAP1 PUSH1 0x1 ADD SWAP1 PUSH2 0x8B7 JUMP JUMPDEST POP POP POP POP SWAP1 POP PUSH0 PUSH0 SWAP1 POP JUMPDEST DUP2 MLOAD DUP2 LT ISZERO PUSH2 0xB34 JUMPI CALLER PUSH20 0xFFFFFFFFFFFFFFFFFFFFFFFFFFFFFFFFFFFFFFFF AND DUP3 DUP3 DUP2 MLOAD DUP2 LT PUSH2 0x9E2 JUMPI PUSH2 0x9E1 PUSH2 0x1873 JUMP JUMPDEST JUMPDEST PUSH1 0x20 MUL PUSH1 0x20 ADD ADD MLOAD PUSH0 ADD MLOAD PUSH20 0xFFFFFFFFFFFFFFFFFFFFFFFFFFFFFFFFFFFFFFFF AND EQ DUP1 ISZERO PUSH2 0xA34 JUMPI POP PUSH2 0xA33 DUP3 DUP3 DUP2 MLOAD DUP2 LT PUSH2 0xA21 JUMPI PUSH2 0xA20 PUSH2 0x1873 JUMP JUMPDEST JUMPDEST PUSH1 0x20 MUL PUSH1 0x20 ADD ADD MLOAD PUSH1 0x20 ADD MLOAD DUP5 PUSH2 0xE26 JUMP JUMPDEST JUMPDEST ISZERO PUSH2 0xB27 JUMPI PUSH1 0x1 PUSH0 SWAP1 SLOAD SWAP1 PUSH2 0x100 EXP SWAP1 DIV PUSH20 0xFFFFFFFFFFFFFFFFFFFFFFFFFFFFFFFFFFFFFFFF AND PUSH20 0xFFFFFFFFFFFFFFFFFFFFFFFFFFFFFFFFFFFFFFFF AND PUSH4 0xA9059CBB CALLER PUSH1 0xA PUSH1 0x2 SLOAD PUSH2 0xA86 SWAP2 SWAP1 PUSH2 0x18A0 JUMP JUMPDEST PUSH1 0x40 MLOAD DUP4 PUSH4 0xFFFFFFFF AND PUSH1 0xE0 SHL DUP2 MSTORE PUSH1 0x4 ADD PUSH2 0xAA3 SWAP3 SWAP2 SWAP1 PUSH2 0x18E1 JUMP JUMPDEST PUSH1 0x20 PUSH1 0x40 MLOAD DUP1 DUP4 SUB DUP2 PUSH0 DUP8 GAS CALL ISZERO DUP1 ISZERO PUSH2 0xABF JUMPI RETURNDATASIZE PUSH0 PUSH0 RETURNDATACOPY RETURNDATASIZE PUSH0 REVERT JUMPDEST POP POP POP POP PUSH1 0x40 MLOAD RETURNDATASIZE PUSH1 0x1F NOT PUSH1 0x1F DUP3 ADD AND DUP3 ADD DUP1 PUSH1 0x40 MSTORE POP DUP2 ADD SWAP1 PUSH2 0xAE3 SWAP2 SWAP1 PUSH2 0x15E0 JUMP JUMPDEST PUSH2 0xB22 JUMPI PUSH1 0x40 MLOAD PUSH32 0x8C379A000000000000000000000000000000000000000000000000000000000 DUP2 MSTORE PUSH1 0x4 ADD PUSH2 0xB19 SWAP1 PUSH2 0x1952 JUMP JUMPDEST PUSH1 0x40 MLOAD DUP1 SWAP2 SUB SWAP1 REVERT JUMPDEST PUSH2 0xB34 JUMP JUMPDEST DUP1 DUP1 PUSH1 0x1 ADD SWAP2 POP POP PUSH2 0x9AF JUMP JUMPDEST POP POP POP POP JUMP JUMPDEST PUSH1 0x1 PUSH0 SWAP1 SLOAD SWAP1 PUSH2 0x100 EXP SWAP1 DIV PUSH20 0xFFFFFFFFFFFFFFFFFFFFFFFFFFFFFFFFFFFFFFFF AND DUP2 JUMP JUMPDEST PUSH1 0x4 PUSH0 SWAP1 SLOAD SWAP1 PUSH2 0x100 EXP SWAP1 DIV PUSH20 0xFFFFFFFFFFFFFFFFFFFFFFFFFFFFFFFFFFFFFFFF AND DUP2 JUMP JUMPDEST PUSH2 0xB8C PUSH2 0xCDE JUMP JUMPDEST PUSH0 PUSH20 0xFFFFFFFFFFFFFFFFFFFFFFFFFFFFFFFFFFFFFFFF AND DUP2 PUSH20 0xFFFFFFFFFFFFFFFFFFFFFFFFFFFFFFFFFFFFFFFF AND SUB PUSH2 0xBFC JUMPI PUSH0 PUSH1 0x40 MLOAD PUSH32 0x1E4FBDF700000000000000000000000000000000000000000000000000000000 DUP2 MSTORE PUSH1 0x4 ADD PUSH2 0xBF3 SWAP2 SWAP1 PUSH2 0x128F JUMP JUMPDEST PUSH1 0x40 MLOAD DUP1 SWAP2 SUB SWAP1 REVERT JUMPDEST PUSH2 0xC05 DUP2 PUSH2 0xD65 JUMP JUMPDEST POP JUMP JUMPDEST PUSH1 0x9 PUSH1 0x20 MSTORE DUP2 PUSH0 MSTORE PUSH1 0x40 PUSH0 KECCAK256 DUP2 PUSH1 0x4 DUP2 LT PUSH2 0xC21 JUMPI PUSH0 DUP1 REVERT JUMPDEST PUSH1 0x20 SWAP2 DUP3 DUP3 DIV ADD SWAP2 SWAP1 MOD SWAP2 POP SWAP2 POP SWAP1 SLOAD SWAP1 PUSH2 0x100 EXP SWAP1 DIV PUSH1 0xFF AND DUP2 JUMP JUMPDEST PUSH0 PUSH0 PUSH0 SWAP1 POP JUMPDEST PUSH1 0x4 DUP2 PUSH1 0xFF AND LT ISZERO PUSH2 0xCD3 JUMPI PUSH0 PUSH1 0x1 DUP3 PUSH2 0xC5E SWAP2 SWAP1 PUSH2 0x1970 JUMP JUMPDEST SWAP1 POP JUMPDEST PUSH1 0x4 DUP2 PUSH1 0xFF AND LT ISZERO PUSH2 0xCC5 JUMPI DUP4 DUP2 PUSH1 0xFF AND PUSH1 0x4 DUP2 LT PUSH2 0xC83 JUMPI PUSH2 0xC82 PUSH2 0x1873 JUMP JUMPDEST JUMPDEST PUSH1 0x20 MUL ADD MLOAD PUSH1 0xFF AND DUP5 DUP4 PUSH1 0xFF AND PUSH1 0x4 DUP2 LT PUSH2 0xCA1 JUMPI PUSH2 0xCA0 PUSH2 0x1873 JUMP JUMPDEST JUMPDEST PUSH1 0x20 MUL ADD MLOAD PUSH1 0xFF AND SUB PUSH2 0xCB8 JUMPI PUSH0 SWAP3 POP POP POP PUSH2 0xCD9 JUMP JUMPDEST DUP1 DUP1 PUSH1 0x1 ADD SWAP2 POP POP PUSH2 0xC61 JUMP JUMPDEST POP DUP1 DUP1 PUSH1 0x1 ADD SWAP2 POP POP PUSH2 0xC44 JUMP JUMPDEST POP PUSH1 0x1 SWAP1 POP JUMPDEST SWAP2 SWAP1 POP JUMP JUMPDEST PUSH2 0xCE6 PUSH2 0xECE JUMP JUMPDEST PUSH20 0xFFFFFFFFFFFFFFFFFFFFFFFFFFFFFFFFFFFFFFFF AND PUSH2 0xD04 PUSH2 0x61B JUMP JUMPDEST PUSH20 0xFFFFFFFFFFFFFFFFFFFFFFFFFFFFFFFFFFFFFFFF AND EQ PUSH2 0xD63 JUMPI PUSH2 0xD27 PUSH2 0xECE JUMP JUMPDEST PUSH1 0x40 MLOAD PUSH32 0x118CDAA700000000000000000000000000000000000000000000000000000000 DUP2 MSTORE PUSH1 0x4 ADD PUSH2 0xD5A SWAP2 SWAP1 PUSH2 0x128F JUMP JUMPDEST PUSH1 0x40 MLOAD DUP1 SWAP2 SUB SWAP1 REVERT JUMPDEST JUMP JUMPDEST PUSH0 PUSH0 PUSH0 SWAP1 SLOAD SWAP1 PUSH2 0x100 EXP SWAP1 DIV PUSH20 0xFFFFFFFFFFFFFFFFFFFFFFFFFFFFFFFFFFFFFFFF AND SWAP1 POP DUP2 PUSH0 PUSH0 PUSH2 0x100 EXP DUP2 SLOAD DUP2 PUSH20 0xFFFFFFFFFFFFFFFFFFFFFFFFFFFFFFFFFFFFFFFF MUL NOT AND SWAP1 DUP4 PUSH20 0xFFFFFFFFFFFFFFFFFFFFFFFFFFFFFFFFFFFFFFFF AND MUL OR SWAP1 SSTORE POP DUP2 PUSH20 0xFFFFFFFFFFFFFFFFFFFFFFFFFFFFFFFFFFFFFFFF AND DUP2 PUSH20 0xFFFFFFFFFFFFFFFFFFFFFFFFFFFFFFFFFFFFFFFF AND PUSH32 0x8BE0079C531659141344CD1FD0A4F28419497F9722A3DAAFE3B4186F6B6457E0 PUSH1 0x40 MLOAD PUSH1 0x40 MLOAD DUP1 SWAP2 SUB SWAP1 LOG3 POP POP JUMP JUMPDEST PUSH0 PUSH0 PUSH0 SWAP1 POP JUMPDEST PUSH1 0x4 DUP2 PUSH1 0xFF AND LT ISZERO PUSH2 0xEC2 JUMPI PUSH0 PUSH0 SWAP1 POP PUSH0 PUSH0 SWAP1 POP JUMPDEST PUSH1 0x4 DUP2 PUSH1 0xFF AND LT ISZERO PUSH2 0xEA4 JUMPI DUP5 DUP2 PUSH1 0xFF AND PUSH1 0x4 DUP2 LT PUSH2 0xE63 JUMPI PUSH2 0xE62 PUSH2 0x1873 JUMP JUMPDEST JUMPDEST PUSH1 0x20 MUL ADD MLOAD PUSH1 0xFF AND DUP7 DUP5 PUSH1 0xFF AND PUSH1 0x4 DUP2 LT PUSH2 0xE81 JUMPI PUSH2 0xE80 PUSH2 0x1873 JUMP JUMPDEST JUMPDEST PUSH1 0x20 MUL ADD MLOAD PUSH1 0xFF AND SUB PUSH2 0xE97 JUMPI PUSH1 0x1 SWAP2 POP PUSH2 0xEA4 JUMP JUMPDEST DUP1 DUP1 PUSH1 0x1 ADD SWAP2 POP POP PUSH2 0xE41 JUMP JUMPDEST POP DUP1 PUSH2 0xEB4 JUMPI PUSH0 SWAP3 POP POP POP PUSH2 0xEC8 JUMP JUMPDEST POP DUP1 DUP1 PUSH1 0x1 ADD SWAP2 POP POP PUSH2 0xE2C JUMP JUMPDEST POP PUSH1 0x1 SWAP1 POP JUMPDEST SWAP3 SWAP2 POP POP JUMP JUMPDEST PUSH0 CALLER SWAP1 POP SWAP1 JUMP JUMPDEST DUP3 PUSH1 0x4 PUSH1 0x1F ADD PUSH1 0x20 SWAP1 DIV DUP2 ADD SWAP3 DUP3 ISZERO PUSH2 0xF5B JUMPI SWAP2 PUSH1 0x20 MUL DUP3 ADD PUSH0 JUMPDEST DUP4 DUP3 GT ISZERO PUSH2 0xF2D JUMPI DUP4 MLOAD DUP4 DUP3 PUSH2 0x100 EXP DUP2 SLOAD DUP2 PUSH1 0xFF MUL NOT AND SWAP1 DUP4 PUSH1 0xFF AND MUL OR SWAP1 SSTORE POP SWAP3 PUSH1 0x20 ADD SWAP3 PUSH1 0x1 ADD PUSH1 0x20 DUP2 PUSH0 ADD DIV SWAP3 DUP4 ADD SWAP3 PUSH1 0x1 SUB MUL PUSH2 0xEF0 JUMP JUMPDEST DUP1 ISZERO PUSH2 0xF59 JUMPI DUP3 DUP2 PUSH2 0x100 EXP DUP2 SLOAD SWAP1 PUSH1 0xFF MUL NOT AND SWAP1 SSTORE PUSH1 0x1 ADD PUSH1 0x20 DUP2 PUSH0 ADD DIV SWAP3 DUP4 ADD SWAP3 PUSH1 0x1 SUB MUL PUSH2 0xF2D JUMP JUMPDEST POP JUMPDEST POP SWAP1 POP PUSH2 0xF68 SWAP2 SWAP1 PUSH2 0xF6C JUMP JUMPDEST POP SWAP1 JUMP JUMPDEST JUMPDEST DUP1 DUP3 GT ISZERO PUSH2 0xF83 JUMPI PUSH0 DUP2 PUSH0 SWAP1 SSTORE POP PUSH1 0x1 ADD PUSH2 0xF6D JUMP JUMPDEST POP SWAP1 JUMP JUMPDEST PUSH0 DUP2 SWAP1 POP SWAP2 SWAP1 POP JUMP JUMPDEST PUSH2 0xF99 DUP2 PUSH2 0xF87 JUMP JUMPDEST DUP3 MSTORE POP POP JUMP JUMPDEST PUSH0 PUSH1 0x20 DUP3 ADD SWAP1 POP PUSH2 0xFB2 PUSH0 DUP4 ADD DUP5 PUSH2 0xF90 JUMP JUMPDEST SWAP3 SWAP2 POP POP JUMP JUMPDEST PUSH0 DUP2 MLOAD SWAP1 POP SWAP2 SWAP1 POP JUMP JUMPDEST PUSH0 DUP3 DUP3 MSTORE PUSH1 0x20 DUP3 ADD SWAP1 POP SWAP3 SWAP2 POP POP JUMP JUMPDEST DUP3 DUP2 DUP4 MCOPY PUSH0 DUP4 DUP4 ADD MSTORE POP POP POP JUMP JUMPDEST PUSH0 PUSH1 0x1F NOT PUSH1 0x1F DUP4 ADD AND SWAP1 POP SWAP2 SWAP1 POP JUMP JUMPDEST PUSH0 PUSH2 0xFFA DUP3 PUSH2 0xFB8 JUMP JUMPDEST PUSH2 0x1004 DUP2 DUP6 PUSH2 0xFC2 JUMP JUMPDEST SWAP4 POP PUSH2 0x1014 DUP2 DUP6 PUSH1 0x20 DUP7 ADD PUSH2 0xFD2 JUMP JUMPDEST PUSH2 0x101D DUP2 PUSH2 0xFE0 JUMP JUMPDEST DUP5 ADD SWAP2 POP POP SWAP3 SWAP2 POP POP JUMP JUMPDEST PUSH0 PUSH1 0x20 DUP3 ADD SWAP1 POP DUP2 DUP2 SUB PUSH0 DUP4 ADD MSTORE PUSH2 0x1040 DUP2 DUP5 PUSH2 0xFF0 JUMP JUMPDEST SWAP1 POP SWAP3 SWAP2 POP POP JUMP JUMPDEST PUSH0 PUSH1 0x40 MLOAD SWAP1 POP SWAP1 JUMP JUMPDEST PUSH0 PUSH0 REVERT JUMPDEST PUSH0 PUSH0 REVERT JUMPDEST PUSH0 PUSH0 REVERT JUMPDEST PUSH32 0x4E487B7100000000000000000000000000000000000000000000000000000000 PUSH0 MSTORE PUSH1 0x41 PUSH1 0x4 MSTORE PUSH1 0x24 PUSH0 REVERT JUMPDEST PUSH2 0x1093 DUP3 PUSH2 0xFE0 JUMP JUMPDEST DUP2 ADD DUP2 DUP2 LT PUSH8 0xFFFFFFFFFFFFFFFF DUP3 GT OR ISZERO PUSH2 0x10B2 JUMPI PUSH2 0x10B1 PUSH2 0x105D JUMP JUMPDEST JUMPDEST DUP1 PUSH1 0x40 MSTORE POP POP POP JUMP JUMPDEST PUSH0 PUSH2 0x10C4 PUSH2 0x1048 JUMP JUMPDEST SWAP1 POP PUSH2 0x10D0 DUP3 DUP3 PUSH2 0x108A JUMP JUMPDEST SWAP2 SWAP1 POP JUMP JUMPDEST PUSH0 PUSH8 0xFFFFFFFFFFFFFFFF DUP3 GT ISZERO PUSH2 0x10EF JUMPI PUSH2 0x10EE PUSH2 0x105D JUMP JUMPDEST JUMPDEST PUSH1 0x20 DUP3 MUL SWAP1 POP SWAP2 SWAP1 POP JUMP JUMPDEST PUSH0 PUSH0 REVERT JUMPDEST PUSH0 PUSH1 0xFF DUP3 AND SWAP1 POP SWAP2 SWAP1 POP JUMP JUMPDEST PUSH2 0x1113 DUP2 PUSH2 0x10FE JUMP JUMPDEST DUP2 EQ PUSH2 0x111D JUMPI PUSH0 PUSH0 REVERT JUMPDEST POP JUMP JUMPDEST PUSH0 DUP2 CALLDATALOAD SWAP1 POP PUSH2 0x112E DUP2 PUSH2 0x110A JUMP JUMPDEST SWAP3 SWAP2 POP POP JUMP JUMPDEST PUSH0 PUSH2 0x1146 PUSH2 0x1141 DUP5 PUSH2 0x10D5 JUMP JUMPDEST PUSH2 0x10BB JUMP JUMPDEST SWAP1 POP DUP1 PUSH1 0x20 DUP5 MUL DUP4 ADD DUP6 DUP2 GT ISZERO PUSH2 0x1160 JUMPI PUSH2 0x115F PUSH2 0x10FA JUMP JUMPDEST JUMPDEST DUP4 JUMPDEST DUP2 DUP2 LT ISZERO PUSH2 0x1189 JUMPI DUP1 PUSH2 0x1175 DUP9 DUP3 PUSH2 0x1120 JUMP JUMPDEST DUP5 MSTORE PUSH1 0x20 DUP5 ADD SWAP4 POP POP PUSH1 0x20 DUP2 ADD SWAP1 POP PUSH2 0x1162 JUMP JUMPDEST POP POP POP SWAP4 SWAP3 POP POP POP JUMP JUMPDEST PUSH0 DUP3 PUSH1 0x1F DUP4 ADD SLT PUSH2 0x11A7 JUMPI PUSH2 0x11A6 PUSH2 0x1059 JUMP JUMPDEST JUMPDEST PUSH1 0x4 PUSH2 0x11B4 DUP5 DUP3 DUP6 PUSH2 0x1134 JUMP JUMPDEST SWAP2 POP POP SWAP3 SWAP2 POP POP JUMP JUMPDEST PUSH0 PUSH1 0x80 DUP3 DUP5 SUB SLT ISZERO PUSH2 0x11D2 JUMPI PUSH2 0x11D1 PUSH2 0x1051 JUMP JUMPDEST JUMPDEST PUSH0 PUSH2 0x11DF DUP5 DUP3 DUP6 ADD PUSH2 0x1193 JUMP JUMPDEST SWAP2 POP POP SWAP3 SWAP2 POP POP JUMP JUMPDEST PUSH2 0x11F1 DUP2 PUSH2 0xF87 JUMP JUMPDEST DUP2 EQ PUSH2 0x11FB JUMPI PUSH0 PUSH0 REVERT JUMPDEST POP JUMP JUMPDEST PUSH0 DUP2 CALLDATALOAD SWAP1 POP PUSH2 0x120C DUP2 PUSH2 0x11E8 JUMP JUMPDEST SWAP3 SWAP2 POP POP JUMP JUMPDEST PUSH0 PUSH0 PUSH1 0x40 DUP4 DUP6 SUB SLT ISZERO PUSH2 0x1228 JUMPI PUSH2 0x1227 PUSH2 0x1051 JUMP JUMPDEST JUMPDEST PUSH0 PUSH2 0x1235 DUP6 DUP3 DUP7 ADD PUSH2 0x11FE JUMP JUMPDEST SWAP3 POP POP PUSH1 0x20 PUSH2 0x1246 DUP6 DUP3 DUP7 ADD PUSH2 0x11FE JUMP JUMPDEST SWAP2 POP POP SWAP3 POP SWAP3 SWAP1 POP JUMP JUMPDEST PUSH0 PUSH20 0xFFFFFFFFFFFFFFFFFFFFFFFFFFFFFFFFFFFFFFFF DUP3 AND SWAP1 POP SWAP2 SWAP1 POP JUMP JUMPDEST PUSH0 PUSH2 0x1279 DUP3 PUSH2 0x1250 JUMP JUMPDEST SWAP1 POP SWAP2 SWAP1 POP JUMP JUMPDEST PUSH2 0x1289 DUP2 PUSH2 0x126F JUMP JUMPDEST DUP3 MSTORE POP POP JUMP JUMPDEST PUSH0 PUSH1 0x20 DUP3 ADD SWAP1 POP PUSH2 0x12A2 PUSH0 DUP4 ADD DUP5 PUSH2 0x1280 JUMP JUMPDEST SWAP3 SWAP2 POP POP JUMP JUMPDEST PUSH0 PUSH1 0x20 DUP3 DUP5 SUB SLT ISZERO PUSH2 0x12BD JUMPI PUSH2 0x12BC PUSH2 0x1051 JUMP JUMPDEST JUMPDEST PUSH0 PUSH2 0x12CA DUP5 DUP3 DUP6 ADD PUSH2 0x11FE JUMP JUMPDEST SWAP2 POP POP SWAP3 SWAP2 POP POP JUMP JUMPDEST PUSH0 DUP2 ISZERO ISZERO SWAP1 POP SWAP2 SWAP1 POP JUMP JUMPDEST PUSH2 0x12E7 DUP2 PUSH2 0x12D3 JUMP JUMPDEST DUP3 MSTORE POP POP JUMP JUMPDEST PUSH0 PUSH1 0x20 DUP3 ADD SWAP1 POP PUSH2 0x1300 PUSH0 DUP4 ADD DUP5 PUSH2 0x12DE JUMP JUMPDEST SWAP3 SWAP2 POP POP JUMP JUMPDEST PUSH0 DUP2 SWAP1 POP SWAP2 SWAP1 POP JUMP JUMPDEST PUSH0 PUSH2 0x1329 PUSH2 0x1324 PUSH2 0x131F DUP5 PUSH2 0x1250 JUMP JUMPDEST PUSH2 0x1306 JUMP JUMPDEST PUSH2 0x1250 JUMP JUMPDEST SWAP1 POP SWAP2 SWAP1 POP JUMP JUMPDEST PUSH0 PUSH2 0x133A DUP3 PUSH2 0x130F JUMP JUMPDEST SWAP1 POP SWAP2 SWAP1 POP JUMP JUMPDEST PUSH0 PUSH2 0x134B DUP3 PUSH2 0x1330 JUMP JUMPDEST SWAP1 POP SWAP2 SWAP1 POP JUMP JUMPDEST PUSH2 0x135B DUP2 PUSH2 0x1341 JUMP JUMPDEST DUP3 MSTORE POP POP JUMP JUMPDEST PUSH0 PUSH1 0x20 DUP3 ADD SWAP1 POP PUSH2 0x1374 PUSH0 DUP4 ADD DUP5 PUSH2 0x1352 JUMP JUMPDEST SWAP3 SWAP2 POP POP JUMP JUMPDEST PUSH0 PUSH2 0x1384 DUP3 PUSH2 0x1330 JUMP JUMPDEST SWAP1 POP SWAP2 SWAP1 POP JUMP JUMPDEST PUSH2 0x1394 DUP2 PUSH2 0x137A JUMP JUMPDEST DUP3 MSTORE POP POP JUMP JUMPDEST PUSH0 PUSH1 0x20 DUP3 ADD SWAP1 POP PUSH2 0x13AD PUSH0 DUP4 ADD DUP5 PUSH2 0x138B JUMP JUMPDEST SWAP3 SWAP2 POP POP JUMP JUMPDEST PUSH2 0x13BC DUP2 PUSH2 0x126F JUMP JUMPDEST DUP2 EQ PUSH2 0x13C6 JUMPI PUSH0 PUSH0 REVERT JUMPDEST POP JUMP JUMPDEST PUSH0 DUP2 CALLDATALOAD SWAP1 POP PUSH2 0x13D7 DUP2 PUSH2 0x13B3 JUMP JUMPDEST SWAP3 SWAP2 POP POP JUMP JUMPDEST PUSH0 PUSH1 0x20 DUP3 DUP5 SUB SLT ISZERO PUSH2 0x13F2 JUMPI PUSH2 0x13F1 PUSH2 0x1051 JUMP JUMPDEST JUMPDEST PUSH0 PUSH2 0x13FF DUP5 DUP3 DUP6 ADD PUSH2 0x13C9 JUMP JUMPDEST SWAP2 POP POP SWAP3 SWAP2 POP POP JUMP JUMPDEST PUSH2 0x1411 DUP2 PUSH2 0x10FE JUMP JUMPDEST DUP3 MSTORE POP POP JUMP JUMPDEST PUSH0 PUSH1 0x20 DUP3 ADD SWAP1 POP PUSH2 0x142A PUSH0 DUP4 ADD DUP5 PUSH2 0x1408 JUMP JUMPDEST SWAP3 SWAP2 POP POP JUMP JUMPDEST PUSH0 PUSH0 REVERT JUMPDEST PUSH0 PUSH8 0xFFFFFFFFFFFFFFFF DUP3 GT ISZERO PUSH2 0x144E JUMPI PUSH2 0x144D PUSH2 0x105D JUMP JUMPDEST JUMPDEST PUSH2 0x1457 DUP3 PUSH2 0xFE0 JUMP JUMPDEST SWAP1 POP PUSH1 0x20 DUP2 ADD SWAP1 POP SWAP2 SWAP1 POP JUMP JUMPDEST PUSH0 PUSH2 0x1476 PUSH2 0x1471 DUP5 PUSH2 0x1434 JUMP JUMPDEST PUSH2 0x10BB JUMP JUMPDEST SWAP1 POP DUP3 DUP2 MSTORE PUSH1 0x20 DUP2 ADD DUP5 DUP5 DUP5 ADD GT ISZERO PUSH2 0x1492 JUMPI PUSH2 0x1491 PUSH2 0x1430 JUMP JUMPDEST JUMPDEST PUSH2 0x149D DUP5 DUP3 DUP6 PUSH2 0xFD2 JUMP JUMPDEST POP SWAP4 SWAP3 POP POP POP JUMP JUMPDEST PUSH0 DUP3 PUSH1 0x1F DUP4 ADD SLT PUSH2 0x14B9 JUMPI PUSH2 0x14B8 PUSH2 0x1059 JUMP JUMPDEST JUMPDEST DUP2 MLOAD PUSH2 0x14C9 DUP5 DUP3 PUSH1 0x20 DUP7 ADD PUSH2 0x1464 JUMP JUMPDEST SWAP2 POP POP SWAP3 SWAP2 POP POP JUMP JUMPDEST PUSH0 PUSH1 0x20 DUP3 DUP5 SUB SLT ISZERO PUSH2 0x14E7 JUMPI PUSH2 0x14E6 PUSH2 0x1051 JUMP JUMPDEST JUMPDEST PUSH0 DUP3 ADD MLOAD PUSH8 0xFFFFFFFFFFFFFFFF DUP2 GT ISZERO PUSH2 0x1504 JUMPI PUSH2 0x1503 PUSH2 0x1055 JUMP JUMPDEST JUMPDEST PUSH2 0x1510 DUP5 DUP3 DUP6 ADD PUSH2 0x14A5 JUMP JUMPDEST SWAP2 POP POP SWAP3 SWAP2 POP POP JUMP JUMPDEST PUSH32 0x4E756D62657273206D75737420626520756E6971756500000000000000000000 PUSH0 DUP3 ADD MSTORE POP JUMP JUMPDEST PUSH0 PUSH2 0x154D PUSH1 0x16 DUP4 PUSH2 0xFC2 JUMP JUMPDEST SWAP2 POP PUSH2 0x1558 DUP3 PUSH2 0x1519 JUMP JUMPDEST PUSH1 0x20 DUP3 ADD SWAP1 POP SWAP2 SWAP1 POP JUMP JUMPDEST PUSH0 PUSH1 0x20 DUP3 ADD SWAP1 POP DUP2 DUP2 SUB PUSH0 DUP4 ADD MSTORE PUSH2 0x157A DUP2 PUSH2 0x1541 JUMP JUMPDEST SWAP1 POP SWAP2 SWAP1 POP JUMP JUMPDEST PUSH0 PUSH1 0x60 DUP3 ADD SWAP1 POP PUSH2 0x1594 PUSH0 DUP4 ADD DUP7 PUSH2 0x1280 JUMP JUMPDEST PUSH2 0x15A1 PUSH1 0x20 DUP4 ADD DUP6 PUSH2 0x1280 JUMP JUMPDEST PUSH2 0x15AE PUSH1 0x40 DUP4 ADD DUP5 PUSH2 0xF90 JUMP JUMPDEST SWAP5 SWAP4 POP POP POP POP JUMP JUMPDEST PUSH2 0x15BF DUP2 PUSH2 0x12D3 JUMP JUMPDEST DUP2 EQ PUSH2 0x15C9 JUMPI PUSH0 PUSH0 REVERT JUMPDEST POP JUMP JUMPDEST PUSH0 DUP2 MLOAD SWAP1 POP PUSH2 0x15DA DUP2 PUSH2 0x15B6 JUMP JUMPDEST SWAP3 SWAP2 POP POP JUMP JUMPDEST PUSH0 PUSH1 0x20 DUP3 DUP5 SUB SLT ISZERO PUSH2 0x15F5 JUMPI PUSH2 0x15F4 PUSH2 0x1051 JUMP JUMPDEST JUMPDEST PUSH0 PUSH2 0x1602 DUP5 DUP3 DUP6 ADD PUSH2 0x15CC JUMP JUMPDEST SWAP2 POP POP SWAP3 SWAP2 POP POP JUMP JUMPDEST PUSH32 0x5061796D656E74206661696C6564000000000000000000000000000000000000 PUSH0 DUP3 ADD MSTORE POP JUMP JUMPDEST PUSH0 PUSH2 0x163F PUSH1 0xE DUP4 PUSH2 0xFC2 JUMP JUMPDEST SWAP2 POP PUSH2 0x164A DUP3 PUSH2 0x160B JUMP JUMPDEST PUSH1 0x20 DUP3 ADD SWAP1 POP SWAP2 SWAP1 POP JUMP JUMPDEST PUSH0 PUSH1 0x20 DUP3 ADD SWAP1 POP DUP2 DUP2 SUB PUSH0 DUP4 ADD MSTORE PUSH2 0x166C DUP2 PUSH2 0x1633 JUMP JUMPDEST SWAP1 POP SWAP2 SWAP1 POP JUMP JUMPDEST PUSH32 0x416C726561647920647261776E00000000000000000000000000000000000000 PUSH0 DUP3 ADD MSTORE POP JUMP JUMPDEST PUSH0 PUSH2 0x16A7 PUSH1 0xD DUP4 PUSH2 0xFC2 JUMP JUMPDEST SWAP2 POP PUSH2 0x16B2 DUP3 PUSH2 0x1673 JUMP JUMPDEST PUSH1 0x20 DUP3 ADD SWAP1 POP SWAP2 SWAP1 POP JUMP JUMPDEST PUSH0 PUSH1 0x20 DUP3 ADD SWAP1 POP DUP2 DUP2 SUB PUSH0 DUP4 ADD MSTORE PUSH2 0x16D4 DUP2 PUSH2 0x169B JUMP JUMPDEST SWAP1 POP SWAP2 SWAP1 POP JUMP JUMPDEST PUSH32 0x4E487B7100000000000000000000000000000000000000000000000000000000 PUSH0 MSTORE PUSH1 0x11 PUSH1 0x4 MSTORE PUSH1 0x24 PUSH0 REVERT JUMPDEST PUSH0 PUSH2 0x1712 DUP3 PUSH2 0xF87 JUMP JUMPDEST SWAP2 POP PUSH2 0x171D DUP4 PUSH2 0xF87 JUMP JUMPDEST SWAP3 POP DUP3 DUP3 ADD SWAP1 POP DUP1 DUP3 GT ISZERO PUSH2 0x1735 JUMPI PUSH2 0x1734 PUSH2 0x16DB JUMP JUMPDEST JUMPDEST SWAP3 SWAP2 POP POP JUMP JUMPDEST PUSH32 0x546F6F206561726C790000000000000000000000000000000000000000000000 PUSH0 DUP3 ADD MSTORE POP JUMP JUMPDEST PUSH0 PUSH2 0x176F PUSH1 0x9 DUP4 PUSH2 0xFC2 JUMP JUMPDEST SWAP2 POP PUSH2 0x177A DUP3 PUSH2 0x173B JUMP JUMPDEST PUSH1 0x20 DUP3 ADD SWAP1 POP SWAP2 SWAP1 POP JUMP JUMPDEST PUSH0 PUSH1 0x20 DUP3 ADD SWAP1 POP DUP2 DUP2 SUB PUSH0 DUP4 ADD MSTORE PUSH2 0x179C DUP2 PUSH2 0x1763 JUMP JUMPDEST SWAP1 POP SWAP2 SWAP1 POP JUMP JUMPDEST PUSH32 0x57696E6E696E67206E756D62657273206D75737420626520756E697175650000 PUSH0 DUP3 ADD MSTORE POP JUMP JUMPDEST PUSH0 PUSH2 0x17D7 PUSH1 0x1E DUP4 PUSH2 0xFC2 JUMP JUMPDEST SWAP2 POP PUSH2 0x17E2 DUP3 PUSH2 0x17A3 JUMP JUMPDEST PUSH1 0x20 DUP3 ADD SWAP1 POP SWAP2 SWAP1 POP JUMP JUMPDEST PUSH0 PUSH1 0x20 DUP3 ADD SWAP1 POP DUP2 DUP2 SUB PUSH0 DUP4 ADD MSTORE PUSH2 0x1804 DUP2 PUSH2 0x17CB JUMP JUMPDEST SWAP1 POP SWAP2 SWAP1 POP JUMP JUMPDEST PUSH32 0x57696E6E696E67206E756D62657273206E6F7420647261776E00000000000000 PUSH0 DUP3 ADD MSTORE POP JUMP JUMPDEST PUSH0 PUSH2 0x183F PUSH1 0x19 DUP4 PUSH2 0xFC2 JUMP JUMPDEST SWAP2 POP PUSH2 0x184A DUP3 PUSH2 0x180B JUMP JUMPDEST PUSH1 0x20 DUP3 ADD SWAP1 POP SWAP2 SWAP1 POP JUMP JUMPDEST PUSH0 PUSH1 0x20 DUP3 ADD SWAP1 POP DUP2 DUP2 SUB PUSH0 DUP4 ADD MSTORE PUSH2 0x186C DUP2 PUSH2 0x1833 JUMP JUMPDEST SWAP1 POP SWAP2 SWAP1 POP JUMP JUMPDEST PUSH32 0x4E487B7100000000000000000000000000000000000000000000000000000000 PUSH0 MSTORE PUSH1 0x32 PUSH1 0x4 MSTORE PUSH1 0x24 PUSH0 REVERT JUMPDEST PUSH0 PUSH2 0x18AA DUP3 PUSH2 0xF87 JUMP JUMPDEST SWAP2 POP PUSH2 0x18B5 DUP4 PUSH2 0xF87 JUMP JUMPDEST SWAP3 POP DUP3 DUP3 MUL PUSH2 0x18C3 DUP2 PUSH2 0xF87 JUMP JUMPDEST SWAP2 POP DUP3 DUP3 DIV DUP5 EQ DUP4 ISZERO OR PUSH2 0x18DA JUMPI PUSH2 0x18D9 PUSH2 0x16DB JUMP JUMPDEST JUMPDEST POP SWAP3 SWAP2 POP POP JUMP JUMPDEST PUSH0 PUSH1 0x40 DUP3 ADD SWAP1 POP PUSH2 0x18F4 PUSH0 DUP4 ADD DUP6 PUSH2 0x1280 JUMP JUMPDEST PUSH2 0x1901 PUSH1 0x20 DUP4 ADD DUP5 PUSH2 0xF90 JUMP JUMPDEST SWAP4 SWAP3 POP POP POP JUMP JUMPDEST PUSH32 0x526577617264207472616E73666572206661696C656400000000000000000000 PUSH0 DUP3 ADD MSTORE POP JUMP JUMPDEST PUSH0 PUSH2 0x193C PUSH1 0x16 DUP4 PUSH2 0xFC2 JUMP JUMPDEST SWAP2 POP PUSH2 0x1947 DUP3 PUSH2 0x1908 JUMP JUMPDEST PUSH1 0x20 DUP3 ADD SWAP1 POP SWAP2 SWAP1 POP JUMP JUMPDEST PUSH0 PUSH1 0x20 DUP3 ADD SWAP1 POP DUP2 DUP2 SUB PUSH0 DUP4 ADD MSTORE PUSH2 0x1969 DUP2 PUSH2 0x1930 JUMP JUMPDEST SWAP1 POP SWAP2 SWAP1 POP JUMP JUMPDEST PUSH0 PUSH2 0x197A DUP3 PUSH2 0x10FE JUMP JUMPDEST SWAP2 POP PUSH2 0x1985 DUP4 PUSH2 0x10FE JUMP JUMPDEST SWAP3 POP DUP3 DUP3 ADD SWAP1 POP PUSH1 0xFF DUP2 GT ISZERO PUSH2 0x199E JUMPI PUSH2 0x199D PUSH2 0x16DB JUMP JUMPDEST JUMPDEST SWAP3 SWAP2 POP POP JUMP INVALID LOG2 PUSH5 0x6970667358 0x22 SLT KECCAK256 CALLF 0x2E4F 0x29 LT SWAP12 BALANCE 0x28 PUSH27 0x8A9043C1D0DE50A2D2A4191F45562CEFF7ED1115B70AB64736F6C PUSH4 0x4300081E STOP CALLER "
				},
				"gasEstimates": {
					"creation": {
						"codeDepositCost": "1323600",
						"executionCost": "infinite",
						"totalCost": "infinite"
					},
					"external": {
						"Token()": "infinite",
						"buyTicket(uint8[4])": "infinite",
						"claimReward(uint256)": "infinite",
						"currentLotteryId()": "2514",
						"drawWinningNumbers(uint8[4])": "infinite",
						"getPolTokenName()": "infinite",
						"isDrawn(uint256)": "2852",
						"lastDrawTime()": "2470",
						"lotteryDuration()": "2493",
						"lotteryTickets(uint256,uint256)": "infinite",
						"owner()": "2559",
						"polToken()": "infinite",
						"renounceOwnership()": "infinite",
						"ticketPrice()": "2449",
						"transferOwnership(address)": "infinite",
						"winningNumbers(uint256,uint256)": "infinite"
					},
					"internal": {
						"_areUnique(uint8[4] memory)": "infinite",
						"_matchNumbers(uint8[4] memory,uint8[4] memory)": "infinite"
					}
				},
				"methodIdentifiers": {
					"Token()": "c2412676",
					"buyTicket(uint8[4])": "3d4962ed",
					"claimReward(uint256)": "ae169a50",
					"currentLotteryId()": "6be4097c",
					"drawWinningNumbers(uint8[4])": "a5234736",
					"getPolTokenName()": "19fb30dd",
					"isDrawn(uint256)": "6b35f5ce",
					"lastDrawTime()": "5cbbd635",
					"lotteryDuration()": "2d97902f",
					"lotteryTickets(uint256,uint256)": "49c0de88",
					"owner()": "8da5cb5b",
					"polToken()": "b6658d07",
					"renounceOwnership()": "715018a6",
					"ticketPrice()": "1209b1f6",
					"transferOwnership(address)": "f2fde38b",
					"winningNumbers(uint256,uint256)": "f98d487f"
				}
			},
			"storageLayout": {
				"storage": [
					{
						"astId": 8,
						"contract": "contracts/lottery.sol:Lottery",
						"label": "_owner",
						"offset": 0,
						"slot": "0",
						"type": "t_address"
					},
					{
						"astId": 291,
						"contract": "contracts/lottery.sol:Lottery",
						"label": "polToken",
						"offset": 0,
						"slot": "1",
						"type": "t_contract(IERC20)225"
					},
					{
						"astId": 293,
						"contract": "contracts/lottery.sol:Lottery",
						"label": "ticketPrice",
						"offset": 0,
						"slot": "2",
						"type": "t_uint256"
					},
					{
						"astId": 295,
						"contract": "contracts/lottery.sol:Lottery",
						"label": "lotteryDuration",
						"offset": 0,
						"slot": "3",
						"type": "t_uint256"
					},
					{
						"astId": 298,
						"contract": "contracts/lottery.sol:Lottery",
						"label": "Token",
						"offset": 0,
						"slot": "4",
						"type": "t_contract(IERC20Metadata)251"
					},
					{
						"astId": 300,
						"contract": "contracts/lottery.sol:Lottery",
						"label": "currentLotteryId",
						"offset": 0,
						"slot": "5",
						"type": "t_uint256"
					},
					{
						"astId": 302,
						"contract": "contracts/lottery.sol:Lottery",
						"label": "lastDrawTime",
						"offset": 0,
						"slot": "6",
						"type": "t_uint256"
					},
					{
						"astId": 305,
						"contract": "contracts/lottery.sol:Lottery",
						"label": "VALID_ERC20_TOKEN_ADDRESS",
						"offset": 0,
						"slot": "7",
						"type": "t_address"
					},
					{
						"astId": 318,
						"contract": "contracts/lottery.sol:Lottery",
						"label": "lotteryTickets",
						"offset": 0,
						"slot": "8",
						"type": "t_mapping(t_uint256,t_array(t_struct(Ticket)312_storage)dyn_storage)"
					},
					{
						"astId": 324,
						"contract": "contracts/lottery.sol:Lottery",
						"label": "winningNumbers",
						"offset": 0,
						"slot": "9",
						"type": "t_mapping(t_uint256,t_array(t_uint8)4_storage)"
					},
					{
						"astId": 328,
						"contract": "contracts/lottery.sol:Lottery",
						"label": "isDrawn",
						"offset": 0,
						"slot": "10",
						"type": "t_mapping(t_uint256,t_bool)"
					}
				],
				"types": {
					"t_address": {
						"encoding": "inplace",
						"label": "address",
						"numberOfBytes": "20"
					},
					"t_array(t_struct(Ticket)312_storage)dyn_storage": {
						"base": "t_struct(Ticket)312_storage",
						"encoding": "dynamic_array",
						"label": "struct Lottery.Ticket[]",
						"numberOfBytes": "32"
					},
					"t_array(t_uint8)4_storage": {
						"base": "t_uint8",
						"encoding": "inplace",
						"label": "uint8[4]",
						"numberOfBytes": "32"
					},
					"t_bool": {
						"encoding": "inplace",
						"label": "bool",
						"numberOfBytes": "1"
					},
					"t_contract(IERC20)225": {
						"encoding": "inplace",
						"label": "contract IERC20",
						"numberOfBytes": "20"
					},
					"t_contract(IERC20Metadata)251": {
						"encoding": "inplace",
						"label": "contract IERC20Metadata",
						"numberOfBytes": "20"
					},
					"t_mapping(t_uint256,t_array(t_struct(Ticket)312_storage)dyn_storage)": {
						"encoding": "mapping",
						"key": "t_uint256",
						"label": "mapping(uint256 => struct Lottery.Ticket[])",
						"numberOfBytes": "32",
						"value": "t_array(t_struct(Ticket)312_storage)dyn_storage"
					},
					"t_mapping(t_uint256,t_array(t_uint8)4_storage)": {
						"encoding": "mapping",
						"key": "t_uint256",
						"label": "mapping(uint256 => uint8[4])",
						"numberOfBytes": "32",
						"value": "t_array(t_uint8)4_storage"
					},
					"t_mapping(t_uint256,t_bool)": {
						"encoding": "mapping",
						"key": "t_uint256",
						"label": "mapping(uint256 => bool)",
						"numberOfBytes": "32",
						"value": "t_bool"
					},
					"t_struct(Ticket)312_storage": {
						"encoding": "inplace",
						"label": "struct Lottery.Ticket",
						"members": [
							{
								"astId": 307,
								"contract": "contracts/lottery.sol:Lottery",
								"label": "buyer",
								"offset": 0,
								"slot": "0",
								"type": "t_address"
							},
							{
								"astId": 311,
								"contract": "contracts/lottery.sol:Lottery",
								"label": "numbers",
								"offset": 0,
								"slot": "1",
								"type": "t_array(t_uint8)4_storage"
							}
						],
						"numberOfBytes": "64"
					},
					"t_uint256": {
						"encoding": "inplace",
						"label": "uint256",
						"numberOfBytes": "32"
					},
					"t_uint8": {
						"encoding": "inplace",
						"label": "uint8",
						"numberOfBytes": "1"
					}
				}
			},
			"userdoc": {
				"kind": "user",
				"methods": {},
				"version": 1
			}
		}
	}
}