{
	"contracts/transfer.sol": {
		"TokenForwarder": {
			"abi": [
				{
					"anonymous": false,
					"inputs": [
						{
							"indexed": true,
							"internalType": "address",
							"name": "to",
							"type": "address"
						},
						{
							"indexed": false,
							"internalType": "uint256",
							"name": "amount",
							"type": "uint256"
						}
					],
					"name": "Forwarded",
					"type": "event"
				},
				{
					"anonymous": false,
					"inputs": [
						{
							"indexed": true,
							"internalType": "address",
							"name": "from",
							"type": "address"
						},
						{
							"indexed": false,
							"internalType": "uint256",
							"name": "amount",
							"type": "uint256"
						}
					],
					"name": "PaymentReceived",
					"type": "event"
				},
				{
					"inputs": [],
					"name": "RECEIVER",
					"outputs": [
						{
							"internalType": "address",
							"name": "",
							"type": "address"
						}
					],
					"stateMutability": "view",
					"type": "function"
				},
				{
					"inputs": [],
					"name": "payAndForward",
					"outputs": [],
					"stateMutability": "payable",
					"type": "function"
				}
			],
			"devdoc": {
				"kind": "dev",
				"methods": {},
				"version": 1
			},
			"evm": {
				"assembly": "    /* \"contracts/transfer.sol\":61:633  contract TokenForwarder {... */\n  mstore(0x40, 0x80)\n  callvalue\n  dup1\n  iszero\n  tag_1\n  jumpi\n  revert(0x00, 0x00)\ntag_1:\n  pop\n  dataSize(sub_0)\n  dup1\n  dataOffset(sub_0)\n  0x00\n  codecopy\n  0x00\n  return\nstop\n\nsub_0: assembly {\n        /* \"contracts/transfer.sol\":61:633  contract TokenForwarder {... */\n      mstore(0x40, 0x80)\n      jumpi(tag_1, lt(calldatasize, 0x04))\n      shr(0xe0, calldataload(0x00))\n      dup1\n      0xad7430cc\n      eq\n      tag_2\n      jumpi\n      dup1\n      0xcd10c1c8\n      eq\n      tag_3\n      jumpi\n    tag_1:\n      revert(0x00, 0x00)\n        /* \"contracts/transfer.sol\":92:169  address public constant RECEIVER = 0x5B38Da6a701c568545dCfcB03FcB875f56beddC4 */\n    tag_2:\n      callvalue\n      dup1\n      iszero\n      tag_4\n      jumpi\n      revert(0x00, 0x00)\n    tag_4:\n      pop\n      tag_5\n      tag_6\n      jump\t// in\n    tag_5:\n      mload(0x40)\n      tag_7\n      swap2\n      swap1\n      tag_8\n      jump\t// in\n    tag_7:\n      mload(0x40)\n      dup1\n      swap2\n      sub\n      swap1\n      return\n        /* \"contracts/transfer.sol\":304:630  function payAndForward() external payable {... */\n    tag_3:\n      tag_9\n      tag_10\n      jump\t// in\n    tag_9:\n      stop\n        /* \"contracts/transfer.sol\":92:169  address public constant RECEIVER = 0x5B38Da6a701c568545dCfcB03FcB875f56beddC4 */\n    tag_6:\n        /* \"contracts/transfer.sol\":127:169  0x5B38Da6a701c568545dCfcB03FcB875f56beddC4 */\n      0x5b38da6a701c568545dcfcb03fcb875f56beddc4\n        /* \"contracts/transfer.sol\":92:169  address public constant RECEIVER = 0x5B38Da6a701c568545dCfcB03FcB875f56beddC4 */\n      dup2\n      jump\t// out\n        /* \"contracts/transfer.sol\":304:630  function payAndForward() external payable {... */\n    tag_10:\n        /* \"contracts/transfer.sol\":377:378  0 */\n      0x00\n        /* \"contracts/transfer.sol\":365:374  msg.value */\n      callvalue\n        /* \"contracts/transfer.sol\":365:378  msg.value > 0 */\n      gt\n        /* \"contracts/transfer.sol\":357:396  require(msg.value > 0, \"Send some POL\") */\n      tag_12\n      jumpi\n      mload(0x40)\n      0x08c379a000000000000000000000000000000000000000000000000000000000\n      dup2\n      mstore\n      0x04\n      add\n      tag_13\n      swap1\n      tag_14\n      jump\t// in\n    tag_13:\n      mload(0x40)\n      dup1\n      swap2\n      sub\n      swap1\n      revert\n    tag_12:\n        /* \"contracts/transfer.sol\":410:422  bool success */\n      0x00\n        /* \"contracts/transfer.sol\":127:169  0x5B38Da6a701c568545dCfcB03FcB875f56beddC4 */\n      0x5b38da6a701c568545dcfcb03fcb875f56beddc4\n        /* \"contracts/transfer.sol\":428:450  payable(RECEIVER).call */\n      0xffffffffffffffffffffffffffffffffffffffff\n      and\n        /* \"contracts/transfer.sol\":458:467  msg.value */\n      callvalue\n        /* \"contracts/transfer.sol\":428:472  payable(RECEIVER).call{value: msg.value}(\"\") */\n      mload(0x40)\n      tag_15\n      swap1\n      tag_16\n      jump\t// in\n    tag_15:\n      0x00\n      mload(0x40)\n      dup1\n      dup4\n      sub\n      dup2\n      dup6\n      dup8\n      gas\n      call\n      swap3\n      pop\n      pop\n      pop\n      returndatasize\n      dup1\n      0x00\n      dup2\n      eq\n      tag_19\n      jumpi\n      mload(0x40)\n      swap2\n      pop\n      and(add(returndatasize, 0x3f), not(0x1f))\n      dup3\n      add\n      0x40\n      mstore\n      returndatasize\n      dup3\n      mstore\n      returndatasize\n      0x00\n      0x20\n      dup5\n      add\n      returndatacopy\n      jump(tag_18)\n    tag_19:\n      0x60\n      swap2\n      pop\n    tag_18:\n      pop\n        /* \"contracts/transfer.sol\":409:472  (bool success, ) = payable(RECEIVER).call{value: msg.value}(\"\") */\n      pop\n      swap1\n      pop\n        /* \"contracts/transfer.sol\":491:498  success */\n      dup1\n        /* \"contracts/transfer.sol\":483:520  require(success, \"Forwarding failed\") */\n      tag_20\n      jumpi\n      mload(0x40)\n      0x08c379a000000000000000000000000000000000000000000000000000000000\n      dup2\n      mstore\n      0x04\n      add\n      tag_21\n      swap1\n      tag_22\n      jump\t// in\n    tag_21:\n      mload(0x40)\n      dup1\n      swap2\n      sub\n      swap1\n      revert\n    tag_20:\n        /* \"contracts/transfer.sol\":554:564  msg.sender */\n      caller\n        /* \"contracts/transfer.sol\":538:576  PaymentReceived(msg.sender, msg.value) */\n      0xffffffffffffffffffffffffffffffffffffffff\n      and\n      0x6ef95f06320e7a25a04a175ca677b7052bdd97131872c2192525a629f51be770\n        /* \"contracts/transfer.sol\":566:575  msg.value */\n      callvalue\n        /* \"contracts/transfer.sol\":538:576  PaymentReceived(msg.sender, msg.value) */\n      mload(0x40)\n      tag_23\n      swap2\n      swap1\n      tag_24\n      jump\t// in\n    tag_23:\n      mload(0x40)\n      dup1\n      swap2\n      sub\n      swap1\n      log2\n        /* \"contracts/transfer.sol\":127:169  0x5B38Da6a701c568545dCfcB03FcB875f56beddC4 */\n      0x5b38da6a701c568545dcfcb03fcb875f56beddc4\n        /* \"contracts/transfer.sol\":592:622  Forwarded(RECEIVER, msg.value) */\n      0xffffffffffffffffffffffffffffffffffffffff\n      and\n      0x6f1deddfc28100c291fae8f1064e4a91e844f0841993bb8fba9a913c3b801d80\n        /* \"contracts/transfer.sol\":612:621  msg.value */\n      callvalue\n        /* \"contracts/transfer.sol\":592:622  Forwarded(RECEIVER, msg.value) */\n      mload(0x40)\n      tag_25\n      swap2\n      swap1\n      tag_24\n      jump\t// in\n    tag_25:\n      mload(0x40)\n      dup1\n      swap2\n      sub\n      swap1\n      log2\n        /* \"contracts/transfer.sol\":346:630  {... */\n      pop\n        /* \"contracts/transfer.sol\":304:630  function payAndForward() external payable {... */\n      jump\t// out\n        /* \"#utility.yul\":7:133   */\n    tag_26:\n        /* \"#utility.yul\":44:51   */\n      0x00\n        /* \"#utility.yul\":84:126   */\n      0xffffffffffffffffffffffffffffffffffffffff\n        /* \"#utility.yul\":77:82   */\n      dup3\n        /* \"#utility.yul\":73:127   */\n      and\n        /* \"#utility.yul\":62:127   */\n      swap1\n      pop\n        /* \"#utility.yul\":7:133   */\n      swap2\n      swap1\n      pop\n      jump\t// out\n        /* \"#utility.yul\":139:235   */\n    tag_27:\n        /* \"#utility.yul\":176:183   */\n      0x00\n        /* \"#utility.yul\":205:229   */\n      tag_42\n        /* \"#utility.yul\":223:228   */\n      dup3\n        /* \"#utility.yul\":205:229   */\n      tag_26\n      jump\t// in\n    tag_42:\n        /* \"#utility.yul\":194:229   */\n      swap1\n      pop\n        /* \"#utility.yul\":139:235   */\n      swap2\n      swap1\n      pop\n      jump\t// out\n        /* \"#utility.yul\":241:359   */\n    tag_28:\n        /* \"#utility.yul\":328:352   */\n      tag_44\n        /* \"#utility.yul\":346:351   */\n      dup2\n        /* \"#utility.yul\":328:352   */\n      tag_27\n      jump\t// in\n    tag_44:\n        /* \"#utility.yul\":323:326   */\n      dup3\n        /* \"#utility.yul\":316:353   */\n      mstore\n        /* \"#utility.yul\":241:359   */\n      pop\n      pop\n      jump\t// out\n        /* \"#utility.yul\":365:587   */\n    tag_8:\n        /* \"#utility.yul\":458:462   */\n      0x00\n        /* \"#utility.yul\":496:498   */\n      0x20\n        /* \"#utility.yul\":485:494   */\n      dup3\n        /* \"#utility.yul\":481:499   */\n      add\n        /* \"#utility.yul\":473:499   */\n      swap1\n      pop\n        /* \"#utility.yul\":509:580   */\n      tag_46\n        /* \"#utility.yul\":577:578   */\n      0x00\n        /* \"#utility.yul\":566:575   */\n      dup4\n        /* \"#utility.yul\":562:579   */\n      add\n        /* \"#utility.yul\":553:559   */\n      dup5\n        /* \"#utility.yul\":509:580   */\n      tag_28\n      jump\t// in\n    tag_46:\n        /* \"#utility.yul\":365:587   */\n      swap3\n      swap2\n      pop\n      pop\n      jump\t// out\n        /* \"#utility.yul\":593:762   */\n    tag_29:\n        /* \"#utility.yul\":677:688   */\n      0x00\n        /* \"#utility.yul\":711:717   */\n      dup3\n        /* \"#utility.yul\":706:709   */\n      dup3\n        /* \"#utility.yul\":699:718   */\n      mstore\n        /* \"#utility.yul\":751:755   */\n      0x20\n        /* \"#utility.yul\":746:749   */\n      dup3\n        /* \"#utility.yul\":742:756   */\n      add\n        /* \"#utility.yul\":727:756   */\n      swap1\n      pop\n        /* \"#utility.yul\":593:762   */\n      swap3\n      swap2\n      pop\n      pop\n      jump\t// out\n        /* \"#utility.yul\":768:931   */\n    tag_30:\n        /* \"#utility.yul\":908:923   */\n      0x53656e6420736f6d6520504f4c00000000000000000000000000000000000000\n        /* \"#utility.yul\":904:905   */\n      0x00\n        /* \"#utility.yul\":896:902   */\n      dup3\n        /* \"#utility.yul\":892:906   */\n      add\n        /* \"#utility.yul\":885:924   */\n      mstore\n        /* \"#utility.yul\":768:931   */\n      pop\n      jump\t// out\n        /* \"#utility.yul\":937:1303   */\n    tag_31:\n        /* \"#utility.yul\":1079:1082   */\n      0x00\n        /* \"#utility.yul\":1100:1167   */\n      tag_50\n        /* \"#utility.yul\":1164:1166   */\n      0x0d\n        /* \"#utility.yul\":1159:1162   */\n      dup4\n        /* \"#utility.yul\":1100:1167   */\n      tag_29\n      jump\t// in\n    tag_50:\n        /* \"#utility.yul\":1093:1167   */\n      swap2\n      pop\n        /* \"#utility.yul\":1176:1269   */\n      tag_51\n        /* \"#utility.yul\":1265:1268   */\n      dup3\n        /* \"#utility.yul\":1176:1269   */\n      tag_30\n      jump\t// in\n    tag_51:\n        /* \"#utility.yul\":1294:1296   */\n      0x20\n        /* \"#utility.yul\":1289:1292   */\n      dup3\n        /* \"#utility.yul\":1285:1297   */\n      add\n        /* \"#utility.yul\":1278:1297   */\n      swap1\n      pop\n        /* \"#utility.yul\":937:1303   */\n      swap2\n      swap1\n      pop\n      jump\t// out\n        /* \"#utility.yul\":1309:1728   */\n    tag_14:\n        /* \"#utility.yul\":1475:1479   */\n      0x00\n        /* \"#utility.yul\":1513:1515   */\n      0x20\n        /* \"#utility.yul\":1502:1511   */\n      dup3\n        /* \"#utility.yul\":1498:1516   */\n      add\n        /* \"#utility.yul\":1490:1516   */\n      swap1\n      pop\n        /* \"#utility.yul\":1562:1571   */\n      dup2\n        /* \"#utility.yul\":1556:1560   */\n      dup2\n        /* \"#utility.yul\":1552:1572   */\n      sub\n        /* \"#utility.yul\":1548:1549   */\n      0x00\n        /* \"#utility.yul\":1537:1546   */\n      dup4\n        /* \"#utility.yul\":1533:1550   */\n      add\n        /* \"#utility.yul\":1526:1573   */\n      mstore\n        /* \"#utility.yul\":1590:1721   */\n      tag_53\n        /* \"#utility.yul\":1716:1720   */\n      dup2\n        /* \"#utility.yul\":1590:1721   */\n      tag_31\n      jump\t// in\n    tag_53:\n        /* \"#utility.yul\":1582:1721   */\n      swap1\n      pop\n        /* \"#utility.yul\":1309:1728   */\n      swap2\n      swap1\n      pop\n      jump\t// out\n        /* \"#utility.yul\":1734:1881   */\n    tag_32:\n        /* \"#utility.yul\":1835:1846   */\n      0x00\n        /* \"#utility.yul\":1872:1875   */\n      dup2\n        /* \"#utility.yul\":1857:1875   */\n      swap1\n      pop\n        /* \"#utility.yul\":1734:1881   */\n      swap3\n      swap2\n      pop\n      pop\n      jump\t// out\n        /* \"#utility.yul\":1887:2001   */\n    tag_33:\n      pop\n      jump\t// out\n        /* \"#utility.yul\":2007:2405   */\n    tag_34:\n        /* \"#utility.yul\":2166:2169   */\n      0x00\n        /* \"#utility.yul\":2187:2270   */\n      tag_57\n        /* \"#utility.yul\":2268:2269   */\n      0x00\n        /* \"#utility.yul\":2263:2266   */\n      dup4\n        /* \"#utility.yul\":2187:2270   */\n      tag_32\n      jump\t// in\n    tag_57:\n        /* \"#utility.yul\":2180:2270   */\n      swap2\n      pop\n        /* \"#utility.yul\":2279:2372   */\n      tag_58\n        /* \"#utility.yul\":2368:2371   */\n      dup3\n        /* \"#utility.yul\":2279:2372   */\n      tag_33\n      jump\t// in\n    tag_58:\n        /* \"#utility.yul\":2397:2398   */\n      0x00\n        /* \"#utility.yul\":2392:2395   */\n      dup3\n        /* \"#utility.yul\":2388:2399   */\n      add\n        /* \"#utility.yul\":2381:2399   */\n      swap1\n      pop\n        /* \"#utility.yul\":2007:2405   */\n      swap2\n      swap1\n      pop\n      jump\t// out\n        /* \"#utility.yul\":2411:2790   */\n    tag_16:\n        /* \"#utility.yul\":2595:2598   */\n      0x00\n        /* \"#utility.yul\":2617:2764   */\n      tag_60\n        /* \"#utility.yul\":2760:2763   */\n      dup3\n        /* \"#utility.yul\":2617:2764   */\n      tag_34\n      jump\t// in\n    tag_60:\n        /* \"#utility.yul\":2610:2764   */\n      swap2\n      pop\n        /* \"#utility.yul\":2781:2784   */\n      dup2\n        /* \"#utility.yul\":2774:2784   */\n      swap1\n      pop\n        /* \"#utility.yul\":2411:2790   */\n      swap2\n      swap1\n      pop\n      jump\t// out\n        /* \"#utility.yul\":2796:2963   */\n    tag_35:\n        /* \"#utility.yul\":2936:2955   */\n      0x466f7277617264696e67206661696c6564000000000000000000000000000000\n        /* \"#utility.yul\":2932:2933   */\n      0x00\n        /* \"#utility.yul\":2924:2930   */\n      dup3\n        /* \"#utility.yul\":2920:2934   */\n      add\n        /* \"#utility.yul\":2913:2956   */\n      mstore\n        /* \"#utility.yul\":2796:2963   */\n      pop\n      jump\t// out\n        /* \"#utility.yul\":2969:3335   */\n    tag_36:\n        /* \"#utility.yul\":3111:3114   */\n      0x00\n        /* \"#utility.yul\":3132:3199   */\n      tag_63\n        /* \"#utility.yul\":3196:3198   */\n      0x11\n        /* \"#utility.yul\":3191:3194   */\n      dup4\n        /* \"#utility.yul\":3132:3199   */\n      tag_29\n      jump\t// in\n    tag_63:\n        /* \"#utility.yul\":3125:3199   */\n      swap2\n      pop\n        /* \"#utility.yul\":3208:3301   */\n      tag_64\n        /* \"#utility.yul\":3297:3300   */\n      dup3\n        /* \"#utility.yul\":3208:3301   */\n      tag_35\n      jump\t// in\n    tag_64:\n        /* \"#utility.yul\":3326:3328   */\n      0x20\n        /* \"#utility.yul\":3321:3324   */\n      dup3\n        /* \"#utility.yul\":3317:3329   */\n      add\n        /* \"#utility.yul\":3310:3329   */\n      swap1\n      pop\n        /* \"#utility.yul\":2969:3335   */\n      swap2\n      swap1\n      pop\n      jump\t// out\n        /* \"#utility.yul\":3341:3760   */\n    tag_22:\n        /* \"#utility.yul\":3507:3511   */\n      0x00\n        /* \"#utility.yul\":3545:3547   */\n      0x20\n        /* \"#utility.yul\":3534:3543   */\n      dup3\n        /* \"#utility.yul\":3530:3548   */\n      add\n        /* \"#utility.yul\":3522:3548   */\n      swap1\n      pop\n        /* \"#utility.yul\":3594:3603   */\n      dup2\n        /* \"#utility.yul\":3588:3592   */\n      dup2\n        /* \"#utility.yul\":3584:3604   */\n      sub\n        /* \"#utility.yul\":3580:3581   */\n      0x00\n        /* \"#utility.yul\":3569:3578   */\n      dup4\n        /* \"#utility.yul\":3565:3582   */\n      add\n        /* \"#utility.yul\":3558:3605   */\n      mstore\n        /* \"#utility.yul\":3622:3753   */\n      tag_66\n        /* \"#utility.yul\":3748:3752   */\n      dup2\n        /* \"#utility.yul\":3622:3753   */\n      tag_36\n      jump\t// in\n    tag_66:\n        /* \"#utility.yul\":3614:3753   */\n      swap1\n      pop\n        /* \"#utility.yul\":3341:3760   */\n      swap2\n      swap1\n      pop\n      jump\t// out\n        /* \"#utility.yul\":3766:3843   */\n    tag_37:\n        /* \"#utility.yul\":3803:3810   */\n      0x00\n        /* \"#utility.yul\":3832:3837   */\n      dup2\n        /* \"#utility.yul\":3821:3837   */\n      swap1\n      pop\n        /* \"#utility.yul\":3766:3843   */\n      swap2\n      swap1\n      pop\n      jump\t// out\n        /* \"#utility.yul\":3849:3967   */\n    tag_38:\n        /* \"#utility.yul\":3936:3960   */\n      tag_69\n        /* \"#utility.yul\":3954:3959   */\n      dup2\n        /* \"#utility.yul\":3936:3960   */\n      tag_37\n      jump\t// in\n    tag_69:\n        /* \"#utility.yul\":3931:3934   */\n      dup3\n        /* \"#utility.yul\":3924:3961   */\n      mstore\n        /* \"#utility.yul\":3849:3967   */\n      pop\n      pop\n      jump\t// out\n        /* \"#utility.yul\":3973:4195   */\n    tag_24:\n        /* \"#utility.yul\":4066:4070   */\n      0x00\n        /* \"#utility.yul\":4104:4106   */\n      0x20\n        /* \"#utility.yul\":4093:4102   */\n      dup3\n        /* \"#utility.yul\":4089:4107   */\n      add\n        /* \"#utility.yul\":4081:4107   */\n      swap1\n      pop\n        /* \"#utility.yul\":4117:4188   */\n      tag_71\n        /* \"#utility.yul\":4185:4186   */\n      0x00\n        /* \"#utility.yul\":4174:4183   */\n      dup4\n        /* \"#utility.yul\":4170:4187   */\n      add\n        /* \"#utility.yul\":4161:4167   */\n      dup5\n        /* \"#utility.yul\":4117:4188   */\n      tag_38\n      jump\t// in\n    tag_71:\n        /* \"#utility.yul\":3973:4195   */\n      swap3\n      swap2\n      pop\n      pop\n      jump\t// out\n\n    auxdata: 0xa26469706673582212207685b68cae1ad760f9a9b3806e2c8efc2d19fc2a7876b73655c3aef6c794751564736f6c634300081e0033\n}\n",
				"bytecode": {
					"linkReferences": {},
					"object": "6080604052348015600e575f5ffd5b506104098061001c5f395ff3fe608060405260043610610028575f3560e01c8063ad7430cc1461002c578063cd10c1c814610056575b5f5ffd5b348015610037575f5ffd5b50610040610060565b60405161004d9190610268565b60405180910390f35b61005e610078565b005b735b38da6a701c568545dcfcb03fcb875f56beddc481565b5f34116100ba576040517f08c379a00000000000000000000000000000000000000000000000000000000081526004016100b1906102db565b60405180910390fd5b5f735b38da6a701c568545dcfcb03fcb875f56beddc473ffffffffffffffffffffffffffffffffffffffff16346040516100f390610326565b5f6040518083038185875af1925050503d805f811461012d576040519150601f19603f3d011682016040523d82523d5f602084013e610132565b606091505b5050905080610176576040517f08c379a000000000000000000000000000000000000000000000000000000000815260040161016d90610384565b60405180910390fd5b3373ffffffffffffffffffffffffffffffffffffffff167f6ef95f06320e7a25a04a175ca677b7052bdd97131872c2192525a629f51be770346040516101bc91906103ba565b60405180910390a2735b38da6a701c568545dcfcb03fcb875f56beddc473ffffffffffffffffffffffffffffffffffffffff167f6f1deddfc28100c291fae8f1064e4a91e844f0841993bb8fba9a913c3b801d803460405161021e91906103ba565b60405180910390a250565b5f73ffffffffffffffffffffffffffffffffffffffff82169050919050565b5f61025282610229565b9050919050565b61026281610248565b82525050565b5f60208201905061027b5f830184610259565b92915050565b5f82825260208201905092915050565b7f53656e6420736f6d6520504f4c000000000000000000000000000000000000005f82015250565b5f6102c5600d83610281565b91506102d082610291565b602082019050919050565b5f6020820190508181035f8301526102f2816102b9565b9050919050565b5f81905092915050565b50565b5f6103115f836102f9565b915061031c82610303565b5f82019050919050565b5f61033082610306565b9150819050919050565b7f466f7277617264696e67206661696c65640000000000000000000000000000005f82015250565b5f61036e601183610281565b91506103798261033a565b602082019050919050565b5f6020820190508181035f83015261039b81610362565b9050919050565b5f819050919050565b6103b4816103a2565b82525050565b5f6020820190506103cd5f8301846103ab565b9291505056fea26469706673582212207685b68cae1ad760f9a9b3806e2c8efc2d19fc2a7876b73655c3aef6c794751564736f6c634300081e0033",
					"opcodes": "PUSH1 0x80 PUSH1 0x40 MSTORE CALLVALUE DUP1 ISZERO PUSH1 0xE JUMPI PUSH0 PUSH0 REVERT JUMPDEST POP PUSH2 0x409 DUP1 PUSH2 0x1C PUSH0 CODECOPY PUSH0 RETURN INVALID PUSH1 0x80 PUSH1 0x40 MSTORE PUSH1 0x4 CALLDATASIZE LT PUSH2 0x28 JUMPI PUSH0 CALLDATALOAD PUSH1 0xE0 SHR DUP1 PUSH4 0xAD7430CC EQ PUSH2 0x2C JUMPI DUP1 PUSH4 0xCD10C1C8 EQ PUSH2 0x56 JUMPI JUMPDEST PUSH0 PUSH0 REVERT JUMPDEST CALLVALUE DUP1 ISZERO PUSH2 0x37 JUMPI PUSH0 PUSH0 REVERT JUMPDEST POP PUSH2 0x40 PUSH2 0x60 JUMP JUMPDEST PUSH1 0x40 MLOAD PUSH2 0x4D SWAP2 SWAP1 PUSH2 0x268 JUMP JUMPDEST PUSH1 0x40 MLOAD DUP1 SWAP2 SUB SWAP1 RETURN JUMPDEST PUSH2 0x5E PUSH2 0x78 JUMP JUMPDEST STOP JUMPDEST PUSH20 0x5B38DA6A701C568545DCFCB03FCB875F56BEDDC4 DUP2 JUMP JUMPDEST PUSH0 CALLVALUE GT PUSH2 0xBA JUMPI PUSH1 0x40 MLOAD PUSH32 0x8C379A000000000000000000000000000000000000000000000000000000000 DUP2 MSTORE PUSH1 0x4 ADD PUSH2 0xB1 SWAP1 PUSH2 0x2DB JUMP JUMPDEST PUSH1 0x40 MLOAD DUP1 SWAP2 SUB SWAP1 REVERT JUMPDEST PUSH0 PUSH20 0x5B38DA6A701C568545DCFCB03FCB875F56BEDDC4 PUSH20 0xFFFFFFFFFFFFFFFFFFFFFFFFFFFFFFFFFFFFFFFF AND CALLVALUE PUSH1 0x40 MLOAD PUSH2 0xF3 SWAP1 PUSH2 0x326 JUMP JUMPDEST PUSH0 PUSH1 0x40 MLOAD DUP1 DUP4 SUB DUP2 DUP6 DUP8 GAS CALL SWAP3 POP POP POP RETURNDATASIZE DUP1 PUSH0 DUP2 EQ PUSH2 0x12D JUMPI PUSH1 0x40 MLOAD SWAP2 POP PUSH1 0x1F NOT PUSH1 0x3F RETURNDATASIZE ADD AND DUP3 ADD PUSH1 0x40 MSTORE RETURNDATASIZE DUP3 MSTORE RETURNDATASIZE PUSH0 PUSH1 0x20 DUP5 ADD RETURNDATACOPY PUSH2 0x132 JUMP JUMPDEST PUSH1 0x60 SWAP2 POP JUMPDEST POP POP SWAP1 POP DUP1 PUSH2 0x176 JUMPI PUSH1 0x40 MLOAD PUSH32 0x8C379A000000000000000000000000000000000000000000000000000000000 DUP2 MSTORE PUSH1 0x4 ADD PUSH2 0x16D SWAP1 PUSH2 0x384 JUMP JUMPDEST PUSH1 0x40 MLOAD DUP1 SWAP2 SUB SWAP1 REVERT JUMPDEST CALLER PUSH20 0xFFFFFFFFFFFFFFFFFFFFFFFFFFFFFFFFFFFFFFFF AND PUSH32 0x6EF95F06320E7A25A04A175CA677B7052BDD97131872C2192525A629F51BE770 CALLVALUE PUSH1 0x40 MLOAD PUSH2 0x1BC SWAP2 SWAP1 PUSH2 0x3BA JUMP JUMPDEST PUSH1 0x40 MLOAD DUP1 SWAP2 SUB SWAP1 LOG2 PUSH20 0x5B38DA6A701C568545DCFCB03FCB875F56BEDDC4 PUSH20 0xFFFFFFFFFFFFFFFFFFFFFFFFFFFFFFFFFFFFFFFF AND PUSH32 0x6F1DEDDFC28100C291FAE8F1064E4A91E844F0841993BB8FBA9A913C3B801D80 CALLVALUE PUSH1 0x40 MLOAD PUSH2 0x21E SWAP2 SWAP1 PUSH2 0x3BA JUMP JUMPDEST PUSH1 0x40 MLOAD DUP1 SWAP2 SUB SWAP1 LOG2 POP JUMP JUMPDEST PUSH0 PUSH20 0xFFFFFFFFFFFFFFFFFFFFFFFFFFFFFFFFFFFFFFFF DUP3 AND SWAP1 POP SWAP2 SWAP1 POP JUMP JUMPDEST PUSH0 PUSH2 0x252 DUP3 PUSH2 0x229 JUMP JUMPDEST SWAP1 POP SWAP2 SWAP1 POP JUMP JUMPDEST PUSH2 0x262 DUP2 PUSH2 0x248 JUMP JUMPDEST DUP3 MSTORE POP POP JUMP JUMPDEST PUSH0 PUSH1 0x20 DUP3 ADD SWAP1 POP PUSH2 0x27B PUSH0 DUP4 ADD DUP5 PUSH2 0x259 JUMP JUMPDEST SWAP3 SWAP2 POP POP JUMP JUMPDEST PUSH0 DUP3 DUP3 MSTORE PUSH1 0x20 DUP3 ADD SWAP1 POP SWAP3 SWAP2 POP POP JUMP JUMPDEST PUSH32 0x53656E6420736F6D6520504F4C00000000000000000000000000000000000000 PUSH0 DUP3 ADD MSTORE POP JUMP JUMPDEST PUSH0 PUSH2 0x2C5 PUSH1 0xD DUP4 PUSH2 0x281 JUMP JUMPDEST SWAP2 POP PUSH2 0x2D0 DUP3 PUSH2 0x291 JUMP JUMPDEST PUSH1 0x20 DUP3 ADD SWAP1 POP SWAP2 SWAP1 POP JUMP JUMPDEST PUSH0 PUSH1 0x20 DUP3 ADD SWAP1 POP DUP2 DUP2 SUB PUSH0 DUP4 ADD MSTORE PUSH2 0x2F2 DUP2 PUSH2 0x2B9 JUMP JUMPDEST SWAP1 POP SWAP2 SWAP1 POP JUMP JUMPDEST PUSH0 DUP2 SWAP1 POP SWAP3 SWAP2 POP POP JUMP JUMPDEST POP JUMP JUMPDEST PUSH0 PUSH2 0x311 PUSH0 DUP4 PUSH2 0x2F9 JUMP JUMPDEST SWAP2 POP PUSH2 0x31C DUP3 PUSH2 0x303 JUMP JUMPDEST PUSH0 DUP3 ADD SWAP1 POP SWAP2 SWAP1 POP JUMP JUMPDEST PUSH0 PUSH2 0x330 DUP3 PUSH2 0x306 JUMP JUMPDEST SWAP2 POP DUP2 SWAP1 POP SWAP2 SWAP1 POP JUMP JUMPDEST PUSH32 0x466F7277617264696E67206661696C6564000000000000000000000000000000 PUSH0 DUP3 ADD MSTORE POP JUMP JUMPDEST PUSH0 PUSH2 0x36E PUSH1 0x11 DUP4 PUSH2 0x281 JUMP JUMPDEST SWAP2 POP PUSH2 0x379 DUP3 PUSH2 0x33A JUMP JUMPDEST PUSH1 0x20 DUP3 ADD SWAP1 POP SWAP2 SWAP1 POP JUMP JUMPDEST PUSH0 PUSH1 0x20 DUP3 ADD SWAP1 POP DUP2 DUP2 SUB PUSH0 DUP4 ADD MSTORE PUSH2 0x39B DUP2 PUSH2 0x362 JUMP JUMPDEST SWAP1 POP SWAP2 SWAP1 POP JUMP JUMPDEST PUSH0 DUP2 SWAP1 POP SWAP2 SWAP1 POP JUMP JUMPDEST PUSH2 0x3B4 DUP2 PUSH2 0x3A2 JUMP JUMPDEST DUP3 MSTORE POP POP JUMP JUMPDEST PUSH0 PUSH1 0x20 DUP3 ADD SWAP1 POP PUSH2 0x3CD PUSH0 DUP4 ADD DUP5 PUSH2 0x3AB JUMP JUMPDEST SWAP3 SWAP2 POP POP JUMP INVALID LOG2 PUSH5 0x6970667358 0x22 SLT KECCAK256 PUSH23 0x85B68CAE1AD760F9A9B3806E2C8EFC2D19FC2A7876B736 SSTORE 0xC3 0xAE 0xF6 0xC7 SWAP5 PUSH22 0x1564736F6C634300081E003300000000000000000000 "
				},
				"gasEstimates": {
					"creation": {
						"codeDepositCost": "206600",
						"executionCost": "249",
						"totalCost": "206849"
					},
					"external": {
						"RECEIVER()": "351",
						"payAndForward()": "infinite"
					}
				},
				"methodIdentifiers": {
					"RECEIVER()": "ad7430cc",
					"payAndForward()": "cd10c1c8"
				}
			},
			"storageLayout": {
				"storage": [],
				"types": null
			},
			"userdoc": {
				"kind": "user",
				"methods": {},
				"version": 1
			}
		}
	}
}