{
	"contracts/onlyToken.sol": {
		"NativePOLBank": {
			"abi": [
				{
					"anonymous": false,
					"inputs": [
						{
							"indexed": true,
							"internalType": "address",
							"name": "from",
							"type": "address"
						},
						{
							"indexed": false,
							"internalType": "uint256",
							"name": "amount",
							"type": "uint256"
						}
					],
					"name": "Deposited",
					"type": "event"
				},
				{
					"anonymous": false,
					"inputs": [
						{
							"indexed": true,
							"internalType": "address",
							"name": "to",
							"type": "address"
						},
						{
							"indexed": false,
							"internalType": "uint256",
							"name": "amount",
							"type": "uint256"
						}
					],
					"name": "Withdrawn",
					"type": "event"
				},
				{
					"stateMutability": "payable",
					"type": "fallback"
				},
				{
					"inputs": [],
					"name": "getBalance",
					"outputs": [
						{
							"internalType": "uint256",
							"name": "",
							"type": "uint256"
						}
					],
					"stateMutability": "view",
					"type": "function"
				},
				{
					"inputs": [],
					"name": "withdrawAll",
					"outputs": [],
					"stateMutability": "nonpayable",
					"type": "function"
				},
				{
					"stateMutability": "payable",
					"type": "receive"
				}
			],
			"devdoc": {
				"kind": "dev",
				"methods": {},
				"version": 1
			},
			"evm": {
				"assembly": "    /* \"contracts/onlyToken.sol\":61:1031  contract NativePOLBank {... */\n  mstore(0x40, 0x80)\n  callvalue\n  dup1\n  iszero\n  tag_1\n  jumpi\n  revert(0x00, 0x00)\ntag_1:\n  pop\n  dataSize(sub_0)\n  dup1\n  dataOffset(sub_0)\n  0x00\n  codecopy\n  0x00\n  return\nstop\n\nsub_0: assembly {\n        /* \"contracts/onlyToken.sol\":61:1031  contract NativePOLBank {... */\n      mstore(0x40, 0x80)\n      jumpi(tag_1, lt(calldatasize, 0x04))\n      shr(0xe0, calldataload(0x00))\n      dup1\n      0x12065fe0\n      eq\n      tag_3\n      jumpi\n      dup1\n      0x853828b6\n      eq\n      tag_4\n      jumpi\n      jump(tag_2)\n    tag_1:\n      jumpi(tag_2, calldatasize)\n        /* \"contracts/onlyToken.sol\":322:332  msg.sender */\n      caller\n        /* \"contracts/onlyToken.sol\":312:344  Deposited(msg.sender, msg.value) */\n      0xffffffffffffffffffffffffffffffffffffffff\n      and\n      0x2da466a7b24304f47e87fa2e1e5a81b9831ce54fec19055ce277ca2f39ba42c4\n        /* \"contracts/onlyToken.sol\":334:343  msg.value */\n      callvalue\n        /* \"contracts/onlyToken.sol\":312:344  Deposited(msg.sender, msg.value) */\n      mload(0x40)\n      tag_7\n      swap2\n      swap1\n      tag_8\n      jump\t// in\n    tag_7:\n      mload(0x40)\n      dup1\n      swap2\n      sub\n      swap1\n      log2\n        /* \"contracts/onlyToken.sol\":61:1031  contract NativePOLBank {... */\n      stop\n    tag_2:\n        /* \"contracts/onlyToken.sol\":463:473  msg.sender */\n      caller\n        /* \"contracts/onlyToken.sol\":453:485  Deposited(msg.sender, msg.value) */\n      0xffffffffffffffffffffffffffffffffffffffff\n      and\n      0x2da466a7b24304f47e87fa2e1e5a81b9831ce54fec19055ce277ca2f39ba42c4\n        /* \"contracts/onlyToken.sol\":475:484  msg.value */\n      callvalue\n        /* \"contracts/onlyToken.sol\":453:485  Deposited(msg.sender, msg.value) */\n      mload(0x40)\n      tag_11\n      swap2\n      swap1\n      tag_8\n      jump\t// in\n    tag_11:\n      mload(0x40)\n      dup1\n      swap2\n      sub\n      swap1\n      log2\n        /* \"contracts/onlyToken.sol\":61:1031  contract NativePOLBank {... */\n      stop\n        /* \"contracts/onlyToken.sol\":927:1028  function getBalance() external view returns (uint256) {... */\n    tag_3:\n      callvalue\n      dup1\n      iszero\n      tag_12\n      jumpi\n      revert(0x00, 0x00)\n    tag_12:\n      pop\n      tag_13\n      tag_14\n      jump\t// in\n    tag_13:\n      mload(0x40)\n      tag_15\n      swap2\n      swap1\n      tag_8\n      jump\t// in\n    tag_15:\n      mload(0x40)\n      dup1\n      swap2\n      sub\n      swap1\n      return\n        /* \"contracts/onlyToken.sol\":566:879  function withdrawAll() external {... */\n    tag_4:\n      callvalue\n      dup1\n      iszero\n      tag_16\n      jumpi\n      revert(0x00, 0x00)\n    tag_16:\n      pop\n      tag_17\n      tag_18\n      jump\t// in\n    tag_17:\n      stop\n        /* \"contracts/onlyToken.sol\":927:1028  function getBalance() external view returns (uint256) {... */\n    tag_14:\n        /* \"contracts/onlyToken.sol\":972:979  uint256 */\n      0x00\n        /* \"contracts/onlyToken.sol\":999:1020  address(this).balance */\n      selfbalance\n        /* \"contracts/onlyToken.sol\":992:1020  return address(this).balance */\n      swap1\n      pop\n        /* \"contracts/onlyToken.sol\":927:1028  function getBalance() external view returns (uint256) {... */\n      swap1\n      jump\t// out\n        /* \"contracts/onlyToken.sol\":566:879  function withdrawAll() external {... */\n    tag_18:\n        /* \"contracts/onlyToken.sol\":609:624  uint256 balance */\n      0x00\n        /* \"contracts/onlyToken.sol\":627:648  address(this).balance */\n      selfbalance\n        /* \"contracts/onlyToken.sol\":609:648  uint256 balance = address(this).balance */\n      swap1\n      pop\n        /* \"contracts/onlyToken.sol\":677:678  0 */\n      0x00\n        /* \"contracts/onlyToken.sol\":667:674  balance */\n      dup2\n        /* \"contracts/onlyToken.sol\":667:678  balance > 0 */\n      gt\n        /* \"contracts/onlyToken.sol\":659:701  require(balance > 0, \"No POL in contract\") */\n      tag_21\n      jumpi\n      mload(0x40)\n      0x08c379a000000000000000000000000000000000000000000000000000000000\n      dup2\n      mstore\n      0x04\n      add\n      tag_22\n      swap1\n      tag_23\n      jump\t// in\n    tag_22:\n      mload(0x40)\n      dup1\n      swap2\n      sub\n      swap1\n      revert\n    tag_21:\n        /* \"contracts/onlyToken.sol\":715:727  bool success */\n      0x00\n        /* \"contracts/onlyToken.sol\":741:751  msg.sender */\n      caller\n        /* \"contracts/onlyToken.sol\":733:757  payable(msg.sender).call */\n      0xffffffffffffffffffffffffffffffffffffffff\n      and\n        /* \"contracts/onlyToken.sol\":765:772  balance */\n      dup3\n        /* \"contracts/onlyToken.sol\":733:777  payable(msg.sender).call{value: balance}(\"\") */\n      mload(0x40)\n      tag_24\n      swap1\n      tag_25\n      jump\t// in\n    tag_24:\n      0x00\n      mload(0x40)\n      dup1\n      dup4\n      sub\n      dup2\n      dup6\n      dup8\n      gas\n      call\n      swap3\n      pop\n      pop\n      pop\n      returndatasize\n      dup1\n      0x00\n      dup2\n      eq\n      tag_28\n      jumpi\n      mload(0x40)\n      swap2\n      pop\n      and(add(returndatasize, 0x3f), not(0x1f))\n      dup3\n      add\n      0x40\n      mstore\n      returndatasize\n      dup3\n      mstore\n      returndatasize\n      0x00\n      0x20\n      dup5\n      add\n      returndatacopy\n      jump(tag_27)\n    tag_28:\n      0x60\n      swap2\n      pop\n    tag_27:\n      pop\n        /* \"contracts/onlyToken.sol\":714:777  (bool success, ) = payable(msg.sender).call{value: balance}(\"\") */\n      pop\n      swap1\n      pop\n        /* \"contracts/onlyToken.sol\":796:803  success */\n      dup1\n        /* \"contracts/onlyToken.sol\":788:823  require(success, \"Withdraw failed\") */\n      tag_29\n      jumpi\n      mload(0x40)\n      0x08c379a000000000000000000000000000000000000000000000000000000000\n      dup2\n      mstore\n      0x04\n      add\n      tag_30\n      swap1\n      tag_31\n      jump\t// in\n    tag_30:\n      mload(0x40)\n      dup1\n      swap2\n      sub\n      swap1\n      revert\n    tag_29:\n        /* \"contracts/onlyToken.sol\":851:861  msg.sender */\n      caller\n        /* \"contracts/onlyToken.sol\":841:871  Withdrawn(msg.sender, balance) */\n      0xffffffffffffffffffffffffffffffffffffffff\n      and\n      0x7084f5476618d8e60b11ef0d7d3f06914655adb8793e28ff7f018d4c76d505d5\n        /* \"contracts/onlyToken.sol\":863:870  balance */\n      dup4\n        /* \"contracts/onlyToken.sol\":841:871  Withdrawn(msg.sender, balance) */\n      mload(0x40)\n      tag_32\n      swap2\n      swap1\n      tag_8\n      jump\t// in\n    tag_32:\n      mload(0x40)\n      dup1\n      swap2\n      sub\n      swap1\n      log2\n        /* \"contracts/onlyToken.sol\":598:879  {... */\n      pop\n      pop\n        /* \"contracts/onlyToken.sol\":566:879  function withdrawAll() external {... */\n      jump\t// out\n        /* \"#utility.yul\":7:84   */\n    tag_33:\n        /* \"#utility.yul\":44:51   */\n      0x00\n        /* \"#utility.yul\":73:78   */\n      dup2\n        /* \"#utility.yul\":62:78   */\n      swap1\n      pop\n        /* \"#utility.yul\":7:84   */\n      swap2\n      swap1\n      pop\n      jump\t// out\n        /* \"#utility.yul\":90:208   */\n    tag_34:\n        /* \"#utility.yul\":177:201   */\n      tag_46\n        /* \"#utility.yul\":195:200   */\n      dup2\n        /* \"#utility.yul\":177:201   */\n      tag_33\n      jump\t// in\n    tag_46:\n        /* \"#utility.yul\":172:175   */\n      dup3\n        /* \"#utility.yul\":165:202   */\n      mstore\n        /* \"#utility.yul\":90:208   */\n      pop\n      pop\n      jump\t// out\n        /* \"#utility.yul\":214:436   */\n    tag_8:\n        /* \"#utility.yul\":307:311   */\n      0x00\n        /* \"#utility.yul\":345:347   */\n      0x20\n        /* \"#utility.yul\":334:343   */\n      dup3\n        /* \"#utility.yul\":330:348   */\n      add\n        /* \"#utility.yul\":322:348   */\n      swap1\n      pop\n        /* \"#utility.yul\":358:429   */\n      tag_48\n        /* \"#utility.yul\":426:427   */\n      0x00\n        /* \"#utility.yul\":415:424   */\n      dup4\n        /* \"#utility.yul\":411:428   */\n      add\n        /* \"#utility.yul\":402:408   */\n      dup5\n        /* \"#utility.yul\":358:429   */\n      tag_34\n      jump\t// in\n    tag_48:\n        /* \"#utility.yul\":214:436   */\n      swap3\n      swap2\n      pop\n      pop\n      jump\t// out\n        /* \"#utility.yul\":442:611   */\n    tag_35:\n        /* \"#utility.yul\":526:537   */\n      0x00\n        /* \"#utility.yul\":560:566   */\n      dup3\n        /* \"#utility.yul\":555:558   */\n      dup3\n        /* \"#utility.yul\":548:567   */\n      mstore\n        /* \"#utility.yul\":600:604   */\n      0x20\n        /* \"#utility.yul\":595:598   */\n      dup3\n        /* \"#utility.yul\":591:605   */\n      add\n        /* \"#utility.yul\":576:605   */\n      swap1\n      pop\n        /* \"#utility.yul\":442:611   */\n      swap3\n      swap2\n      pop\n      pop\n      jump\t// out\n        /* \"#utility.yul\":617:785   */\n    tag_36:\n        /* \"#utility.yul\":757:777   */\n      0x4e6f20504f4c20696e20636f6e74726163740000000000000000000000000000\n        /* \"#utility.yul\":753:754   */\n      0x00\n        /* \"#utility.yul\":745:751   */\n      dup3\n        /* \"#utility.yul\":741:755   */\n      add\n        /* \"#utility.yul\":734:778   */\n      mstore\n        /* \"#utility.yul\":617:785   */\n      pop\n      jump\t// out\n        /* \"#utility.yul\":791:1157   */\n    tag_37:\n        /* \"#utility.yul\":933:936   */\n      0x00\n        /* \"#utility.yul\":954:1021   */\n      tag_52\n        /* \"#utility.yul\":1018:1020   */\n      0x12\n        /* \"#utility.yul\":1013:1016   */\n      dup4\n        /* \"#utility.yul\":954:1021   */\n      tag_35\n      jump\t// in\n    tag_52:\n        /* \"#utility.yul\":947:1021   */\n      swap2\n      pop\n        /* \"#utility.yul\":1030:1123   */\n      tag_53\n        /* \"#utility.yul\":1119:1122   */\n      dup3\n        /* \"#utility.yul\":1030:1123   */\n      tag_36\n      jump\t// in\n    tag_53:\n        /* \"#utility.yul\":1148:1150   */\n      0x20\n        /* \"#utility.yul\":1143:1146   */\n      dup3\n        /* \"#utility.yul\":1139:1151   */\n      add\n        /* \"#utility.yul\":1132:1151   */\n      swap1\n      pop\n        /* \"#utility.yul\":791:1157   */\n      swap2\n      swap1\n      pop\n      jump\t// out\n        /* \"#utility.yul\":1163:1582   */\n    tag_23:\n        /* \"#utility.yul\":1329:1333   */\n      0x00\n        /* \"#utility.yul\":1367:1369   */\n      0x20\n        /* \"#utility.yul\":1356:1365   */\n      dup3\n        /* \"#utility.yul\":1352:1370   */\n      add\n        /* \"#utility.yul\":1344:1370   */\n      swap1\n      pop\n        /* \"#utility.yul\":1416:1425   */\n      dup2\n        /* \"#utility.yul\":1410:1414   */\n      dup2\n        /* \"#utility.yul\":1406:1426   */\n      sub\n        /* \"#utility.yul\":1402:1403   */\n      0x00\n        /* \"#utility.yul\":1391:1400   */\n      dup4\n        /* \"#utility.yul\":1387:1404   */\n      add\n        /* \"#utility.yul\":1380:1427   */\n      mstore\n        /* \"#utility.yul\":1444:1575   */\n      tag_55\n        /* \"#utility.yul\":1570:1574   */\n      dup2\n        /* \"#utility.yul\":1444:1575   */\n      tag_37\n      jump\t// in\n    tag_55:\n        /* \"#utility.yul\":1436:1575   */\n      swap1\n      pop\n        /* \"#utility.yul\":1163:1582   */\n      swap2\n      swap1\n      pop\n      jump\t// out\n        /* \"#utility.yul\":1588:1735   */\n    tag_38:\n        /* \"#utility.yul\":1689:1700   */\n      0x00\n        /* \"#utility.yul\":1726:1729   */\n      dup2\n        /* \"#utility.yul\":1711:1729   */\n      swap1\n      pop\n        /* \"#utility.yul\":1588:1735   */\n      swap3\n      swap2\n      pop\n      pop\n      jump\t// out\n        /* \"#utility.yul\":1741:1855   */\n    tag_39:\n      pop\n      jump\t// out\n        /* \"#utility.yul\":1861:2259   */\n    tag_40:\n        /* \"#utility.yul\":2020:2023   */\n      0x00\n        /* \"#utility.yul\":2041:2124   */\n      tag_59\n        /* \"#utility.yul\":2122:2123   */\n      0x00\n        /* \"#utility.yul\":2117:2120   */\n      dup4\n        /* \"#utility.yul\":2041:2124   */\n      tag_38\n      jump\t// in\n    tag_59:\n        /* \"#utility.yul\":2034:2124   */\n      swap2\n      pop\n        /* \"#utility.yul\":2133:2226   */\n      tag_60\n        /* \"#utility.yul\":2222:2225   */\n      dup3\n        /* \"#utility.yul\":2133:2226   */\n      tag_39\n      jump\t// in\n    tag_60:\n        /* \"#utility.yul\":2251:2252   */\n      0x00\n        /* \"#utility.yul\":2246:2249   */\n      dup3\n        /* \"#utility.yul\":2242:2253   */\n      add\n        /* \"#utility.yul\":2235:2253   */\n      swap1\n      pop\n        /* \"#utility.yul\":1861:2259   */\n      swap2\n      swap1\n      pop\n      jump\t// out\n        /* \"#utility.yul\":2265:2644   */\n    tag_25:\n        /* \"#utility.yul\":2449:2452   */\n      0x00\n        /* \"#utility.yul\":2471:2618   */\n      tag_62\n        /* \"#utility.yul\":2614:2617   */\n      dup3\n        /* \"#utility.yul\":2471:2618   */\n      tag_40\n      jump\t// in\n    tag_62:\n        /* \"#utility.yul\":2464:2618   */\n      swap2\n      pop\n        /* \"#utility.yul\":2635:2638   */\n      dup2\n        /* \"#utility.yul\":2628:2638   */\n      swap1\n      pop\n        /* \"#utility.yul\":2265:2644   */\n      swap2\n      swap1\n      pop\n      jump\t// out\n        /* \"#utility.yul\":2650:2815   */\n    tag_41:\n        /* \"#utility.yul\":2790:2807   */\n      0x5769746864726177206661696c65640000000000000000000000000000000000\n        /* \"#utility.yul\":2786:2787   */\n      0x00\n        /* \"#utility.yul\":2778:2784   */\n      dup3\n        /* \"#utility.yul\":2774:2788   */\n      add\n        /* \"#utility.yul\":2767:2808   */\n      mstore\n        /* \"#utility.yul\":2650:2815   */\n      pop\n      jump\t// out\n        /* \"#utility.yul\":2821:3187   */\n    tag_42:\n        /* \"#utility.yul\":2963:2966   */\n      0x00\n        /* \"#utility.yul\":2984:3051   */\n      tag_65\n        /* \"#utility.yul\":3048:3050   */\n      0x0f\n        /* \"#utility.yul\":3043:3046   */\n      dup4\n        /* \"#utility.yul\":2984:3051   */\n      tag_35\n      jump\t// in\n    tag_65:\n        /* \"#utility.yul\":2977:3051   */\n      swap2\n      pop\n        /* \"#utility.yul\":3060:3153   */\n      tag_66\n        /* \"#utility.yul\":3149:3152   */\n      dup3\n        /* \"#utility.yul\":3060:3153   */\n      tag_41\n      jump\t// in\n    tag_66:\n        /* \"#utility.yul\":3178:3180   */\n      0x20\n        /* \"#utility.yul\":3173:3176   */\n      dup3\n        /* \"#utility.yul\":3169:3181   */\n      add\n        /* \"#utility.yul\":3162:3181   */\n      swap1\n      pop\n        /* \"#utility.yul\":2821:3187   */\n      swap2\n      swap1\n      pop\n      jump\t// out\n        /* \"#utility.yul\":3193:3612   */\n    tag_31:\n        /* \"#utility.yul\":3359:3363   */\n      0x00\n        /* \"#utility.yul\":3397:3399   */\n      0x20\n        /* \"#utility.yul\":3386:3395   */\n      dup3\n        /* \"#utility.yul\":3382:3400   */\n      add\n        /* \"#utility.yul\":3374:3400   */\n      swap1\n      pop\n        /* \"#utility.yul\":3446:3455   */\n      dup2\n        /* \"#utility.yul\":3440:3444   */\n      dup2\n        /* \"#utility.yul\":3436:3456   */\n      sub\n        /* \"#utility.yul\":3432:3433   */\n      0x00\n        /* \"#utility.yul\":3421:3430   */\n      dup4\n        /* \"#utility.yul\":3417:3434   */\n      add\n        /* \"#utility.yul\":3410:3457   */\n      mstore\n        /* \"#utility.yul\":3474:3605   */\n      tag_68\n        /* \"#utility.yul\":3600:3604   */\n      dup2\n        /* \"#utility.yul\":3474:3605   */\n      tag_42\n      jump\t// in\n    tag_68:\n        /* \"#utility.yul\":3466:3605   */\n      swap1\n      pop\n        /* \"#utility.yul\":3193:3612   */\n      swap2\n      swap1\n      pop\n      jump\t// out\n\n    auxdata: 0xa26469706673582212205dd5a3c696a4458ddf75b554d4db06e8f9fd05ed359de194494f1336f888f00864736f6c634300081e0033\n}\n",
				"bytecode": {
					"linkReferences": {},
					"object": "6080604052348015600e575f5ffd5b506103e08061001c5f395ff3fe60806040526004361061002c575f3560e01c806312065fe0146100d1578063853828b6146100fb57610081565b36610081573373ffffffffffffffffffffffffffffffffffffffff167f2da466a7b24304f47e87fa2e1e5a81b9831ce54fec19055ce277ca2f39ba42c4346040516100779190610270565b60405180910390a2005b3373ffffffffffffffffffffffffffffffffffffffff167f2da466a7b24304f47e87fa2e1e5a81b9831ce54fec19055ce277ca2f39ba42c4346040516100c79190610270565b60405180910390a2005b3480156100dc575f5ffd5b506100e5610111565b6040516100f29190610270565b60405180910390f35b348015610106575f5ffd5b5061010f610118565b005b5f47905090565b5f4790505f811161015e576040517f08c379a0000000000000000000000000000000000000000000000000000000008152600401610155906102e3565b60405180910390fd5b5f3373ffffffffffffffffffffffffffffffffffffffff16826040516101839061032e565b5f6040518083038185875af1925050503d805f81146101bd576040519150601f19603f3d011682016040523d82523d5f602084013e6101c2565b606091505b5050905080610206576040517f08c379a00000000000000000000000000000000000000000000000000000000081526004016101fd9061038c565b60405180910390fd5b3373ffffffffffffffffffffffffffffffffffffffff167f7084f5476618d8e60b11ef0d7d3f06914655adb8793e28ff7f018d4c76d505d58360405161024c9190610270565b60405180910390a25050565b5f819050919050565b61026a81610258565b82525050565b5f6020820190506102835f830184610261565b92915050565b5f82825260208201905092915050565b7f4e6f20504f4c20696e20636f6e747261637400000000000000000000000000005f82015250565b5f6102cd601283610289565b91506102d882610299565b602082019050919050565b5f6020820190508181035f8301526102fa816102c1565b9050919050565b5f81905092915050565b50565b5f6103195f83610301565b91506103248261030b565b5f82019050919050565b5f6103388261030e565b9150819050919050565b7f5769746864726177206661696c656400000000000000000000000000000000005f82015250565b5f610376600f83610289565b915061038182610342565b602082019050919050565b5f6020820190508181035f8301526103a38161036a565b905091905056fea26469706673582212205dd5a3c696a4458ddf75b554d4db06e8f9fd05ed359de194494f1336f888f00864736f6c634300081e0033",
					"opcodes": "PUSH1 0x80 PUSH1 0x40 MSTORE CALLVALUE DUP1 ISZERO PUSH1 0xE JUMPI PUSH0 PUSH0 REVERT JUMPDEST POP PUSH2 0x3E0 DUP1 PUSH2 0x1C PUSH0 CODECOPY PUSH0 RETURN INVALID PUSH1 0x80 PUSH1 0x40 MSTORE PUSH1 0x4 CALLDATASIZE LT PUSH2 0x2C JUMPI PUSH0 CALLDATALOAD PUSH1 0xE0 SHR DUP1 PUSH4 0x12065FE0 EQ PUSH2 0xD1 JUMPI DUP1 PUSH4 0x853828B6 EQ PUSH2 0xFB JUMPI PUSH2 0x81 JUMP JUMPDEST CALLDATASIZE PUSH2 0x81 JUMPI CALLER PUSH20 0xFFFFFFFFFFFFFFFFFFFFFFFFFFFFFFFFFFFFFFFF AND PUSH32 0x2DA466A7B24304F47E87FA2E1E5A81B9831CE54FEC19055CE277CA2F39BA42C4 CALLVALUE PUSH1 0x40 MLOAD PUSH2 0x77 SWAP2 SWAP1 PUSH2 0x270 JUMP JUMPDEST PUSH1 0x40 MLOAD DUP1 SWAP2 SUB SWAP1 LOG2 STOP JUMPDEST CALLER PUSH20 0xFFFFFFFFFFFFFFFFFFFFFFFFFFFFFFFFFFFFFFFF AND PUSH32 0x2DA466A7B24304F47E87FA2E1E5A81B9831CE54FEC19055CE277CA2F39BA42C4 CALLVALUE PUSH1 0x40 MLOAD PUSH2 0xC7 SWAP2 SWAP1 PUSH2 0x270 JUMP JUMPDEST PUSH1 0x40 MLOAD DUP1 SWAP2 SUB SWAP1 LOG2 STOP JUMPDEST CALLVALUE DUP1 ISZERO PUSH2 0xDC JUMPI PUSH0 PUSH0 REVERT JUMPDEST POP PUSH2 0xE5 PUSH2 0x111 JUMP JUMPDEST PUSH1 0x40 MLOAD PUSH2 0xF2 SWAP2 SWAP1 PUSH2 0x270 JUMP JUMPDEST PUSH1 0x40 MLOAD DUP1 SWAP2 SUB SWAP1 RETURN JUMPDEST CALLVALUE DUP1 ISZERO PUSH2 0x106 JUMPI PUSH0 PUSH0 REVERT JUMPDEST POP PUSH2 0x10F PUSH2 0x118 JUMP JUMPDEST STOP JUMPDEST PUSH0 SELFBALANCE SWAP1 POP SWAP1 JUMP JUMPDEST PUSH0 SELFBALANCE SWAP1 POP PUSH0 DUP2 GT PUSH2 0x15E JUMPI PUSH1 0x40 MLOAD PUSH32 0x8C379A000000000000000000000000000000000000000000000000000000000 DUP2 MSTORE PUSH1 0x4 ADD PUSH2 0x155 SWAP1 PUSH2 0x2E3 JUMP JUMPDEST PUSH1 0x40 MLOAD DUP1 SWAP2 SUB SWAP1 REVERT JUMPDEST PUSH0 CALLER PUSH20 0xFFFFFFFFFFFFFFFFFFFFFFFFFFFFFFFFFFFFFFFF AND DUP3 PUSH1 0x40 MLOAD PUSH2 0x183 SWAP1 PUSH2 0x32E JUMP JUMPDEST PUSH0 PUSH1 0x40 MLOAD DUP1 DUP4 SUB DUP2 DUP6 DUP8 GAS CALL SWAP3 POP POP POP RETURNDATASIZE DUP1 PUSH0 DUP2 EQ PUSH2 0x1BD JUMPI PUSH1 0x40 MLOAD SWAP2 POP PUSH1 0x1F NOT PUSH1 0x3F RETURNDATASIZE ADD AND DUP3 ADD PUSH1 0x40 MSTORE RETURNDATASIZE DUP3 MSTORE RETURNDATASIZE PUSH0 PUSH1 0x20 DUP5 ADD RETURNDATACOPY PUSH2 0x1C2 JUMP JUMPDEST PUSH1 0x60 SWAP2 POP JUMPDEST POP POP SWAP1 POP DUP1 PUSH2 0x206 JUMPI PUSH1 0x40 MLOAD PUSH32 0x8C379A000000000000000000000000000000000000000000000000000000000 DUP2 MSTORE PUSH1 0x4 ADD PUSH2 0x1FD SWAP1 PUSH2 0x38C JUMP JUMPDEST PUSH1 0x40 MLOAD DUP1 SWAP2 SUB SWAP1 REVERT JUMPDEST CALLER PUSH20 0xFFFFFFFFFFFFFFFFFFFFFFFFFFFFFFFFFFFFFFFF AND PUSH32 0x7084F5476618D8E60B11EF0D7D3F06914655ADB8793E28FF7F018D4C76D505D5 DUP4 PUSH1 0x40 MLOAD PUSH2 0x24C SWAP2 SWAP1 PUSH2 0x270 JUMP JUMPDEST PUSH1 0x40 MLOAD DUP1 SWAP2 SUB SWAP1 LOG2 POP POP JUMP JUMPDEST PUSH0 DUP2 SWAP1 POP SWAP2 SWAP1 POP JUMP JUMPDEST PUSH2 0x26A DUP2 PUSH2 0x258 JUMP JUMPDEST DUP3 MSTORE POP POP JUMP JUMPDEST PUSH0 PUSH1 0x20 DUP3 ADD SWAP1 POP PUSH2 0x283 PUSH0 DUP4 ADD DUP5 PUSH2 0x261 JUMP JUMPDEST SWAP3 SWAP2 POP POP JUMP JUMPDEST PUSH0 DUP3 DUP3 MSTORE PUSH1 0x20 DUP3 ADD SWAP1 POP SWAP3 SWAP2 POP POP JUMP JUMPDEST PUSH32 0x4E6F20504F4C20696E20636F6E74726163740000000000000000000000000000 PUSH0 DUP3 ADD MSTORE POP JUMP JUMPDEST PUSH0 PUSH2 0x2CD PUSH1 0x12 DUP4 PUSH2 0x289 JUMP JUMPDEST SWAP2 POP PUSH2 0x2D8 DUP3 PUSH2 0x299 JUMP JUMPDEST PUSH1 0x20 DUP3 ADD SWAP1 POP SWAP2 SWAP1 POP JUMP JUMPDEST PUSH0 PUSH1 0x20 DUP3 ADD SWAP1 POP DUP2 DUP2 SUB PUSH0 DUP4 ADD MSTORE PUSH2 0x2FA DUP2 PUSH2 0x2C1 JUMP JUMPDEST SWAP1 POP SWAP2 SWAP1 POP JUMP JUMPDEST PUSH0 DUP2 SWAP1 POP SWAP3 SWAP2 POP POP JUMP JUMPDEST POP JUMP JUMPDEST PUSH0 PUSH2 0x319 PUSH0 DUP4 PUSH2 0x301 JUMP JUMPDEST SWAP2 POP PUSH2 0x324 DUP3 PUSH2 0x30B JUMP JUMPDEST PUSH0 DUP3 ADD SWAP1 POP SWAP2 SWAP1 POP JUMP JUMPDEST PUSH0 PUSH2 0x338 DUP3 PUSH2 0x30E JUMP JUMPDEST SWAP2 POP DUP2 SWAP1 POP SWAP2 SWAP1 POP JUMP JUMPDEST PUSH32 0x5769746864726177206661696C65640000000000000000000000000000000000 PUSH0 DUP3 ADD MSTORE POP JUMP JUMPDEST PUSH0 PUSH2 0x376 PUSH1 0xF DUP4 PUSH2 0x289 JUMP JUMPDEST SWAP2 POP PUSH2 0x381 DUP3 PUSH2 0x342 JUMP JUMPDEST PUSH1 0x20 DUP3 ADD SWAP1 POP SWAP2 SWAP1 POP JUMP JUMPDEST PUSH0 PUSH1 0x20 DUP3 ADD SWAP1 POP DUP2 DUP2 SUB PUSH0 DUP4 ADD MSTORE PUSH2 0x3A3 DUP2 PUSH2 0x36A JUMP JUMPDEST SWAP1 POP SWAP2 SWAP1 POP JUMP INVALID LOG2 PUSH5 0x6970667358 0x22 SLT KECCAK256 TSTORE 0xD5 LOG3 0xC6 SWAP7 LOG4 GASLIMIT DUP14 0xDF PUSH22 0xB554D4DB06E8F9FD05ED359DE194494F1336F888F008 PUSH5 0x736F6C6343 STOP ADDMOD 0x1E STOP CALLER "
				},
				"gasEstimates": {
					"creation": {
						"codeDepositCost": "198400",
						"executionCost": "236",
						"totalCost": "198636"
					},
					"external": {
						"": "1676",
						"getBalance()": "312",
						"withdrawAll()": "infinite"
					}
				},
				"methodIdentifiers": {
					"getBalance()": "12065fe0",
					"withdrawAll()": "853828b6"
				}
			},
			"storageLayout": {
				"storage": [],
				"types": null
			},
			"userdoc": {
				"kind": "user",
				"methods": {},
				"version": 1
			}
		}
	}
}