{
	"data": {
		"bytecode": {
			"linkReferences": {},
			"object": "6080604052670de0b6b3a76400005f553480156019575f5ffd5b50610db4806100275f395ff3fe608060405234801561000f575f5ffd5b506004361061007b575f3560e01c8063cf260baf11610059578063cf260baf146100fd578063e95d83281461012d578063edca914c1461014b578063fa27500c146101555761007b565b80631209b1f61461007f57806350b447121461009d578063963ef2a2146100cd575b5f5ffd5b610087610185565b60405161009491906107ea565b60405180910390f35b6100b760048036038101906100b29190610831565b61018a565b6040516100c4919061089b565b60405180910390f35b6100e760048036038101906100e291906108de565b6101d2565b6040516100f491906107ea565b60405180910390f35b61011760048036038101906101129190610909565b61021b565b60405161012491906107ea565b60405180910390f35b610135610246565b604051610142919061089b565b60405180910390f35b61015361024c565b005b61016f600480360381019061016a9190610909565b610490565b60405161017c91906109f8565b60405180910390f35b5f5481565b60018181548110610199575f80fd5b905f5260205f2090600202015f91509050805f015f9054906101000a900473ffffffffffffffffffffffffffffffffffffffff16905081565b5f60025f8373ffffffffffffffffffffffffffffffffffffffff1673ffffffffffffffffffffffffffffffffffffffff1681526020019081526020015f20805490509050919050565b6002602052815f5260405f208181548110610234575f80fd5b905f5260205f20015f91509150505481565b61101081565b61101073ffffffffffffffffffffffffffffffffffffffff166323b872dd33305f546040518463ffffffff1660e01b815260040161028c93929190610a11565b6020604051808303815f875af11580156102a8573d5f5f3e3d5ffd5b505050506040513d601f19601f820116820180604052508101906102cc9190610a7b565b61030b576040517f08c379a000000000000000000000000000000000000000000000000000000000815260040161030290610b00565b60405180910390fd5b5f61031b336001805490506105fc565b9050600160405180604001604052803373ffffffffffffffffffffffffffffffffffffffff16815260200183815250908060018154018082558091505060019003905f5260205f2090600202015f909190919091505f820151815f015f6101000a81548173ffffffffffffffffffffffffffffffffffffffff021916908373ffffffffffffffffffffffffffffffffffffffff1602179055506020820151816001019060046103cb9291906106fe565b50505060025f3373ffffffffffffffffffffffffffffffffffffffff1673ffffffffffffffffffffffffffffffffffffffff1681526020019081526020015f206001808054905061041c9190610b4b565b908060018154018082558091505060019003905f5260205f20015f90919091909150553373ffffffffffffffffffffffffffffffffffffffff167f34ec3db75acf53c0a84e3cd96727124eef978286b7493a45021537471fd50ec98260405161048591906109f8565b60405180910390a250565b610498610795565b60025f8473ffffffffffffffffffffffffffffffffffffffff1673ffffffffffffffffffffffffffffffffffffffff1681526020019081526020015f2080549050821061051a576040517f08c379a000000000000000000000000000000000000000000000000000000000815260040161051190610bc8565b60405180910390fd5b600160025f8573ffffffffffffffffffffffffffffffffffffffff1673ffffffffffffffffffffffffffffffffffffffff1681526020019081526020015f20838154811061056b5761056a610be6565b5b905f5260205f2001548154811061058557610584610be6565b5b905f5260205f2090600202016001016004806020026040519081016040528092919082600480156105ef576020028201915f905b82829054906101000a900460ff1660ff16815260200190600101906020825f010492830192600103820291508084116105b95790505b5050505050905092915050565b610604610795565b61060c610795565b5f5f90505b60048160ff1610156106f3575f6064428787856040516020016106379493929190610cac565b604051602081830303815290604052805190602001205f1c6106599190610d26565b90505f5f90505f5f90505b8360ff168160ff1610156106af578260ff16858260ff166004811061068c5761068b610be6565b5b602002015160ff16036106a257600191506106af565b8080600101915050610664565b50806106ec5781848460ff16600481106106cc576106cb610be6565b5b602002019060ff16908160ff168152505082806106e890610d56565b9350505b5050610611565b819250505092915050565b826004601f01602090048101928215610784579160200282015f5b8382111561075657835183826101000a81548160ff021916908360ff16021790555092602001926001016020815f01049283019260010302610719565b80156107825782816101000a81549060ff02191690556001016020815f01049283019260010302610756565b505b50905061079191906107b7565b5090565b6040518060800160405280600490602082028036833780820191505090505090565b5b808211156107ce575f815f9055506001016107b8565b5090565b5f819050919050565b6107e4816107d2565b82525050565b5f6020820190506107fd5f8301846107db565b92915050565b5f5ffd5b610810816107d2565b811461081a575f5ffd5b50565b5f8135905061082b81610807565b92915050565b5f6020828403121561084657610845610803565b5b5f6108538482850161081d565b91505092915050565b5f73ffffffffffffffffffffffffffffffffffffffff82169050919050565b5f6108858261085c565b9050919050565b6108958161087b565b82525050565b5f6020820190506108ae5f83018461088c565b92915050565b6108bd8161087b565b81146108c7575f5ffd5b50565b5f813590506108d8816108b4565b92915050565b5f602082840312156108f3576108f2610803565b5b5f610900848285016108ca565b91505092915050565b5f5f6040838503121561091f5761091e610803565b5b5f61092c858286016108ca565b925050602061093d8582860161081d565b9150509250929050565b5f60049050919050565b5f81905092915050565b5f819050919050565b5f60ff82169050919050565b61097981610964565b82525050565b5f61098a8383610970565b60208301905092915050565b5f602082019050919050565b6109ab81610947565b6109b58184610951565b92506109c08261095b565b805f5b838110156109f05781516109d7878261097f565b96506109e283610996565b9250506001810190506109c3565b505050505050565b5f608082019050610a0b5f8301846109a2565b92915050565b5f606082019050610a245f83018661088c565b610a31602083018561088c565b610a3e60408301846107db565b949350505050565b5f8115159050919050565b610a5a81610a46565b8114610a64575f5ffd5b50565b5f81519050610a7581610a51565b92915050565b5f60208284031215610a9057610a8f610803565b5b5f610a9d84828501610a67565b91505092915050565b5f82825260208201905092915050565b7f574d41544943207472616e73666572206661696c6564000000000000000000005f82015250565b5f610aea601683610aa6565b9150610af582610ab6565b602082019050919050565b5f6020820190508181035f830152610b1781610ade565b9050919050565b7f4e487b71000000000000000000000000000000000000000000000000000000005f52601160045260245ffd5b5f610b55826107d2565b9150610b60836107d2565b9250828203905081811115610b7857610b77610b1e565b5b92915050565b7f496e76616c6964207469636b657420696e6465780000000000000000000000005f82015250565b5f610bb2601483610aa6565b9150610bbd82610b7e565b602082019050919050565b5f6020820190508181035f830152610bdf81610ba6565b9050919050565b7f4e487b71000000000000000000000000000000000000000000000000000000005f52603260045260245ffd5b5f819050919050565b610c2d610c28826107d2565b610c13565b82525050565b5f8160601b9050919050565b5f610c4982610c33565b9050919050565b5f610c5a82610c3f565b9050919050565b610c72610c6d8261087b565b610c50565b82525050565b5f8160f81b9050919050565b5f610c8e82610c78565b9050919050565b610ca6610ca182610964565b610c84565b82525050565b5f610cb78287610c1c565b602082019150610cc78286610c61565b601482019150610cd78285610c1c565b602082019150610ce78284610c95565b60018201915081905095945050505050565b7f4e487b71000000000000000000000000000000000000000000000000000000005f52601260045260245ffd5b5f610d30826107d2565b9150610d3b836107d2565b925082610d4b57610d4a610cf9565b5b828206905092915050565b5f610d6082610964565b915060ff8203610d7357610d72610b1e565b5b60018201905091905056fea2646970667358221220f8170098623b7fcec2cf6c12abbbb7eab3c6b8de06d43c4903a8bfb1d4c4245664736f6c634300081e0033",
			"opcodes": "PUSH1 0x80 PUSH1 0x40 MSTORE PUSH8 0xDE0B6B3A7640000 PUSH0 SSTORE CALLVALUE DUP1 ISZERO PUSH1 0x19 JUMPI PUSH0 PUSH0 REVERT JUMPDEST POP PUSH2 0xDB4 DUP1 PUSH2 0x27 PUSH0 CODECOPY PUSH0 RETURN INVALID PUSH1 0x80 PUSH1 0x40 MSTORE CALLVALUE DUP1 ISZERO PUSH2 0xF JUMPI PUSH0 PUSH0 REVERT JUMPDEST POP PUSH1 0x4 CALLDATASIZE LT PUSH2 0x7B JUMPI PUSH0 CALLDATALOAD PUSH1 0xE0 SHR DUP1 PUSH4 0xCF260BAF GT PUSH2 0x59 JUMPI DUP1 PUSH4 0xCF260BAF EQ PUSH2 0xFD JUMPI DUP1 PUSH4 0xE95D8328 EQ PUSH2 0x12D JUMPI DUP1 PUSH4 0xEDCA914C EQ PUSH2 0x14B JUMPI DUP1 PUSH4 0xFA27500C EQ PUSH2 0x155 JUMPI PUSH2 0x7B JUMP JUMPDEST DUP1 PUSH4 0x1209B1F6 EQ PUSH2 0x7F JUMPI DUP1 PUSH4 0x50B44712 EQ PUSH2 0x9D JUMPI DUP1 PUSH4 0x963EF2A2 EQ PUSH2 0xCD JUMPI JUMPDEST PUSH0 PUSH0 REVERT JUMPDEST PUSH2 0x87 PUSH2 0x185 JUMP JUMPDEST PUSH1 0x40 MLOAD PUSH2 0x94 SWAP2 SWAP1 PUSH2 0x7EA JUMP JUMPDEST PUSH1 0x40 MLOAD DUP1 SWAP2 SUB SWAP1 RETURN JUMPDEST PUSH2 0xB7 PUSH1 0x4 DUP1 CALLDATASIZE SUB DUP2 ADD SWAP1 PUSH2 0xB2 SWAP2 SWAP1 PUSH2 0x831 JUMP JUMPDEST PUSH2 0x18A JUMP JUMPDEST PUSH1 0x40 MLOAD PUSH2 0xC4 SWAP2 SWAP1 PUSH2 0x89B JUMP JUMPDEST PUSH1 0x40 MLOAD DUP1 SWAP2 SUB SWAP1 RETURN JUMPDEST PUSH2 0xE7 PUSH1 0x4 DUP1 CALLDATASIZE SUB DUP2 ADD SWAP1 PUSH2 0xE2 SWAP2 SWAP1 PUSH2 0x8DE JUMP JUMPDEST PUSH2 0x1D2 JUMP JUMPDEST PUSH1 0x40 MLOAD PUSH2 0xF4 SWAP2 SWAP1 PUSH2 0x7EA JUMP JUMPDEST PUSH1 0x40 MLOAD DUP1 SWAP2 SUB SWAP1 RETURN JUMPDEST PUSH2 0x117 PUSH1 0x4 DUP1 CALLDATASIZE SUB DUP2 ADD SWAP1 PUSH2 0x112 SWAP2 SWAP1 PUSH2 0x909 JUMP JUMPDEST PUSH2 0x21B JUMP JUMPDEST PUSH1 0x40 MLOAD PUSH2 0x124 SWAP2 SWAP1 PUSH2 0x7EA JUMP JUMPDEST PUSH1 0x40 MLOAD DUP1 SWAP2 SUB SWAP1 RETURN JUMPDEST PUSH2 0x135 PUSH2 0x246 JUMP JUMPDEST PUSH1 0x40 MLOAD PUSH2 0x142 SWAP2 SWAP1 PUSH2 0x89B JUMP JUMPDEST PUSH1 0x40 MLOAD DUP1 SWAP2 SUB SWAP1 RETURN JUMPDEST PUSH2 0x153 PUSH2 0x24C JUMP JUMPDEST STOP JUMPDEST PUSH2 0x16F PUSH1 0x4 DUP1 CALLDATASIZE SUB DUP2 ADD SWAP1 PUSH2 0x16A SWAP2 SWAP1 PUSH2 0x909 JUMP JUMPDEST PUSH2 0x490 JUMP JUMPDEST PUSH1 0x40 MLOAD PUSH2 0x17C SWAP2 SWAP1 PUSH2 0x9F8 JUMP JUMPDEST PUSH1 0x40 MLOAD DUP1 SWAP2 SUB SWAP1 RETURN JUMPDEST PUSH0 SLOAD DUP2 JUMP JUMPDEST PUSH1 0x1 DUP2 DUP2 SLOAD DUP2 LT PUSH2 0x199 JUMPI PUSH0 DUP1 REVERT JUMPDEST SWAP1 PUSH0 MSTORE PUSH1 0x20 PUSH0 KECCAK256 SWAP1 PUSH1 0x2 MUL ADD PUSH0 SWAP2 POP SWAP1 POP DUP1 PUSH0 ADD PUSH0 SWAP1 SLOAD SWAP1 PUSH2 0x100 EXP SWAP1 DIV PUSH20 0xFFFFFFFFFFFFFFFFFFFFFFFFFFFFFFFFFFFFFFFF AND SWAP1 POP DUP2 JUMP JUMPDEST PUSH0 PUSH1 0x2 PUSH0 DUP4 PUSH20 0xFFFFFFFFFFFFFFFFFFFFFFFFFFFFFFFFFFFFFFFF AND PUSH20 0xFFFFFFFFFFFFFFFFFFFFFFFFFFFFFFFFFFFFFFFF AND DUP2 MSTORE PUSH1 0x20 ADD SWAP1 DUP2 MSTORE PUSH1 0x20 ADD PUSH0 KECCAK256 DUP1 SLOAD SWAP1 POP SWAP1 POP SWAP2 SWAP1 POP JUMP JUMPDEST PUSH1 0x2 PUSH1 0x20 MSTORE DUP2 PUSH0 MSTORE PUSH1 0x40 PUSH0 KECCAK256 DUP2 DUP2 SLOAD DUP2 LT PUSH2 0x234 JUMPI PUSH0 DUP1 REVERT JUMPDEST SWAP1 PUSH0 MSTORE PUSH1 0x20 PUSH0 KECCAK256 ADD PUSH0 SWAP2 POP SWAP2 POP POP SLOAD DUP2 JUMP JUMPDEST PUSH2 0x1010 DUP2 JUMP JUMPDEST PUSH2 0x1010 PUSH20 0xFFFFFFFFFFFFFFFFFFFFFFFFFFFFFFFFFFFFFFFF AND PUSH4 0x23B872DD CALLER ADDRESS PUSH0 SLOAD PUSH1 0x40 MLOAD DUP5 PUSH4 0xFFFFFFFF AND PUSH1 0xE0 SHL DUP2 MSTORE PUSH1 0x4 ADD PUSH2 0x28C SWAP4 SWAP3 SWAP2 SWAP1 PUSH2 0xA11 JUMP JUMPDEST PUSH1 0x20 PUSH1 0x40 MLOAD DUP1 DUP4 SUB DUP2 PUSH0 DUP8 GAS CALL ISZERO DUP1 ISZERO PUSH2 0x2A8 JUMPI RETURNDATASIZE PUSH0 PUSH0 RETURNDATACOPY RETURNDATASIZE PUSH0 REVERT JUMPDEST POP POP POP POP PUSH1 0x40 MLOAD RETURNDATASIZE PUSH1 0x1F NOT PUSH1 0x1F DUP3 ADD AND DUP3 ADD DUP1 PUSH1 0x40 MSTORE POP DUP2 ADD SWAP1 PUSH2 0x2CC SWAP2 SWAP1 PUSH2 0xA7B JUMP JUMPDEST PUSH2 0x30B JUMPI PUSH1 0x40 MLOAD PUSH32 0x8C379A000000000000000000000000000000000000000000000000000000000 DUP2 MSTORE PUSH1 0x4 ADD PUSH2 0x302 SWAP1 PUSH2 0xB00 JUMP JUMPDEST PUSH1 0x40 MLOAD DUP1 SWAP2 SUB SWAP1 REVERT JUMPDEST PUSH0 PUSH2 0x31B CALLER PUSH1 0x1 DUP1 SLOAD SWAP1 POP PUSH2 0x5FC JUMP JUMPDEST SWAP1 POP PUSH1 0x1 PUSH1 0x40 MLOAD DUP1 PUSH1 0x40 ADD PUSH1 0x40 MSTORE DUP1 CALLER PUSH20 0xFFFFFFFFFFFFFFFFFFFFFFFFFFFFFFFFFFFFFFFF AND DUP2 MSTORE PUSH1 0x20 ADD DUP4 DUP2 MSTORE POP SWAP1 DUP1 PUSH1 0x1 DUP2 SLOAD ADD DUP1 DUP3 SSTORE DUP1 SWAP2 POP POP PUSH1 0x1 SWAP1 SUB SWAP1 PUSH0 MSTORE PUSH1 0x20 PUSH0 KECCAK256 SWAP1 PUSH1 0x2 MUL ADD PUSH0 SWAP1 SWAP2 SWAP1 SWAP2 SWAP1 SWAP2 POP PUSH0 DUP3 ADD MLOAD DUP2 PUSH0 ADD PUSH0 PUSH2 0x100 EXP DUP2 SLOAD DUP2 PUSH20 0xFFFFFFFFFFFFFFFFFFFFFFFFFFFFFFFFFFFFFFFF MUL NOT AND SWAP1 DUP4 PUSH20 0xFFFFFFFFFFFFFFFFFFFFFFFFFFFFFFFFFFFFFFFF AND MUL OR SWAP1 SSTORE POP PUSH1 0x20 DUP3 ADD MLOAD DUP2 PUSH1 0x1 ADD SWAP1 PUSH1 0x4 PUSH2 0x3CB SWAP3 SWAP2 SWAP1 PUSH2 0x6FE JUMP JUMPDEST POP POP POP PUSH1 0x2 PUSH0 CALLER PUSH20 0xFFFFFFFFFFFFFFFFFFFFFFFFFFFFFFFFFFFFFFFF AND PUSH20 0xFFFFFFFFFFFFFFFFFFFFFFFFFFFFFFFFFFFFFFFF AND DUP2 MSTORE PUSH1 0x20 ADD SWAP1 DUP2 MSTORE PUSH1 0x20 ADD PUSH0 KECCAK256 PUSH1 0x1 DUP1 DUP1 SLOAD SWAP1 POP PUSH2 0x41C SWAP2 SWAP1 PUSH2 0xB4B JUMP JUMPDEST SWAP1 DUP1 PUSH1 0x1 DUP2 SLOAD ADD DUP1 DUP3 SSTORE DUP1 SWAP2 POP POP PUSH1 0x1 SWAP1 SUB SWAP1 PUSH0 MSTORE PUSH1 0x20 PUSH0 KECCAK256 ADD PUSH0 SWAP1 SWAP2 SWAP1 SWAP2 SWAP1 SWAP2 POP SSTORE CALLER PUSH20 0xFFFFFFFFFFFFFFFFFFFFFFFFFFFFFFFFFFFFFFFF AND PUSH32 0x34EC3DB75ACF53C0A84E3CD96727124EEF978286B7493A45021537471FD50EC9 DUP3 PUSH1 0x40 MLOAD PUSH2 0x485 SWAP2 SWAP1 PUSH2 0x9F8 JUMP JUMPDEST PUSH1 0x40 MLOAD DUP1 SWAP2 SUB SWAP1 LOG2 POP JUMP JUMPDEST PUSH2 0x498 PUSH2 0x795 JUMP JUMPDEST PUSH1 0x2 PUSH0 DUP5 PUSH20 0xFFFFFFFFFFFFFFFFFFFFFFFFFFFFFFFFFFFFFFFF AND PUSH20 0xFFFFFFFFFFFFFFFFFFFFFFFFFFFFFFFFFFFFFFFF AND DUP2 MSTORE PUSH1 0x20 ADD SWAP1 DUP2 MSTORE PUSH1 0x20 ADD PUSH0 KECCAK256 DUP1 SLOAD SWAP1 POP DUP3 LT PUSH2 0x51A JUMPI PUSH1 0x40 MLOAD PUSH32 0x8C379A000000000000000000000000000000000000000000000000000000000 DUP2 MSTORE PUSH1 0x4 ADD PUSH2 0x511 SWAP1 PUSH2 0xBC8 JUMP JUMPDEST PUSH1 0x40 MLOAD DUP1 SWAP2 SUB SWAP1 REVERT JUMPDEST PUSH1 0x1 PUSH1 0x2 PUSH0 DUP6 PUSH20 0xFFFFFFFFFFFFFFFFFFFFFFFFFFFFFFFFFFFFFFFF AND PUSH20 0xFFFFFFFFFFFFFFFFFFFFFFFFFFFFFFFFFFFFFFFF AND DUP2 MSTORE PUSH1 0x20 ADD SWAP1 DUP2 MSTORE PUSH1 0x20 ADD PUSH0 KECCAK256 DUP4 DUP2 SLOAD DUP2 LT PUSH2 0x56B JUMPI PUSH2 0x56A PUSH2 0xBE6 JUMP JUMPDEST JUMPDEST SWAP1 PUSH0 MSTORE PUSH1 0x20 PUSH0 KECCAK256 ADD SLOAD DUP2 SLOAD DUP2 LT PUSH2 0x585 JUMPI PUSH2 0x584 PUSH2 0xBE6 JUMP JUMPDEST JUMPDEST SWAP1 PUSH0 MSTORE PUSH1 0x20 PUSH0 KECCAK256 SWAP1 PUSH1 0x2 MUL ADD PUSH1 0x1 ADD PUSH1 0x4 DUP1 PUSH1 0x20 MUL PUSH1 0x40 MLOAD SWAP1 DUP2 ADD PUSH1 0x40 MSTORE DUP1 SWAP3 SWAP2 SWAP1 DUP3 PUSH1 0x4 DUP1 ISZERO PUSH2 0x5EF JUMPI PUSH1 0x20 MUL DUP3 ADD SWAP2 PUSH0 SWAP1 JUMPDEST DUP3 DUP3 SWAP1 SLOAD SWAP1 PUSH2 0x100 EXP SWAP1 DIV PUSH1 0xFF AND PUSH1 0xFF AND DUP2 MSTORE PUSH1 0x20 ADD SWAP1 PUSH1 0x1 ADD SWAP1 PUSH1 0x20 DUP3 PUSH0 ADD DIV SWAP3 DUP4 ADD SWAP3 PUSH1 0x1 SUB DUP3 MUL SWAP2 POP DUP1 DUP5 GT PUSH2 0x5B9 JUMPI SWAP1 POP JUMPDEST POP POP POP POP POP SWAP1 POP SWAP3 SWAP2 POP POP JUMP JUMPDEST PUSH2 0x604 PUSH2 0x795 JUMP JUMPDEST PUSH2 0x60C PUSH2 0x795 JUMP JUMPDEST PUSH0 PUSH0 SWAP1 POP JUMPDEST PUSH1 0x4 DUP2 PUSH1 0xFF AND LT ISZERO PUSH2 0x6F3 JUMPI PUSH0 PUSH1 0x64 TIMESTAMP DUP8 DUP8 DUP6 PUSH1 0x40 MLOAD PUSH1 0x20 ADD PUSH2 0x637 SWAP5 SWAP4 SWAP3 SWAP2 SWAP1 PUSH2 0xCAC JUMP JUMPDEST PUSH1 0x40 MLOAD PUSH1 0x20 DUP2 DUP4 SUB SUB DUP2 MSTORE SWAP1 PUSH1 0x40 MSTORE DUP1 MLOAD SWAP1 PUSH1 0x20 ADD KECCAK256 PUSH0 SHR PUSH2 0x659 SWAP2 SWAP1 PUSH2 0xD26 JUMP JUMPDEST SWAP1 POP PUSH0 PUSH0 SWAP1 POP PUSH0 PUSH0 SWAP1 POP JUMPDEST DUP4 PUSH1 0xFF AND DUP2 PUSH1 0xFF AND LT ISZERO PUSH2 0x6AF JUMPI DUP3 PUSH1 0xFF AND DUP6 DUP3 PUSH1 0xFF AND PUSH1 0x4 DUP2 LT PUSH2 0x68C JUMPI PUSH2 0x68B PUSH2 0xBE6 JUMP JUMPDEST JUMPDEST PUSH1 0x20 MUL ADD MLOAD PUSH1 0xFF AND SUB PUSH2 0x6A2 JUMPI PUSH1 0x1 SWAP2 POP PUSH2 0x6AF JUMP JUMPDEST DUP1 DUP1 PUSH1 0x1 ADD SWAP2 POP POP PUSH2 0x664 JUMP JUMPDEST POP DUP1 PUSH2 0x6EC JUMPI DUP2 DUP5 DUP5 PUSH1 0xFF AND PUSH1 0x4 DUP2 LT PUSH2 0x6CC JUMPI PUSH2 0x6CB PUSH2 0xBE6 JUMP JUMPDEST JUMPDEST PUSH1 0x20 MUL ADD SWAP1 PUSH1 0xFF AND SWAP1 DUP2 PUSH1 0xFF AND DUP2 MSTORE POP POP DUP3 DUP1 PUSH2 0x6E8 SWAP1 PUSH2 0xD56 JUMP JUMPDEST SWAP4 POP POP JUMPDEST POP POP PUSH2 0x611 JUMP JUMPDEST DUP2 SWAP3 POP POP POP SWAP3 SWAP2 POP POP JUMP JUMPDEST DUP3 PUSH1 0x4 PUSH1 0x1F ADD PUSH1 0x20 SWAP1 DIV DUP2 ADD SWAP3 DUP3 ISZERO PUSH2 0x784 JUMPI SWAP2 PUSH1 0x20 MUL DUP3 ADD PUSH0 JUMPDEST DUP4 DUP3 GT ISZERO PUSH2 0x756 JUMPI DUP4 MLOAD DUP4 DUP3 PUSH2 0x100 EXP DUP2 SLOAD DUP2 PUSH1 0xFF MUL NOT AND SWAP1 DUP4 PUSH1 0xFF AND MUL OR SWAP1 SSTORE POP SWAP3 PUSH1 0x20 ADD SWAP3 PUSH1 0x1 ADD PUSH1 0x20 DUP2 PUSH0 ADD DIV SWAP3 DUP4 ADD SWAP3 PUSH1 0x1 SUB MUL PUSH2 0x719 JUMP JUMPDEST DUP1 ISZERO PUSH2 0x782 JUMPI DUP3 DUP2 PUSH2 0x100 EXP DUP2 SLOAD SWAP1 PUSH1 0xFF MUL NOT AND SWAP1 SSTORE PUSH1 0x1 ADD PUSH1 0x20 DUP2 PUSH0 ADD DIV SWAP3 DUP4 ADD SWAP3 PUSH1 0x1 SUB MUL PUSH2 0x756 JUMP JUMPDEST POP JUMPDEST POP SWAP1 POP PUSH2 0x791 SWAP2 SWAP1 PUSH2 0x7B7 JUMP JUMPDEST POP SWAP1 JUMP JUMPDEST PUSH1 0x40 MLOAD DUP1 PUSH1 0x80 ADD PUSH1 0x40 MSTORE DUP1 PUSH1 0x4 SWAP1 PUSH1 0x20 DUP3 MUL DUP1 CALLDATASIZE DUP4 CALLDATACOPY DUP1 DUP3 ADD SWAP2 POP POP SWAP1 POP POP SWAP1 JUMP JUMPDEST JUMPDEST DUP1 DUP3 GT ISZERO PUSH2 0x7CE JUMPI PUSH0 DUP2 PUSH0 SWAP1 SSTORE POP PUSH1 0x1 ADD PUSH2 0x7B8 JUMP JUMPDEST POP SWAP1 JUMP JUMPDEST PUSH0 DUP2 SWAP1 POP SWAP2 SWAP1 POP JUMP JUMPDEST PUSH2 0x7E4 DUP2 PUSH2 0x7D2 JUMP JUMPDEST DUP3 MSTORE POP POP JUMP JUMPDEST PUSH0 PUSH1 0x20 DUP3 ADD SWAP1 POP PUSH2 0x7FD PUSH0 DUP4 ADD DUP5 PUSH2 0x7DB JUMP JUMPDEST SWAP3 SWAP2 POP POP JUMP JUMPDEST PUSH0 PUSH0 REVERT JUMPDEST PUSH2 0x810 DUP2 PUSH2 0x7D2 JUMP JUMPDEST DUP2 EQ PUSH2 0x81A JUMPI PUSH0 PUSH0 REVERT JUMPDEST POP JUMP JUMPDEST PUSH0 DUP2 CALLDATALOAD SWAP1 POP PUSH2 0x82B DUP2 PUSH2 0x807 JUMP JUMPDEST SWAP3 SWAP2 POP POP JUMP JUMPDEST PUSH0 PUSH1 0x20 DUP3 DUP5 SUB SLT ISZERO PUSH2 0x846 JUMPI PUSH2 0x845 PUSH2 0x803 JUMP JUMPDEST JUMPDEST PUSH0 PUSH2 0x853 DUP5 DUP3 DUP6 ADD PUSH2 0x81D JUMP JUMPDEST SWAP2 POP POP SWAP3 SWAP2 POP POP JUMP JUMPDEST PUSH0 PUSH20 0xFFFFFFFFFFFFFFFFFFFFFFFFFFFFFFFFFFFFFFFF DUP3 AND SWAP1 POP SWAP2 SWAP1 POP JUMP JUMPDEST PUSH0 PUSH2 0x885 DUP3 PUSH2 0x85C JUMP JUMPDEST SWAP1 POP SWAP2 SWAP1 POP JUMP JUMPDEST PUSH2 0x895 DUP2 PUSH2 0x87B JUMP JUMPDEST DUP3 MSTORE POP POP JUMP JUMPDEST PUSH0 PUSH1 0x20 DUP3 ADD SWAP1 POP PUSH2 0x8AE PUSH0 DUP4 ADD DUP5 PUSH2 0x88C JUMP JUMPDEST SWAP3 SWAP2 POP POP JUMP JUMPDEST PUSH2 0x8BD DUP2 PUSH2 0x87B JUMP JUMPDEST DUP2 EQ PUSH2 0x8C7 JUMPI PUSH0 PUSH0 REVERT JUMPDEST POP JUMP JUMPDEST PUSH0 DUP2 CALLDATALOAD SWAP1 POP PUSH2 0x8D8 DUP2 PUSH2 0x8B4 JUMP JUMPDEST SWAP3 SWAP2 POP POP JUMP JUMPDEST PUSH0 PUSH1 0x20 DUP3 DUP5 SUB SLT ISZERO PUSH2 0x8F3 JUMPI PUSH2 0x8F2 PUSH2 0x803 JUMP JUMPDEST JUMPDEST PUSH0 PUSH2 0x900 DUP5 DUP3 DUP6 ADD PUSH2 0x8CA JUMP JUMPDEST SWAP2 POP POP SWAP3 SWAP2 POP POP JUMP JUMPDEST PUSH0 PUSH0 PUSH1 0x40 DUP4 DUP6 SUB SLT ISZERO PUSH2 0x91F JUMPI PUSH2 0x91E PUSH2 0x803 JUMP JUMPDEST JUMPDEST PUSH0 PUSH2 0x92C DUP6 DUP3 DUP7 ADD PUSH2 0x8CA JUMP JUMPDEST SWAP3 POP POP PUSH1 0x20 PUSH2 0x93D DUP6 DUP3 DUP7 ADD PUSH2 0x81D JUMP JUMPDEST SWAP2 POP POP SWAP3 POP SWAP3 SWAP1 POP JUMP JUMPDEST PUSH0 PUSH1 0x4 SWAP1 POP SWAP2 SWAP1 POP JUMP JUMPDEST PUSH0 DUP2 SWAP1 POP SWAP3 SWAP2 POP POP JUMP JUMPDEST PUSH0 DUP2 SWAP1 POP SWAP2 SWAP1 POP JUMP JUMPDEST PUSH0 PUSH1 0xFF DUP3 AND SWAP1 POP SWAP2 SWAP1 POP JUMP JUMPDEST PUSH2 0x979 DUP2 PUSH2 0x964 JUMP JUMPDEST DUP3 MSTORE POP POP JUMP JUMPDEST PUSH0 PUSH2 0x98A DUP4 DUP4 PUSH2 0x970 JUMP JUMPDEST PUSH1 0x20 DUP4 ADD SWAP1 POP SWAP3 SWAP2 POP POP JUMP JUMPDEST PUSH0 PUSH1 0x20 DUP3 ADD SWAP1 POP SWAP2 SWAP1 POP JUMP JUMPDEST PUSH2 0x9AB DUP2 PUSH2 0x947 JUMP JUMPDEST PUSH2 0x9B5 DUP2 DUP5 PUSH2 0x951 JUMP JUMPDEST SWAP3 POP PUSH2 0x9C0 DUP3 PUSH2 0x95B JUMP JUMPDEST DUP1 PUSH0 JUMPDEST DUP4 DUP2 LT ISZERO PUSH2 0x9F0 JUMPI DUP2 MLOAD PUSH2 0x9D7 DUP8 DUP3 PUSH2 0x97F JUMP JUMPDEST SWAP7 POP PUSH2 0x9E2 DUP4 PUSH2 0x996 JUMP JUMPDEST SWAP3 POP POP PUSH1 0x1 DUP2 ADD SWAP1 POP PUSH2 0x9C3 JUMP JUMPDEST POP POP POP POP POP POP JUMP JUMPDEST PUSH0 PUSH1 0x80 DUP3 ADD SWAP1 POP PUSH2 0xA0B PUSH0 DUP4 ADD DUP5 PUSH2 0x9A2 JUMP JUMPDEST SWAP3 SWAP2 POP POP JUMP JUMPDEST PUSH0 PUSH1 0x60 DUP3 ADD SWAP1 POP PUSH2 0xA24 PUSH0 DUP4 ADD DUP7 PUSH2 0x88C JUMP JUMPDEST PUSH2 0xA31 PUSH1 0x20 DUP4 ADD DUP6 PUSH2 0x88C JUMP JUMPDEST PUSH2 0xA3E PUSH1 0x40 DUP4 ADD DUP5 PUSH2 0x7DB JUMP JUMPDEST SWAP5 SWAP4 POP POP POP POP JUMP JUMPDEST PUSH0 DUP2 ISZERO ISZERO SWAP1 POP SWAP2 SWAP1 POP JUMP JUMPDEST PUSH2 0xA5A DUP2 PUSH2 0xA46 JUMP JUMPDEST DUP2 EQ PUSH2 0xA64 JUMPI PUSH0 PUSH0 REVERT JUMPDEST POP JUMP JUMPDEST PUSH0 DUP2 MLOAD SWAP1 POP PUSH2 0xA75 DUP2 PUSH2 0xA51 JUMP JUMPDEST SWAP3 SWAP2 POP POP JUMP JUMPDEST PUSH0 PUSH1 0x20 DUP3 DUP5 SUB SLT ISZERO PUSH2 0xA90 JUMPI PUSH2 0xA8F PUSH2 0x803 JUMP JUMPDEST JUMPDEST PUSH0 PUSH2 0xA9D DUP5 DUP3 DUP6 ADD PUSH2 0xA67 JUMP JUMPDEST SWAP2 POP POP SWAP3 SWAP2 POP POP JUMP JUMPDEST PUSH0 DUP3 DUP3 MSTORE PUSH1 0x20 DUP3 ADD SWAP1 POP SWAP3 SWAP2 POP POP JUMP JUMPDEST PUSH32 0x574D41544943207472616E73666572206661696C656400000000000000000000 PUSH0 DUP3 ADD MSTORE POP JUMP JUMPDEST PUSH0 PUSH2 0xAEA PUSH1 0x16 DUP4 PUSH2 0xAA6 JUMP JUMPDEST SWAP2 POP PUSH2 0xAF5 DUP3 PUSH2 0xAB6 JUMP JUMPDEST PUSH1 0x20 DUP3 ADD SWAP1 POP SWAP2 SWAP1 POP JUMP JUMPDEST PUSH0 PUSH1 0x20 DUP3 ADD SWAP1 POP DUP2 DUP2 SUB PUSH0 DUP4 ADD MSTORE PUSH2 0xB17 DUP2 PUSH2 0xADE JUMP JUMPDEST SWAP1 POP SWAP2 SWAP1 POP JUMP JUMPDEST PUSH32 0x4E487B7100000000000000000000000000000000000000000000000000000000 PUSH0 MSTORE PUSH1 0x11 PUSH1 0x4 MSTORE PUSH1 0x24 PUSH0 REVERT JUMPDEST PUSH0 PUSH2 0xB55 DUP3 PUSH2 0x7D2 JUMP JUMPDEST SWAP2 POP PUSH2 0xB60 DUP4 PUSH2 0x7D2 JUMP JUMPDEST SWAP3 POP DUP3 DUP3 SUB SWAP1 POP DUP2 DUP2 GT ISZERO PUSH2 0xB78 JUMPI PUSH2 0xB77 PUSH2 0xB1E JUMP JUMPDEST JUMPDEST SWAP3 SWAP2 POP POP JUMP JUMPDEST PUSH32 0x496E76616C6964207469636B657420696E646578000000000000000000000000 PUSH0 DUP3 ADD MSTORE POP JUMP JUMPDEST PUSH0 PUSH2 0xBB2 PUSH1 0x14 DUP4 PUSH2 0xAA6 JUMP JUMPDEST SWAP2 POP PUSH2 0xBBD DUP3 PUSH2 0xB7E JUMP JUMPDEST PUSH1 0x20 DUP3 ADD SWAP1 POP SWAP2 SWAP1 POP JUMP JUMPDEST PUSH0 PUSH1 0x20 DUP3 ADD SWAP1 POP DUP2 DUP2 SUB PUSH0 DUP4 ADD MSTORE PUSH2 0xBDF DUP2 PUSH2 0xBA6 JUMP JUMPDEST SWAP1 POP SWAP2 SWAP1 POP JUMP JUMPDEST PUSH32 0x4E487B7100000000000000000000000000000000000000000000000000000000 PUSH0 MSTORE PUSH1 0x32 PUSH1 0x4 MSTORE PUSH1 0x24 PUSH0 REVERT JUMPDEST PUSH0 DUP2 SWAP1 POP SWAP2 SWAP1 POP JUMP JUMPDEST PUSH2 0xC2D PUSH2 0xC28 DUP3 PUSH2 0x7D2 JUMP JUMPDEST PUSH2 0xC13 JUMP JUMPDEST DUP3 MSTORE POP POP JUMP JUMPDEST PUSH0 DUP2 PUSH1 0x60 SHL SWAP1 POP SWAP2 SWAP1 POP JUMP JUMPDEST PUSH0 PUSH2 0xC49 DUP3 PUSH2 0xC33 JUMP JUMPDEST SWAP1 POP SWAP2 SWAP1 POP JUMP JUMPDEST PUSH0 PUSH2 0xC5A DUP3 PUSH2 0xC3F JUMP JUMPDEST SWAP1 POP SWAP2 SWAP1 POP JUMP JUMPDEST PUSH2 0xC72 PUSH2 0xC6D DUP3 PUSH2 0x87B JUMP JUMPDEST PUSH2 0xC50 JUMP JUMPDEST DUP3 MSTORE POP POP JUMP JUMPDEST PUSH0 DUP2 PUSH1 0xF8 SHL SWAP1 POP SWAP2 SWAP1 POP JUMP JUMPDEST PUSH0 PUSH2 0xC8E DUP3 PUSH2 0xC78 JUMP JUMPDEST SWAP1 POP SWAP2 SWAP1 POP JUMP JUMPDEST PUSH2 0xCA6 PUSH2 0xCA1 DUP3 PUSH2 0x964 JUMP JUMPDEST PUSH2 0xC84 JUMP JUMPDEST DUP3 MSTORE POP POP JUMP JUMPDEST PUSH0 PUSH2 0xCB7 DUP3 DUP8 PUSH2 0xC1C JUMP JUMPDEST PUSH1 0x20 DUP3 ADD SWAP2 POP PUSH2 0xCC7 DUP3 DUP7 PUSH2 0xC61 JUMP JUMPDEST PUSH1 0x14 DUP3 ADD SWAP2 POP PUSH2 0xCD7 DUP3 DUP6 PUSH2 0xC1C JUMP JUMPDEST PUSH1 0x20 DUP3 ADD SWAP2 POP PUSH2 0xCE7 DUP3 DUP5 PUSH2 0xC95 JUMP JUMPDEST PUSH1 0x1 DUP3 ADD SWAP2 POP DUP2 SWAP1 POP SWAP6 SWAP5 POP POP POP POP POP JUMP JUMPDEST PUSH32 0x4E487B7100000000000000000000000000000000000000000000000000000000 PUSH0 MSTORE PUSH1 0x12 PUSH1 0x4 MSTORE PUSH1 0x24 PUSH0 REVERT JUMPDEST PUSH0 PUSH2 0xD30 DUP3 PUSH2 0x7D2 JUMP JUMPDEST SWAP2 POP PUSH2 0xD3B DUP4 PUSH2 0x7D2 JUMP JUMPDEST SWAP3 POP DUP3 PUSH2 0xD4B JUMPI PUSH2 0xD4A PUSH2 0xCF9 JUMP JUMPDEST JUMPDEST DUP3 DUP3 MOD SWAP1 POP SWAP3 SWAP2 POP POP JUMP JUMPDEST PUSH0 PUSH2 0xD60 DUP3 PUSH2 0x964 JUMP JUMPDEST SWAP2 POP PUSH1 0xFF DUP3 SUB PUSH2 0xD73 JUMPI PUSH2 0xD72 PUSH2 0xB1E JUMP JUMPDEST JUMPDEST PUSH1 0x1 DUP3 ADD SWAP1 POP SWAP2 SWAP1 POP JUMP INVALID LOG2 PUSH5 0x6970667358 0x22 SLT KECCAK256 EXTCALL OR STOP SWAP9 PUSH3 0x3B7FCE 0xC2 0xCF PUSH13 0x12ABBBB7EAB3C6B8DE06D43C49 SUB 0xA8 0xBF 0xB1 0xD4 0xC4 0x24 JUMP PUSH5 0x736F6C6343 STOP ADDMOD 0x1E STOP CALLER "
		},
		"gasEstimates": {
			"creation": {
				"codeDepositCost": "701600",
				"executionCost": "22837",
				"totalCost": "724437"
			},
			"external": {
				"WMATIC_ADDRESS()": "395",
				"buyTicket()": "infinite",
				"getUserTicket(address,uint256)": "infinite",
				"getUserTicketCount(address)": "2882",
				"ticketPrice()": "2425",
				"tickets(uint256)": "5001",
				"userTickets(address,uint256)": "infinite"
			},
			"internal": {
				"generateUniqueNumbers(address,uint256)": "infinite"
			}
		},
		"methodIdentifiers": {
			"WMATIC_ADDRESS()": "e95d8328",
			"buyTicket()": "edca914c",
			"getUserTicket(address,uint256)": "fa27500c",
			"getUserTicketCount(address)": "963ef2a2",
			"ticketPrice()": "1209b1f6",
			"tickets(uint256)": "50b44712",
			"userTickets(address,uint256)": "cf260baf"
		}
	},
	"abi": [
		{
			"anonymous": false,
			"inputs": [
				{
					"indexed": true,
					"internalType": "address",
					"name": "buyer",
					"type": "address"
				},
				{
					"indexed": false,
					"internalType": "uint8[4]",
					"name": "numbers",
					"type": "uint8[4]"
				}
			],
			"name": "TicketPurchased",
			"type": "event"
		},
		{
			"inputs": [],
			"name": "WMATIC_ADDRESS",
			"outputs": [
				{
					"internalType": "address",
					"name": "",
					"type": "address"
				}
			],
			"stateMutability": "view",
			"type": "function"
		},
		{
			"inputs": [],
			"name": "buyTicket",
			"outputs": [],
			"stateMutability": "nonpayable",
			"type": "function"
		},
		{
			"inputs": [
				{
					"internalType": "address",
					"name": "user",
					"type": "address"
				},
				{
					"internalType": "uint256",
					"name": "index",
					"type": "uint256"
				}
			],
			"name": "getUserTicket",
			"outputs": [
				{
					"internalType": "uint8[4]",
					"name": "",
					"type": "uint8[4]"
				}
			],
			"stateMutability": "view",
			"type": "function"
		},
		{
			"inputs": [
				{
					"internalType": "address",
					"name": "user",
					"type": "address"
				}
			],
			"name": "getUserTicketCount",
			"outputs": [
				{
					"internalType": "uint256",
					"name": "",
					"type": "uint256"
				}
			],
			"stateMutability": "view",
			"type": "function"
		},
		{
			"inputs": [],
			"name": "ticketPrice",
			"outputs": [
				{
					"internalType": "uint256",
					"name": "",
					"type": "uint256"
				}
			],
			"stateMutability": "view",
			"type": "function"
		},
		{
			"inputs": [
				{
					"internalType": "uint256",
					"name": "",
					"type": "uint256"
				}
			],
			"name": "tickets",
			"outputs": [
				{
					"internalType": "address",
					"name": "buyer",
					"type": "address"
				}
			],
			"stateMutability": "view",
			"type": "function"
		},
		{
			"inputs": [
				{
					"internalType": "address",
					"name": "",
					"type": "address"
				},
				{
					"internalType": "uint256",
					"name": "",
					"type": "uint256"
				}
			],
			"name": "userTickets",
			"outputs": [
				{
					"internalType": "uint256",
					"name": "",
					"type": "uint256"
				}
			],
			"stateMutability": "view",
			"type": "function"
		}
	]
}